{
  "contractName": "BallotsStorage",
  "abi": [
    {
      "anonymous": false,
      "inputs": [
        {
          "indexed": true,
          "name": "thresholdType",
          "type": "uint256"
        },
        {
          "indexed": false,
          "name": "newValue",
          "type": "uint256"
        }
      ],
      "name": "ThresholdChanged",
      "type": "event"
    },
    {
      "constant": true,
      "inputs": [
        {
          "name": "_ballotType",
          "type": "uint256"
        },
        {
          "name": "_affectedKeyType",
          "type": "uint256"
        },
        {
          "name": "_affectedKey",
          "type": "address"
        },
        {
          "name": "_miningKey",
          "type": "address"
        }
      ],
      "name": "areKeysBallotParamsValid",
      "outputs": [
        {
          "name": "",
          "type": "bool"
        }
      ],
      "payable": false,
      "stateMutability": "view",
      "type": "function"
    },
    {
      "constant": true,
      "inputs": [],
      "name": "proxyStorage",
      "outputs": [
        {
          "name": "",
          "type": "address"
        }
      ],
      "payable": false,
      "stateMutability": "view",
      "type": "function"
    },
    {
      "constant": true,
      "inputs": [],
      "name": "initDisabled",
      "outputs": [
        {
          "name": "",
          "type": "bool"
        }
      ],
      "payable": false,
      "stateMutability": "view",
      "type": "function"
    },
    {
      "constant": false,
      "inputs": [
        {
          "name": "_thresholds",
          "type": "uint256[]"
        }
      ],
      "name": "init",
      "outputs": [],
      "payable": false,
      "stateMutability": "nonpayable",
      "type": "function"
    },
    {
      "constant": true,
      "inputs": [],
      "name": "metadataChangeConfirmationsLimit",
      "outputs": [
        {
          "name": "",
          "type": "uint256"
        }
      ],
      "payable": false,
      "stateMutability": "pure",
      "type": "function"
    },
    {
      "constant": false,
      "inputs": [
        {
          "name": "_prevBallotsStorage",
          "type": "address"
        }
      ],
      "name": "migrate",
      "outputs": [],
      "payable": false,
      "stateMutability": "nonpayable",
      "type": "function"
    },
    {
      "constant": false,
      "inputs": [
        {
          "name": "_newValue",
          "type": "uint256"
        },
        {
          "name": "_thresholdType",
          "type": "uint256"
        }
      ],
      "name": "setThreshold",
      "outputs": [
        {
          "name": "",
          "type": "bool"
        }
      ],
      "payable": false,
      "stateMutability": "nonpayable",
      "type": "function"
    },
    {
      "constant": true,
      "inputs": [
        {
          "name": "_ballotType",
          "type": "uint256"
        }
      ],
      "name": "getBallotThreshold",
      "outputs": [
        {
          "name": "",
          "type": "uint256"
        }
      ],
      "payable": false,
      "stateMutability": "view",
      "type": "function"
    },
    {
      "constant": true,
      "inputs": [],
      "name": "getVotingToChangeThreshold",
      "outputs": [
        {
          "name": "",
          "type": "address"
        }
      ],
      "payable": false,
      "stateMutability": "view",
      "type": "function"
    },
    {
      "constant": true,
      "inputs": [],
      "name": "getProxyThreshold",
      "outputs": [
        {
          "name": "",
          "type": "uint256"
        }
      ],
      "payable": false,
      "stateMutability": "view",
      "type": "function"
    },
    {
      "constant": true,
      "inputs": [],
      "name": "getBallotLimitPerValidator",
      "outputs": [
        {
          "name": "",
          "type": "uint256"
        }
      ],
      "payable": false,
      "stateMutability": "view",
      "type": "function"
    },
    {
      "constant": true,
      "inputs": [],
      "name": "getMaxLimitBallot",
      "outputs": [
        {
          "name": "",
          "type": "uint256"
        }
      ],
      "payable": false,
      "stateMutability": "view",
      "type": "function"
    }
  ],
  "bytecode": "0x608060405234801561001057600080fd5b50611588806100206000396000f3006080604052600436106100a05763ffffffff60e060020a600035041663247b321081146100a55780633fd626d4146100cc57806345e23b531461010d57806352a3693814610125578063936736201461013a578063ae4b1b5b1461014f578063b9c3620914610180578063ce5494bb1461019b578063d1104cb2146101be578063d88b06db146101d3578063eecd107914610228578063fcff021c1461023d575b600080fd5b3480156100b157600080fd5b506100ba610252565b60408051918252519081900360200190f35b3480156100d857600080fd5b506100f9600435602435600160a060020a0360443581169060643516610257565b604080519115158252519081900360200190f35b34801561011957600080fd5b506100ba6004356102f1565b34801561013157600080fd5b506100f96103ac565b34801561014657600080fd5b506100ba6103f0565b34801561015b57600080fd5b506101646103f5565b60408051600160a060020a039092168252519081900360200190f35b34801561018c57600080fd5b506100f960043560243561043f565b3480156101a757600080fd5b506101bc600160a060020a03600435166104cd565b005b3480156101ca57600080fd5b5061016461068b565b3480156101df57600080fd5b50604080516020600480358082013583810280860185019096528085526101bc953695939460249493850192918291850190849080828437509497506107039650505050505050565b34801561023457600080fd5b506100ba6107d2565b34801561024957600080fd5b506100ba610803565b60c890565b6000600185101561026757600080fd5b600385111561027557600080fd5b600160a060020a038316151561028a57600080fd5b600184101561029857600080fd5b60038411156102a657600080fd5b60018514156102c1576102ba84848461084a565b90506102e9565b60028514156102d5576102ba848484610b52565b60038514156102e9576102ba848484610e7f565b949350505050565b604080517f62616c6c6f745468726573686f6c64730000000000000000000000000000000060208083019190915281830184905282518083038401815260609092019283905281516000936002938593909282918401908083835b6020831061036b5780518252601f19909201916020918201910161034c565b51815160209384036101000a600019018019909216911617905260408051929094018290039091208652850195909552929092016000205495945050505050565b604080517f696e697444697361626c656400000000000000000000000000000000000000008152815190819003600c01902060009081526006602052205460ff1690565b603290565b604080517f70726f787953746f7261676500000000000000000000000000000000000000008152815190819003600c019020600090815260046020522054600160a060020a031690565b600061044961068b565b600160a060020a0316331461045d57600080fd5b610466826102f1565b831415610475575060006104c7565b61047f8383611281565b151561048d575060006104c7565b60408051848152905183917f3164947cf0f49f08dd0cd80e671535b1e11590d347c55dcaa97ba3c24a96b33a919081900360200190a25060015b92915050565b604080517f6f776e65720000000000000000000000000000000000000000000000000000008152815190819003600501902060009081526004602052908120548190819033600160a060020a039091161461052757600080fd5b600160a060020a038416151561053c57600080fd5b6105446103ac565b1561054e57600080fd5b60019250600291508390506105e081600160a060020a0316632ffdfc8a856040518263ffffffff1660e060020a028152600401808260ff1660ff168152602001915050602060405180830381600087803b1580156105ab57600080fd5b505af11580156105bf573d6000803e3d6000fd5b505050506040513d60208110156105d557600080fd5b505160ff8516611281565b15156105eb57600080fd5b61067281600160a060020a0316632ffdfc8a846040518263ffffffff1660e060020a028152600401808260ff1660ff168152602001915050602060405180830381600087803b15801561063d57600080fd5b505af1158015610651573d6000803e3d6000fd5b505050506040513d602081101561066757600080fd5b505160ff8416611281565b151561067d57600080fd5b610685611393565b50505050565b60006106956103f5565b600160a060020a031663a3b3fff16040518163ffffffff1660e060020a028152600401602060405180830381600087803b1580156106d257600080fd5b505af11580156106e6573d6000803e3d6000fd5b505050506040513d60208110156106fc57600080fd5b5051905090565b604080517f6f776e6572000000000000000000000000000000000000000000000000000000815281519081900360050190206000908152600460205290812054819033600160a060020a039091161461075b57600080fd5b6107636103ac565b1561076d57600080fd5b600283511461077b57600080fd5b600191505b825182116107c557826001830381518110151561079957fe5b9060200190602002015190506107af8183611281565b15156107ba57600080fd5b600190910190610780565b6107cd611393565b505050565b60006107fe60016107f260026107e66113dd565b9063ffffffff6114e816565b9063ffffffff6114ff16565b905090565b60008060006108106113dd565b915081151561082857610821610252565b9250610845565b610834826107e6610252565b9050801515610841575060015b8092505b505090565b600080610855611515565b9050600185141561090157604080517f731fcb9a000000000000000000000000000000000000000000000000000000008152600160a060020a038581166004830152868116602483015291519183169163731fcb9a916044808201926020929091908290030181600087803b1580156108cd57600080fd5b505af11580156108e1573d6000803e3d6000fd5b505050506040513d60208110156108f757600080fd5b5051159150610b4a565b6002851415610adc5780600160a060020a031663fa81b2006040518163ffffffff1660e060020a028152600401602060405180830381600087803b15801561094857600080fd5b505af115801561095c573d6000803e3d6000fd5b505050506040513d602081101561097257600080fd5b5051600160a060020a038481169116141561098c57600080fd5b604080517ffa46eacd000000000000000000000000000000000000000000000000000000008152600160a060020a038681166004830152915160009284169163fa46eacd91602480830192602092919082900301818787803b1580156109f157600080fd5b505af1158015610a05573d6000803e3d6000fd5b505050506040513d6020811015610a1b57600080fd5b5051600160a060020a031614610a3057600080fd5b82600160a060020a031684600160a060020a031614158015610ad5575080600160a060020a0316639bc91c22846040518263ffffffff1660e060020a0281526004018082600160a060020a0316600160a060020a03168152602001915050602060405180830381600087803b158015610aa857600080fd5b505af1158015610abc573d6000803e3d6000fd5b505050506040513d6020811015610ad257600080fd5b50515b9150610b4a565b6003851415610b4a57604080517fc04455b5000000000000000000000000000000000000000000000000000000008152600160a060020a038681166004830152915160009284169163c04455b591602480830192602092919082900301818787803b1580156109f157600080fd5b509392505050565b600080600080610b60611515565b925082600160a060020a0316639bc91c22866040518263ffffffff1660e060020a0281526004018082600160a060020a0316600160a060020a03168152602001915050602060405180830381600087803b158015610bbd57600080fd5b505af1158015610bd1573d6000803e3d6000fd5b505050506040513d6020811015610be757600080fd5b50511515610bf457600080fd5b6001871415610c065760019350610e75565b6002871415610d5757600160a060020a038681169086161415610c2857600080fd5b82600160a060020a0316632befe2e1866040518263ffffffff1660e060020a0281526004018082600160a060020a0316600160a060020a03168152602001915050602060405180830381600087803b158015610c8357600080fd5b505af1158015610c97573d6000803e3d6000fd5b505050506040513d6020811015610cad57600080fd5b50519150600160a060020a0386811690831614610cc957600080fd5b82600160a060020a03166362b46d64836040518263ffffffff1660e060020a0281526004018082600160a060020a0316600160a060020a03168152602001915050602060405180830381600087803b158015610d2457600080fd5b505af1158015610d38573d6000803e3d6000fd5b505050506040513d6020811015610d4e57600080fd5b50519350610e75565b6003871415610e7557600160a060020a038681169086161415610d7957600080fd5b82600160a060020a0316637cded930866040518263ffffffff1660e060020a0281526004018082600160a060020a0316600160a060020a03168152602001915050602060405180830381600087803b158015610dd457600080fd5b505af1158015610de8573d6000803e3d6000fd5b505050506040513d6020811015610dfe57600080fd5b50519050600160a060020a0386811690821614610e1a57600080fd5b82600160a060020a031663fee09285866040518263ffffffff1660e060020a0281526004018082600160a060020a0316600160a060020a03168152602001915050602060405180830381600087803b158015610d2457600080fd5b5050509392505050565b6000808080600160a060020a038681169086161415610e9d57600080fd5b610ea5611515565b925082600160a060020a0316639bc91c22866040518263ffffffff1660e060020a0281526004018082600160a060020a0316600160a060020a03168152602001915050602060405180830381600087803b158015610f0257600080fd5b505af1158015610f16573d6000803e3d6000fd5b505050506040513d6020811015610f2c57600080fd5b50511515610f3957600080fd5b6001871415610fe357604080517f731fcb9a000000000000000000000000000000000000000000000000000000008152600160a060020a038781166004830152888116602483015291519185169163731fcb9a916044808201926020929091908290030181600087803b158015610faf57600080fd5b505af1158015610fc3573d6000803e3d6000fd5b505050506040513d6020811015610fd957600080fd5b5051159350610e75565b60028714156111325782600160a060020a0316632befe2e1866040518263ffffffff1660e060020a0281526004018082600160a060020a0316600160a060020a03168152602001915050602060405180830381600087803b15801561104757600080fd5b505af115801561105b573d6000803e3d6000fd5b505050506040513d602081101561107157600080fd5b50519150600160a060020a03868116908316141561108e57600080fd5b604080517ffa46eacd000000000000000000000000000000000000000000000000000000008152600160a060020a038881166004830152915160009286169163fa46eacd91602480830192602092919082900301818787803b1580156110f357600080fd5b505af1158015611107573d6000803e3d6000fd5b505050506040513d602081101561111d57600080fd5b5051600160a060020a031614610cc957600080fd5b6003871415610e755782600160a060020a0316637cded930866040518263ffffffff1660e060020a0281526004018082600160a060020a0316600160a060020a03168152602001915050602060405180830381600087803b15801561119657600080fd5b505af11580156111aa573d6000803e3d6000fd5b505050506040513d60208110156111c057600080fd5b50519050600160a060020a0386811690821614156111dd57600080fd5b604080517fc04455b5000000000000000000000000000000000000000000000000000000008152600160a060020a038881166004830152915160009286169163c04455b591602480830192602092919082900301818787803b15801561124257600080fd5b505af1158015611256573d6000803e3d6000fd5b505050506040513d602081101561126c57600080fd5b5051600160a060020a031614610e1a57600080fd5b6000821515611292575060006104c7565b8115156112a1575060006104c7565b60028211156112b2575060006104c7565b60028214156112d2576112c36103f0565b8311156112d2575060006104c7565b604080517f62616c6c6f745468726573686f6c64730000000000000000000000000000000060208083019190915281830185905282518083038401815260609092019283905281518693600293600093909282918401908083835b6020831061134c5780518252601f19909201916020918201910161132d565b51815160209384036101000a600019018019909216911617905260408051929094018290039091208652850195909552929092016000209390935550600195945050505050565b604080517f696e697444697361626c656400000000000000000000000000000000000000008152815190819003600c0190206000908152600660205220805460ff19166001179055565b60008060006113ea6103f5565b915081600160a060020a0316638b8414c46040518163ffffffff1660e060020a028152600401602060405180830381600087803b15801561142a57600080fd5b505af115801561143e573d6000803e3d6000fd5b505050506040513d602081101561145457600080fd5b5051604080517fa87563370000000000000000000000000000000000000000000000000000000081529051919250600160a060020a0383169163a8756337916004808201926020929091908290030181600087803b1580156114b557600080fd5b505af11580156114c9573d6000803e3d6000fd5b505050506040513d60208110156114df57600080fd5b50519250505090565b60008082848115156114f657fe5b04949350505050565b60008282018381101561150e57fe5b9392505050565b600061151f6103f5565b600160a060020a0316639a5737866040518163ffffffff1660e060020a028152600401602060405180830381600087803b1580156106d257600080fd00a165627a7a7230582040c7b711d0cc23fd21fd03263335c2cf97817a0517a31ec2cf61bc8dd84de59b0029",
  "source": "pragma solidity ^0.4.24;\n\nimport \"./interfaces/IBallotsStorage.sol\";\nimport \"./interfaces/IKeysManager.sol\";\nimport \"./interfaces/IProxyStorage.sol\";\nimport \"./interfaces/IPoaNetworkConsensus.sol\";\nimport \"./eternal-storage/EternalStorage.sol\";\nimport \"./abstracts/EnumBallotTypes.sol\";\nimport \"./abstracts/EnumKeyTypes.sol\";\nimport \"./abstracts/EnumThresholdTypes.sol\";\nimport \"./libs/SafeMath.sol\";\n\n\ncontract BallotsStorage is EternalStorage, EnumBallotTypes, EnumKeyTypes, EnumThresholdTypes, IBallotsStorage {\n    using SafeMath for uint256;\n\n    bytes32 internal constant INIT_DISABLED = keccak256(\"initDisabled\");\n    bytes32 internal constant OWNER = keccak256(\"owner\");\n    bytes32 internal constant PROXY_STORAGE = keccak256(\"proxyStorage\");\n\n    bytes32 internal constant BALLOT_THRESHOLDS = \"ballotThresholds\";\n\n    event ThresholdChanged(uint256 indexed thresholdType, uint256 newValue);\n\n    modifier onlyOwner() {\n        require(msg.sender == addressStorage[OWNER]);\n        _;\n    }\n\n    modifier onlyVotingToChangeThreshold() {\n        require(msg.sender == getVotingToChangeThreshold());\n        _;\n    }\n\n    function areKeysBallotParamsValid(\n        uint256 _ballotType,\n        uint256 _affectedKeyType,\n        address _affectedKey,\n        address _miningKey\n    ) external view returns(bool) {\n        require(_ballotType >= uint256(BallotTypes.KeyAdding));\n        require(_ballotType <= uint256(BallotTypes.KeySwap));\n        require(_affectedKey != address(0));\n        require(_affectedKeyType >= uint256(KeyTypes.MiningKey));\n        require(_affectedKeyType <= uint256(KeyTypes.PayoutKey));\n\n        if (_ballotType == uint256(BallotTypes.KeyAdding)) {\n            return _areKeyAddingBallotParamsValid(\n                _affectedKeyType, \n                _affectedKey,\n                _miningKey\n            );\n        }\n        if (_ballotType == uint256(BallotTypes.KeyRemoval)) {\n            return _areKeyRemovalBallotParamsValid(\n                _affectedKeyType,\n                _affectedKey,\n                _miningKey\n            );\n        }\n        if (_ballotType == uint256(BallotTypes.KeySwap)) {\n            return _areKeySwapBallotParamsValid(\n                _affectedKeyType,\n                _affectedKey,\n                _miningKey\n            );\n        }\n    }\n\n    function proxyStorage() public view returns(address) {\n        return addressStorage[PROXY_STORAGE];\n    }\n\n    function initDisabled() public view returns(bool) {\n        return boolStorage[INIT_DISABLED];\n    }\n\n    function init(\n        uint256[] _thresholds\n    ) public onlyOwner {\n        require(!initDisabled());\n        require(_thresholds.length == uint256(ThresholdTypes.MetadataChange));\n        uint256 thresholdType = uint256(ThresholdTypes.Keys);\n        for (; thresholdType <= _thresholds.length; thresholdType++) {\n            uint256 thresholdValue = _thresholds[thresholdType - uint256(ThresholdTypes.Keys)];\n            if (!_setThreshold(thresholdValue, thresholdType)) {\n                revert();\n            }\n        }\n        _initDisable();\n    }\n\n    function metadataChangeConfirmationsLimit() public pure returns(uint256) {\n        return 50;\n    }\n\n    function migrate(address _prevBallotsStorage) public onlyOwner {\n        require(_prevBallotsStorage != address(0));\n        require(!initDisabled());\n        uint8 thresholdKeysType = uint8(ThresholdTypes.Keys);\n        uint8 thresholdMetadataType = uint8(ThresholdTypes.MetadataChange);\n        IBallotsStoragePrev prevBallotsStorage = IBallotsStoragePrev(_prevBallotsStorage);\n        if (!_setThreshold(prevBallotsStorage.getBallotThreshold(thresholdKeysType), thresholdKeysType)) {\n            revert();\n        }\n        if (!_setThreshold(prevBallotsStorage.getBallotThreshold(thresholdMetadataType), thresholdMetadataType)) {\n            revert();\n        }\n        _initDisable();\n    }\n\n    function setThreshold(uint256 _newValue, uint256 _thresholdType)\n        public\n        onlyVotingToChangeThreshold\n        returns(bool)\n    {\n        if (_newValue == getBallotThreshold(_thresholdType)) return false;\n        if (!_setThreshold(_newValue, _thresholdType)) return false;\n        emit ThresholdChanged(_thresholdType, _newValue);\n        return true;\n    }\n\n    function getBallotThreshold(uint256 _ballotType) public view returns(uint256) {\n        return uintStorage[keccak256(abi.encode(BALLOT_THRESHOLDS, _ballotType))];\n    }\n\n    function getVotingToChangeThreshold() public view returns(address) {\n        return IProxyStorage(proxyStorage()).getVotingToChangeMinThreshold();\n    }\n\n    function getProxyThreshold() public view returns(uint256) {\n        return _getTotalNumberOfValidators().div(2).add(1);\n    }\n\n    function getBallotLimitPerValidator() public view returns(uint256) {\n        uint256 validatorsCount = _getTotalNumberOfValidators();\n        if (validatorsCount == 0) {\n            return getMaxLimitBallot();\n        }\n        uint256 limit = getMaxLimitBallot().div(validatorsCount);\n        if (limit == 0) {\n            limit = 1;\n        }\n        return limit;\n    }\n    \n    function getMaxLimitBallot() public view returns(uint256) {\n        return 200;\n    }\n\n    function _areKeyAddingBallotParamsValid(\n        uint256 _affectedKeyType,\n        address _affectedKey,\n        address _miningKey\n    ) internal view returns(bool) {\n        IKeysManager keysManager = _getKeysManager();\n        if (_affectedKeyType == uint256(KeyTypes.MiningKey)) {\n            return !keysManager.checkIfMiningExisted(_miningKey, _affectedKey);\n        }\n        if (_affectedKeyType == uint256(KeyTypes.VotingKey)) {\n            require(_miningKey != keysManager.masterOfCeremony());\n            require(keysManager.miningKeyByVoting(_affectedKey) == address(0));\n            return _affectedKey != _miningKey && keysManager.isMiningActive(_miningKey);\n        }\n        if (_affectedKeyType == uint256(KeyTypes.PayoutKey)) {\n            require(keysManager.miningKeyByPayout(_affectedKey) == address(0));\n            return _affectedKey != _miningKey && keysManager.isMiningActive(_miningKey);\n        }\n    }\n\n    function _areKeyRemovalBallotParamsValid(\n        uint256 _affectedKeyType,\n        address _affectedKey,\n        address _miningKey\n    ) internal view returns(bool) {\n        IKeysManager keysManager = _getKeysManager();\n        require(keysManager.isMiningActive(_miningKey));\n        if (_affectedKeyType == uint256(KeyTypes.MiningKey)) {\n            return true;\n        }\n        if (_affectedKeyType == uint256(KeyTypes.VotingKey)) {\n            require(_affectedKey != _miningKey);\n            address votingKey = keysManager.getVotingByMining(_miningKey);\n            require(_affectedKey == votingKey);\n            return keysManager.isVotingActive(votingKey);\n        }\n        if (_affectedKeyType == uint256(KeyTypes.PayoutKey)) {\n            require(_affectedKey != _miningKey);\n            address payoutKey = keysManager.getPayoutByMining(_miningKey);\n            require(_affectedKey == payoutKey);\n            return keysManager.isPayoutActive(_miningKey);\n        }\n    }\n\n    function _areKeySwapBallotParamsValid(\n        uint256 _affectedKeyType,\n        address _affectedKey,\n        address _miningKey\n    ) internal view returns(bool) {\n        require(_affectedKey != _miningKey);\n        IKeysManager keysManager = _getKeysManager();\n        require(keysManager.isMiningActive(_miningKey));\n        if (_affectedKeyType == uint256(KeyTypes.MiningKey)) {\n            return !keysManager.checkIfMiningExisted(_miningKey, _affectedKey);\n        }\n        if (_affectedKeyType == uint256(KeyTypes.VotingKey)) {\n            address votingKey = keysManager.getVotingByMining(_miningKey);\n            require(_affectedKey != votingKey);\n            require(keysManager.miningKeyByVoting(_affectedKey) == address(0));\n            return keysManager.isVotingActive(votingKey);\n        }\n        if (_affectedKeyType == uint256(KeyTypes.PayoutKey)) {\n            address payoutKey = keysManager.getPayoutByMining(_miningKey);\n            require(_affectedKey != payoutKey);\n            require(keysManager.miningKeyByPayout(_affectedKey) == address(0));\n            return keysManager.isPayoutActive(_miningKey);\n        }\n    }\n\n    function _initDisable() internal {\n        boolStorage[INIT_DISABLED] = true;\n    }\n\n    function _getKeysManager() internal view returns(IKeysManager) {\n        return IKeysManager(IProxyStorage(proxyStorage()).getKeysManager());\n    }\n\n    function _getTotalNumberOfValidators() internal view returns(uint256) {\n        IProxyStorage proxy = IProxyStorage(proxyStorage());\n        IPoaNetworkConsensus poa = IPoaNetworkConsensus(proxy.getPoaConsensus());\n        return poa.getCurrentValidatorsLengthWithoutMoC();\n    }\n\n    function _setThreshold(uint256 _newValue, uint256 _thresholdType) internal returns(bool) {\n        if (_newValue == 0) return false;\n        if (_thresholdType == uint256(ThresholdTypes.Invalid)) return false;\n        if (_thresholdType > uint256(ThresholdTypes.MetadataChange)) return false;\n        if (_thresholdType == uint256(ThresholdTypes.MetadataChange)) {\n            if (_newValue > metadataChangeConfirmationsLimit()) {\n                return false;\n            }\n        }\n        uintStorage[\n            keccak256(abi.encode(BALLOT_THRESHOLDS, _thresholdType))\n        ] = _newValue;\n        return true;\n    }\n}",
  "sourcePath": "/home/moc/poa-network-consensus-contracts/contracts/BallotsStorage.sol",
  "compiler": {
    "name": "solc",
    "version": "0.4.24+commit.e67f0147.Emscripten.clang"
  },
  "schemaVersion": "2.0.1",
  "updatedAt": "2021-11-29T10:09:50.881Z"
}