{
  "contractName": "EternalStorageProxy",
  "abi": [
    {
      "inputs": [
        {
          "name": "_proxyStorage",
          "type": "address"
        },
        {
          "name": "_implementationAddress",
          "type": "address"
        }
      ],
      "payable": false,
      "stateMutability": "nonpayable",
      "type": "constructor"
    },
    {
      "payable": false,
      "stateMutability": "nonpayable",
      "type": "fallback"
    },
    {
      "anonymous": false,
      "inputs": [
        {
          "indexed": false,
          "name": "version",
          "type": "uint256"
        },
        {
          "indexed": true,
          "name": "implementation",
          "type": "address"
        }
      ],
      "name": "Upgraded",
      "type": "event"
    },
    {
      "anonymous": false,
      "inputs": [
        {
          "indexed": true,
          "name": "previousOwner",
          "type": "address"
        }
      ],
      "name": "OwnershipRenounced",
      "type": "event"
    },
    {
      "anonymous": false,
      "inputs": [
        {
          "indexed": true,
          "name": "previousOwner",
          "type": "address"
        },
        {
          "indexed": true,
          "name": "newOwner",
          "type": "address"
        }
      ],
      "name": "OwnershipTransferred",
      "type": "event"
    },
    {
      "constant": true,
      "inputs": [],
      "name": "getOwner",
      "outputs": [
        {
          "name": "",
          "type": "address"
        }
      ],
      "payable": false,
      "stateMutability": "view",
      "type": "function"
    },
    {
      "constant": true,
      "inputs": [],
      "name": "getProxyStorage",
      "outputs": [
        {
          "name": "",
          "type": "address"
        }
      ],
      "payable": false,
      "stateMutability": "view",
      "type": "function"
    },
    {
      "constant": true,
      "inputs": [],
      "name": "implementation",
      "outputs": [
        {
          "name": "",
          "type": "address"
        }
      ],
      "payable": false,
      "stateMutability": "view",
      "type": "function"
    },
    {
      "constant": false,
      "inputs": [],
      "name": "renounceOwnership",
      "outputs": [],
      "payable": false,
      "stateMutability": "nonpayable",
      "type": "function"
    },
    {
      "constant": false,
      "inputs": [
        {
          "name": "_newOwner",
          "type": "address"
        }
      ],
      "name": "transferOwnership",
      "outputs": [],
      "payable": false,
      "stateMutability": "nonpayable",
      "type": "function"
    },
    {
      "constant": false,
      "inputs": [
        {
          "name": "newImplementation",
          "type": "address"
        }
      ],
      "name": "upgradeTo",
      "outputs": [
        {
          "name": "",
          "type": "bool"
        }
      ],
      "payable": false,
      "stateMutability": "nonpayable",
      "type": "function"
    },
    {
      "constant": true,
      "inputs": [],
      "name": "version",
      "outputs": [
        {
          "name": "",
          "type": "uint256"
        }
      ],
      "payable": false,
      "stateMutability": "view",
      "type": "function"
    }
  ],
  "bytecode": "0x608060405234801561001057600080fd5b50604051604080610636833981016040528051602090910151600160a060020a038116151561003e57600080fd5b600160a060020a038216156100645761005f826401000000006100aa810204565b610076565b610076306401000000006100aa810204565b60018054600160a060020a031916600160a060020a0383161790556100a333640100000000610108810204565b5050610166565b604080517f70726f787953746f7261676500000000000000000000000000000000000000008152815190819003600c01902060009081526004602052208054600160a060020a03909216600160a060020a0319909216919091179055565b604080517f6f776e65720000000000000000000000000000000000000000000000000000008152815190819003600501902060009081526004602052208054600160a060020a03909216600160a060020a0319909216919091179055565b6104c1806101756000396000f3006080604052600436106100825763ffffffff7c01000000000000000000000000000000000000000000000000000000006000350416633659cfe681146100cb57806354fd4d50146101005780635c60da1b14610127578063715018a614610158578063893d20e81461016f578063ec15a5e614610184578063f2fde38b14610199575b34801561008e57600080fd5b50600154600160a060020a03168015156100a757600080fd5b3660008037600080366000845af43d6000803e8080156100c6573d6000f35b3d6000fd5b3480156100d757600080fd5b506100ec600160a060020a03600435166101ba565b604080519115158252519081900360200190f35b34801561010c57600080fd5b50610115610298565b60408051918252519081900360200190f35b34801561013357600080fd5b5061013c61029e565b60408051600160a060020a039092168252519081900360200190f35b34801561016457600080fd5b5061016d6102ad565b005b34801561017b57600080fd5b5061013c610312565b34801561019057600080fd5b5061013c61035c565b3480156101a557600080fd5b5061016d600160a060020a03600435166103a6565b6000806101c561035c565b600160a060020a031633146101d957600080fd5b600160a060020a03831615156101f25760009150610292565b600154600160a060020a03848116911614156102115760009150610292565b50600054600181019081116102295760009150610292565b600081905560018054600160a060020a03851673ffffffffffffffffffffffffffffffffffffffff1990911681179091556040805183815290517f4289d6195cf3c2d2174adf98d0e19d4d2d08887995b99cb7b100e7ffe795820e9181900360200190a2600191505b50919050565b60005490565b600154600160a060020a031690565b6102b5610312565b600160a060020a031633146102c957600080fd5b6102d1610312565b600160a060020a03167ff8df31144d9c2f0f6b59d69b8b98abd5459d07f2742c4df920b25aae33c6482060405160405180910390a2610310600061042a565b565b604080517f6f776e657200000000000000000000000000000000000000000000000000000081528151908190036005019020600090815260046020522054600160a060020a031690565b604080517f70726f787953746f7261676500000000000000000000000000000000000000008152815190819003600c019020600090815260046020522054600160a060020a031690565b6103ae610312565b600160a060020a031633146103c257600080fd5b600160a060020a03811615156103d757600080fd5b80600160a060020a03166103e9610312565b600160a060020a03167f8be0079c531659141344cd1fd0a4f28419497f9722a3daafe3b4186f6b6457e060405160405180910390a36104278161042a565b50565b604080517f6f776e65720000000000000000000000000000000000000000000000000000008152815190819003600501902060009081526004602052208054600160a060020a0390921673ffffffffffffffffffffffffffffffffffffffff199092169190911790555600a165627a7a7230582062bd663b5a8d4cb0fca0c72058f2fdb2e1a21ceedeeff83ad206fddbf08a726a0029",
  "source": "pragma solidity ^0.4.24;\n\nimport \"./EternalStorage.sol\";\nimport \"../interfaces/IEternalStorageProxy.sol\";\n\n\n/**\n * @title EternalStorageProxy\n * @dev This proxy holds the storage of the token contract and delegates every call to the current implementation set.\n * Besides, it allows to upgrade the token's behaviour towards further implementations, and provides\n * authorization control functionalities\n */\ncontract EternalStorageProxy is EternalStorage, IEternalStorageProxy {\n    bytes32 internal constant OWNER = keccak256(\"owner\");\n    bytes32 internal constant PROXY_STORAGE = keccak256(\"proxyStorage\");\n\n    /**\n    * @dev This event will be emitted every time the implementation gets upgraded\n    * @param version representing the version number of the upgraded implementation\n    * @param implementation representing the address of the upgraded implementation\n    */\n    event Upgraded(uint256 version, address indexed implementation);\n\n    event OwnershipRenounced(address indexed previousOwner);\n    event OwnershipTransferred(address indexed previousOwner, address indexed newOwner);\n\n    modifier onlyProxyStorage() {\n        require(msg.sender == getProxyStorage());\n        _;\n    }\n\n    modifier onlyOwner() {\n        require(msg.sender == getOwner());\n        _;\n    }\n\n    constructor(address _proxyStorage, address _implementationAddress) public {\n        require(_implementationAddress != address(0));\n\n        if (_proxyStorage != address(0)) {\n            _setProxyStorage(_proxyStorage);\n        } else {\n            _setProxyStorage(address(this));\n        }\n        \n        _implementation = _implementationAddress;\n        _setOwner(msg.sender);\n    }\n\n    /**\n    * @dev Fallback function allowing to perform a delegatecall to the given implementation.\n    * This function will return whatever the implementation call returns\n    */\n    // solhint-disable no-complex-fallback, no-inline-assembly\n    function() external {\n        address _impl = _implementation;\n        require(_impl != address(0));\n\n        assembly {\n            // Copy msg.data. We take full control of memory in this inline assembly\n            // block because it will not return to Solidity code. We overwrite the\n            // Solidity scratch pad at memory position 0\n            calldatacopy(0, 0, calldatasize)\n\n            // Call the implementation.\n            // out and outsize are 0 because we don't know the size yet\n            let result := delegatecall(gas, _impl, 0, calldatasize, 0, 0)\n\n            // Copy the returned data\n            returndatacopy(0, 0, returndatasize)\n\n            switch result\n            // delegatecall returns 0 on error\n            case 0 { revert(0, returndatasize) }\n            default { return(0, returndatasize) }\n        }\n    }\n    // solhint-enable no-complex-fallback, no-inline-assembly\n\n    function getOwner() public view returns(address) {\n        return addressStorage[OWNER];\n    }\n\n    function getProxyStorage() public view returns(address) {\n        return addressStorage[PROXY_STORAGE];\n    }\n\n    /**\n    * @dev Tells the address of the current implementation\n    * @return address of the current implementation\n    */\n    function implementation() public view returns(address) {\n        return _implementation;\n    }\n\n    /**\n     * @dev Allows the current owner to relinquish ownership.\n     */\n    function renounceOwnership() public onlyOwner {\n        emit OwnershipRenounced(getOwner());\n        _setOwner(address(0));\n    }\n\n    /**\n     * @dev Allows the current owner to transfer control of the contract to a _newOwner.\n     * @param _newOwner The address to transfer ownership to.\n     */\n    function transferOwnership(address _newOwner) public onlyOwner {\n        require(_newOwner != address(0));\n        emit OwnershipTransferred(getOwner(), _newOwner);\n        _setOwner(_newOwner);\n    }\n\n    /**\n     * @dev Allows ProxyStorage contract to upgrade the current implementation.\n     * @param newImplementation representing the address of the new implementation to be set.\n     */\n    function upgradeTo(address newImplementation) public onlyProxyStorage returns(bool) {\n        if (newImplementation == address(0)) return false;\n        if (_implementation == newImplementation) return false;\n\n        uint256 newVersion = _version + 1;\n        if (newVersion <= _version) return false;\n\n        _version = newVersion;\n        _implementation = newImplementation;\n\n        emit Upgraded(newVersion, newImplementation);\n        return true;\n    }\n\n    /**\n    * @dev Tells the version number of the current implementation\n    * @return uint representing the number of the current version\n    */\n    function version() public view returns(uint256) {\n        return _version;\n    }\n\n    function _setProxyStorage(address _proxyStorage) private {\n        addressStorage[PROXY_STORAGE] = _proxyStorage;\n    }\n\n    function _setOwner(address _owner) private {\n        addressStorage[OWNER] = _owner;\n    }\n}\n",
  "sourcePath": "/home/moc/poa-network-consensus-contracts/contracts/eternal-storage/EternalStorageProxy.sol",
  "compiler": {
    "name": "solc",
    "version": "0.4.24+commit.e67f0147.Emscripten.clang"
  },
  "schemaVersion": "2.0.1",
  "updatedAt": "2021-11-29T10:09:51.137Z"
}