{
  "contractName": "KeysManager",
  "abi": [
    {
      "anonymous": false,
      "inputs": [
        {
          "indexed": false,
          "name": "key",
          "type": "address"
        },
        {
          "indexed": false,
          "name": "action",
          "type": "string"
        }
      ],
      "name": "MiningKeyChanged",
      "type": "event"
    },
    {
      "anonymous": false,
      "inputs": [
        {
          "indexed": false,
          "name": "key",
          "type": "address"
        },
        {
          "indexed": true,
          "name": "miningKey",
          "type": "address"
        },
        {
          "indexed": false,
          "name": "action",
          "type": "string"
        }
      ],
      "name": "VotingKeyChanged",
      "type": "event"
    },
    {
      "anonymous": false,
      "inputs": [
        {
          "indexed": false,
          "name": "key",
          "type": "address"
        },
        {
          "indexed": true,
          "name": "miningKey",
          "type": "address"
        },
        {
          "indexed": false,
          "name": "action",
          "type": "string"
        }
      ],
      "name": "PayoutKeyChanged",
      "type": "event"
    },
    {
      "anonymous": false,
      "inputs": [
        {
          "indexed": true,
          "name": "miningKey",
          "type": "address"
        },
        {
          "indexed": true,
          "name": "votingKey",
          "type": "address"
        },
        {
          "indexed": true,
          "name": "payoutKey",
          "type": "address"
        }
      ],
      "name": "ValidatorInitialized",
      "type": "event"
    },
    {
      "anonymous": false,
      "inputs": [
        {
          "indexed": true,
          "name": "initialKey",
          "type": "address"
        },
        {
          "indexed": false,
          "name": "time",
          "type": "uint256"
        },
        {
          "indexed": false,
          "name": "initialKeysCount",
          "type": "uint256"
        }
      ],
      "name": "InitialKeyCreated",
      "type": "event"
    },
    {
      "anonymous": false,
      "inputs": [
        {
          "indexed": false,
          "name": "name",
          "type": "string"
        },
        {
          "indexed": false,
          "name": "key",
          "type": "address"
        }
      ],
      "name": "Migrated",
      "type": "event"
    },
    {
      "constant": true,
      "inputs": [
        {
          "name": "_currentKey",
          "type": "address"
        },
        {
          "name": "_newKey",
          "type": "address"
        }
      ],
      "name": "checkIfMiningExisted",
      "outputs": [
        {
          "name": "",
          "type": "bool"
        }
      ],
      "payable": false,
      "stateMutability": "view",
      "type": "function"
    },
    {
      "constant": true,
      "inputs": [],
      "name": "maxLimitValidators",
      "outputs": [
        {
          "name": "",
          "type": "uint256"
        }
      ],
      "payable": false,
      "stateMutability": "pure",
      "type": "function"
    },
    {
      "constant": true,
      "inputs": [],
      "name": "maxOldMiningKeysDeepCheck",
      "outputs": [
        {
          "name": "",
          "type": "uint256"
        }
      ],
      "payable": false,
      "stateMutability": "pure",
      "type": "function"
    },
    {
      "constant": true,
      "inputs": [],
      "name": "masterOfCeremony",
      "outputs": [
        {
          "name": "",
          "type": "address"
        }
      ],
      "payable": false,
      "stateMutability": "view",
      "type": "function"
    },
    {
      "constant": true,
      "inputs": [],
      "name": "previousKeysManager",
      "outputs": [
        {
          "name": "",
          "type": "address"
        }
      ],
      "payable": false,
      "stateMutability": "view",
      "type": "function"
    },
    {
      "constant": true,
      "inputs": [],
      "name": "proxyStorage",
      "outputs": [
        {
          "name": "",
          "type": "address"
        }
      ],
      "payable": false,
      "stateMutability": "view",
      "type": "function"
    },
    {
      "constant": true,
      "inputs": [],
      "name": "poaNetworkConsensus",
      "outputs": [
        {
          "name": "",
          "type": "address"
        }
      ],
      "payable": false,
      "stateMutability": "view",
      "type": "function"
    },
    {
      "constant": true,
      "inputs": [],
      "name": "maxNumberOfInitialKeys",
      "outputs": [
        {
          "name": "",
          "type": "uint256"
        }
      ],
      "payable": false,
      "stateMutability": "pure",
      "type": "function"
    },
    {
      "constant": true,
      "inputs": [],
      "name": "initialKeysCount",
      "outputs": [
        {
          "name": "",
          "type": "uint256"
        }
      ],
      "payable": false,
      "stateMutability": "view",
      "type": "function"
    },
    {
      "constant": true,
      "inputs": [
        {
          "name": "_initialKey",
          "type": "address"
        }
      ],
      "name": "getInitialKeyStatus",
      "outputs": [
        {
          "name": "",
          "type": "uint256"
        }
      ],
      "payable": false,
      "stateMutability": "view",
      "type": "function"
    },
    {
      "constant": true,
      "inputs": [
        {
          "name": "_payoutKey",
          "type": "address"
        }
      ],
      "name": "miningKeyByPayout",
      "outputs": [
        {
          "name": "",
          "type": "address"
        }
      ],
      "payable": false,
      "stateMutability": "view",
      "type": "function"
    },
    {
      "constant": true,
      "inputs": [
        {
          "name": "_votingKey",
          "type": "address"
        }
      ],
      "name": "miningKeyByVoting",
      "outputs": [
        {
          "name": "",
          "type": "address"
        }
      ],
      "payable": false,
      "stateMutability": "view",
      "type": "function"
    },
    {
      "constant": true,
      "inputs": [
        {
          "name": "_miningKey",
          "type": "address"
        }
      ],
      "name": "miningKeyHistory",
      "outputs": [
        {
          "name": "",
          "type": "address"
        }
      ],
      "payable": false,
      "stateMutability": "view",
      "type": "function"
    },
    {
      "constant": true,
      "inputs": [
        {
          "name": "_miningKey",
          "type": "address"
        }
      ],
      "name": "successfulValidatorClone",
      "outputs": [
        {
          "name": "",
          "type": "bool"
        }
      ],
      "payable": false,
      "stateMutability": "view",
      "type": "function"
    },
    {
      "constant": true,
      "inputs": [
        {
          "name": "_miningKey",
          "type": "address"
        }
      ],
      "name": "validatorKeys",
      "outputs": [
        {
          "name": "validatorVotingKey",
          "type": "address"
        },
        {
          "name": "validatorPayoutKey",
          "type": "address"
        },
        {
          "name": "isValidatorMiningActive",
          "type": "bool"
        },
        {
          "name": "isValidatorVotingActive",
          "type": "bool"
        },
        {
          "name": "isValidatorPayoutActive",
          "type": "bool"
        }
      ],
      "payable": false,
      "stateMutability": "view",
      "type": "function"
    },
    {
      "constant": true,
      "inputs": [],
      "name": "initDisabled",
      "outputs": [
        {
          "name": "",
          "type": "bool"
        }
      ],
      "payable": false,
      "stateMutability": "view",
      "type": "function"
    },
    {
      "constant": false,
      "inputs": [
        {
          "name": "_previousKeysManager",
          "type": "address"
        }
      ],
      "name": "init",
      "outputs": [],
      "payable": false,
      "stateMutability": "nonpayable",
      "type": "function"
    },
    {
      "constant": false,
      "inputs": [
        {
          "name": "_miningKey",
          "type": "address"
        }
      ],
      "name": "migrateMiningKey",
      "outputs": [],
      "payable": false,
      "stateMutability": "nonpayable",
      "type": "function"
    },
    {
      "constant": false,
      "inputs": [
        {
          "name": "_initialKey",
          "type": "address"
        }
      ],
      "name": "migrateInitialKey",
      "outputs": [],
      "payable": false,
      "stateMutability": "nonpayable",
      "type": "function"
    },
    {
      "constant": false,
      "inputs": [
        {
          "name": "_initialKey",
          "type": "address"
        }
      ],
      "name": "initiateKeys",
      "outputs": [],
      "payable": false,
      "stateMutability": "nonpayable",
      "type": "function"
    },
    {
      "constant": false,
      "inputs": [
        {
          "name": "_miningKey",
          "type": "address"
        },
        {
          "name": "_votingKey",
          "type": "address"
        },
        {
          "name": "_payoutKey",
          "type": "address"
        }
      ],
      "name": "createKeys",
      "outputs": [],
      "payable": false,
      "stateMutability": "nonpayable",
      "type": "function"
    },
    {
      "constant": true,
      "inputs": [],
      "name": "getTime",
      "outputs": [
        {
          "name": "",
          "type": "uint256"
        }
      ],
      "payable": false,
      "stateMutability": "view",
      "type": "function"
    },
    {
      "constant": true,
      "inputs": [],
      "name": "getVotingToChangeKeys",
      "outputs": [
        {
          "name": "",
          "type": "address"
        }
      ],
      "payable": false,
      "stateMutability": "view",
      "type": "function"
    },
    {
      "constant": true,
      "inputs": [
        {
          "name": "_key",
          "type": "address"
        }
      ],
      "name": "isMiningActive",
      "outputs": [
        {
          "name": "",
          "type": "bool"
        }
      ],
      "payable": false,
      "stateMutability": "view",
      "type": "function"
    },
    {
      "constant": true,
      "inputs": [
        {
          "name": "_votingKey",
          "type": "address"
        }
      ],
      "name": "isVotingActive",
      "outputs": [
        {
          "name": "",
          "type": "bool"
        }
      ],
      "payable": false,
      "stateMutability": "view",
      "type": "function"
    },
    {
      "constant": true,
      "inputs": [
        {
          "name": "_miningKey",
          "type": "address"
        }
      ],
      "name": "isVotingActiveByMiningKey",
      "outputs": [
        {
          "name": "",
          "type": "bool"
        }
      ],
      "payable": false,
      "stateMutability": "view",
      "type": "function"
    },
    {
      "constant": true,
      "inputs": [
        {
          "name": "_miningKey",
          "type": "address"
        }
      ],
      "name": "isPayoutActive",
      "outputs": [
        {
          "name": "",
          "type": "bool"
        }
      ],
      "payable": false,
      "stateMutability": "view",
      "type": "function"
    },
    {
      "constant": true,
      "inputs": [
        {
          "name": "_miningKey",
          "type": "address"
        }
      ],
      "name": "getVotingByMining",
      "outputs": [
        {
          "name": "",
          "type": "address"
        }
      ],
      "payable": false,
      "stateMutability": "view",
      "type": "function"
    },
    {
      "constant": true,
      "inputs": [
        {
          "name": "_miningKey",
          "type": "address"
        }
      ],
      "name": "getPayoutByMining",
      "outputs": [
        {
          "name": "",
          "type": "address"
        }
      ],
      "payable": false,
      "stateMutability": "view",
      "type": "function"
    },
    {
      "constant": true,
      "inputs": [
        {
          "name": "_key",
          "type": "address"
        }
      ],
      "name": "hasMiningKeyBeenRemoved",
      "outputs": [
        {
          "name": "",
          "type": "bool"
        }
      ],
      "payable": false,
      "stateMutability": "view",
      "type": "function"
    },
    {
      "constant": true,
      "inputs": [
        {
          "name": "_miningKey",
          "type": "address"
        }
      ],
      "name": "getMiningKeyHistory",
      "outputs": [
        {
          "name": "",
          "type": "address"
        }
      ],
      "payable": false,
      "stateMutability": "view",
      "type": "function"
    },
    {
      "constant": true,
      "inputs": [
        {
          "name": "_votingKey",
          "type": "address"
        }
      ],
      "name": "getMiningKeyByVoting",
      "outputs": [
        {
          "name": "",
          "type": "address"
        }
      ],
      "payable": false,
      "stateMutability": "view",
      "type": "function"
    },
    {
      "constant": false,
      "inputs": [
        {
          "name": "_key",
          "type": "address"
        }
      ],
      "name": "addMiningKey",
      "outputs": [
        {
          "name": "",
          "type": "bool"
        }
      ],
      "payable": false,
      "stateMutability": "nonpayable",
      "type": "function"
    },
    {
      "constant": false,
      "inputs": [
        {
          "name": "_key",
          "type": "address"
        },
        {
          "name": "_miningKey",
          "type": "address"
        }
      ],
      "name": "addVotingKey",
      "outputs": [
        {
          "name": "",
          "type": "bool"
        }
      ],
      "payable": false,
      "stateMutability": "nonpayable",
      "type": "function"
    },
    {
      "constant": false,
      "inputs": [
        {
          "name": "_key",
          "type": "address"
        },
        {
          "name": "_miningKey",
          "type": "address"
        }
      ],
      "name": "addPayoutKey",
      "outputs": [
        {
          "name": "",
          "type": "bool"
        }
      ],
      "payable": false,
      "stateMutability": "nonpayable",
      "type": "function"
    },
    {
      "constant": false,
      "inputs": [
        {
          "name": "_key",
          "type": "address"
        }
      ],
      "name": "removeMiningKey",
      "outputs": [
        {
          "name": "",
          "type": "bool"
        }
      ],
      "payable": false,
      "stateMutability": "nonpayable",
      "type": "function"
    },
    {
      "constant": false,
      "inputs": [
        {
          "name": "_miningKey",
          "type": "address"
        }
      ],
      "name": "removeVotingKey",
      "outputs": [
        {
          "name": "",
          "type": "bool"
        }
      ],
      "payable": false,
      "stateMutability": "nonpayable",
      "type": "function"
    },
    {
      "constant": false,
      "inputs": [
        {
          "name": "_miningKey",
          "type": "address"
        }
      ],
      "name": "removePayoutKey",
      "outputs": [
        {
          "name": "",
          "type": "bool"
        }
      ],
      "payable": false,
      "stateMutability": "nonpayable",
      "type": "function"
    },
    {
      "constant": false,
      "inputs": [
        {
          "name": "_key",
          "type": "address"
        },
        {
          "name": "_oldMiningKey",
          "type": "address"
        }
      ],
      "name": "swapMiningKey",
      "outputs": [
        {
          "name": "",
          "type": "bool"
        }
      ],
      "payable": false,
      "stateMutability": "nonpayable",
      "type": "function"
    },
    {
      "constant": false,
      "inputs": [
        {
          "name": "_key",
          "type": "address"
        },
        {
          "name": "_miningKey",
          "type": "address"
        }
      ],
      "name": "swapVotingKey",
      "outputs": [
        {
          "name": "",
          "type": "bool"
        }
      ],
      "payable": false,
      "stateMutability": "nonpayable",
      "type": "function"
    },
    {
      "constant": false,
      "inputs": [
        {
          "name": "_key",
          "type": "address"
        },
        {
          "name": "_miningKey",
          "type": "address"
        }
      ],
      "name": "swapPayoutKey",
      "outputs": [
        {
          "name": "",
          "type": "bool"
        }
      ],
      "payable": false,
      "stateMutability": "nonpayable",
      "type": "function"
    }
  ],
  "bytecode": "0x608060405234801561001057600080fd5b506135b5806100206000396000f3006080604052600436106101df5763ffffffff60e060020a6000350416631770650781146101e457806317f538521461021757806319ab453c1461024c5780631e48e1461461026f5780631e534e71146102905780632a968f49146102b15780632befe2e1146102d25780632d2602271461030f57806338949514146103305780634433418f14610351578063458779da1461036657806349285b581461038757806352a369381461039c578063557ed1ba146103b15780635c0569f8146103c6578063629071701461042257806362b46d6414610437578063651ebb5f14610458578063731fcb9a1461047f578063771ae299146104a65780637cded930146104cd5780637ebf43fc146104ee57806381b034271461050f57806385b84ccb146105245780638743e882146105455780639503ab721461056657806398943eb61461058d5780639bc91c22146105ae578063a5a36dee146105cf578063ae4b1b5b146105f0578063b9bdaa0714610605578063c04455b51461061a578063c6232a151461063b578063d2acbc1214610668578063d33eb5ae1461067d578063d44379cf146106a4578063db7cf00b146106cb578063e7f57c83146106ec578063fa46eacd14610701578063fa81b20014610722578063fee0928514610737575b600080fd5b3480156101f057600080fd5b50610205600160a060020a0360043516610758565b60408051918252519081900360200190f35b34801561022357600080fd5b50610238600160a060020a036004351661081d565b604080519115158252519081900360200190f35b34801561025857600080fd5b5061026d600160a060020a03600435166108e3565b005b34801561027b57600080fd5b50610238600160a060020a0360043516610b16565b34801561029c57600080fd5b50610238600160a060020a0360043516610b97565b3480156102bd57600080fd5b50610238600160a060020a0360043516610bdc565b3480156102de57600080fd5b506102f3600160a060020a0360043516610c11565b60408051600160a060020a039092168252519081900360200190f35b34801561031b57600080fd5b506102f3600160a060020a0360043516610cf6565b34801561033c57600080fd5b50610238600160a060020a0360043516610d07565b34801561035d57600080fd5b506102f3610ec4565b34801561037257600080fd5b506102f3600160a060020a0360043516610f3c565b34801561039357600080fd5b506102f3610fbd565b3480156103a857600080fd5b50610238611004565b3480156103bd57600080fd5b50610205611048565b3480156103d257600080fd5b506103e7600160a060020a036004351661104c565b60408051600160a060020a03968716815294909516602085015291151583850152151560608301521515608082015290519081900360a00190f35b34801561042e57600080fd5b506102f3611094565b34801561044357600080fd5b50610238600160a060020a03600435166110de565b34801561046457600080fd5b50610238600160a060020a03600435811690602435166110fc565b34801561048b57600080fd5b50610238600160a060020a0360043581169060243516611181565b3480156104b257600080fd5b50610238600160a060020a0360043581169060243516611257565b3480156104d957600080fd5b506102f3600160a060020a03600435166112ba565b3480156104fa57600080fd5b50610238600160a060020a0360043516611354565b34801561051b57600080fd5b5061020561169c565b34801561053057600080fd5b5061026d600160a060020a03600435166116a2565b34801561055157600080fd5b5061026d600160a060020a0360043516611c3e565b34801561057257600080fd5b50610238600160a060020a0360043581169060243516611d38565b34801561059957600080fd5b5061026d600160a060020a0360043516611da5565b3480156105ba57600080fd5b50610238600160a060020a0360043516611f72565b3480156105db57600080fd5b506102f3600160a060020a036004351661200c565b3480156105fc57600080fd5b506102f3612017565b34801561061157600080fd5b50610205612061565b34801561062657600080fd5b506102f3600160a060020a0360043516612066565b34801561064757600080fd5b5061026d600160a060020a03600435811690602435811690604435166120e7565b34801561067457600080fd5b506102056123b5565b34801561068957600080fd5b50610238600160a060020a03600435811690602435166123f6565b3480156106b057600080fd5b50610238600160a060020a0360043581169060243516612450565b3480156106d757600080fd5b50610238600160a060020a0360043516612706565b3480156106f857600080fd5b506102056127a0565b34801561070d57600080fd5b506102f3600160a060020a03600435166127a5565b34801561072e57600080fd5b506102f3612826565b34801561074357600080fd5b50610238600160a060020a036004351661286d565b604080517f696e697469616c4b657953746174757300000000000000000000000000000000602080830191909152600160a060020a0384168284015282518083038401815260609092019283905281516000936002938593909282918401908083835b602083106107da5780518252601f1990920191602091820191016107bb565b51815160209384036101000a600019018019909216911617905260408051929094018290039091208652850195909552929092016000205493505050505b919050565b604080517f6861734d696e696e674b65794265656e52656d6f766564000000000000000000602080830191909152600160a060020a0384168284015282518083038401815260609092019283905281516000936006938593909282918401908083835b6020831061089f5780518252601f199092019160209182019101610880565b51815160209384036101000a600019018019909216911617905260408051929094018290039091208652850195909552929092016000205460ff1695945050505050565b604080517f6f776e6572000000000000000000000000000000000000000000000000000000815281519081900360050190206000908152600460205290812054819033600160a060020a039091161461093b57600080fd5b610943611004565b1561094d57600080fd5b610955612826565b9150600160a060020a038216151561096c57600080fd5b610974610ec4565b600160a060020a038381169116141561098c57600080fd5b610997600083612907565b6109a2600083612a0c565b6109ad600183612aa6565b6109b8600083612b8f565b6109c3600083612c29565b6109ce600183612cc3565b60408051600160a060020a03841660208201528181526009818301527f6d696e696e674b65790000000000000000000000000000000000000000000000606082015290517f495f7fdbe153771103489f5c94591c07cd8e655814d1f12739f591b94411ec079181900360800190a1600160a060020a03831615610ac957610a5483612d44565b829050610ac981600160a060020a031663d2acbc126040518163ffffffff1660e060020a028152600401602060405180830381600087803b158015610a9857600080fd5b505af1158015610aac573d6000803e3d6000fd5b505050506040513d6020811015610ac257600080fd5b5051612daf565b5050604080517f696e697444697361626c656400000000000000000000000000000000000000008152815190819003600c0190206000908152600660205220805460ff1916600117905550565b604080517f7375636365737366756c56616c696461746f72436c6f6e650000000000000000602080830191909152600160a060020a0384168284015282518083038401815260609092019283905281516000936006938593909282918401908083836020831061089f5780518252601f199092019160209182019101610880565b6000610ba1610fbd565b600160a060020a03163314610bb557600080fd5b610bbe82612def565b15610bd457610bcc82612e26565b506001610818565b506000919050565b6000610be6610fbd565b600160a060020a03163314610bfa57600080fd5b610c0382612eba565b15610bd457610bcc82612edb565b6040805160008051602061354a833981519152602080830191909152600160a060020a038416828401527f766f74696e674b657900000000000000000000000000000000000000000000006060808401919091528351808403909101815260809092019283905281516000936004938593909282918401908083835b60208310610cac5780518252601f199092019160209182019101610c8d565b51815160209384036101000a6000190180199092169116179052604080519290940182900390912086528501959095529290920160002054600160a060020a031695945050505050565b6000610d01826127a5565b92915050565b6000610d11610fbd565b600160a060020a03163314610d2557600080fd5b610d2d612f6f565b1515610d3b57506000610818565b610d43611004565b1515610d5157506000610818565b610d5a8261081d565b15610d6757506000610818565b610d6f610ec4565b604080517f21a3fb85000000000000000000000000000000000000000000000000000000008152600160a060020a03858116600483015260016024830152915192909116916321a3fb85916044808201926020929091908290030181600087803b158015610ddc57600080fd5b505af1158015610df0573d6000803e3d6000fd5b505050506040513d6020811015610e0657600080fd5b50511515610e1657506000610818565b610e21600083612907565b610e2c600083612a0c565b610e37600183612aa6565b610e42600083612b8f565b610e4d600083612c29565b60408051600160a060020a0384168152602081018290526005818301527f6164646564000000000000000000000000000000000000000000000000000000606082015290517f31511048ccdf9fbe46c149f8f729923c1232debeff658d242292f37365b457189181900360800190a1506001919050565b6000610ece612017565b600160a060020a0316638b8414c46040518163ffffffff1660e060020a028152600401602060405180830381600087803b158015610f0b57600080fd5b505af1158015610f1f573d6000803e3d6000fd5b505050506040513d6020811015610f3557600080fd5b5051905090565b604080517f6d696e696e674b6579486973746f727900000000000000000000000000000000602080830191909152600160a060020a03841682840152825180830384018152606090920192839052815160009360049385939092829184019080838360208310610cac5780518252601f199092019160209182019101610c8d565b6000610fc7612017565b600160a060020a03166349285b586040518163ffffffff1660e060020a028152600401602060405180830381600087803b158015610f0b57600080fd5b604080517f696e697444697361626c656400000000000000000000000000000000000000008152815190819003600c01902060009081526006602052205460ff1690565b4290565b600080600080600061105d86610c11565b9450611068866112ba565b935061107386611f72565b925061107e86612706565b91506110898661286d565b905091939590929450565b604080517f70726576696f75734b6579734d616e616765720000000000000000000000000081528151908190036013019020600090815260046020522054600160a060020a031690565b6000806110ea836127a5565b90506110f581612706565b9392505050565b6000611106610fbd565b600160a060020a0316331461111a57600080fd5b6111238261286d565b801561114157506000611135836112ba565b600160a060020a031614155b15611157576111508383611257565b9050610d01565b6111618383612ff5565b15611178576111708383613046565b506001610d01565b50600092915050565b600080808080604436101561119557600080fd5b61119e86611f72565b156111ac576001945061124d565b6111b58661081d565b156111c3576001945061124d565b600160a060020a03871615156111dc576000945061124d565b8693506111e7612061565b9250600091505b82821015611248576111ff8461200c565b9050600160a060020a038116151561121a576000945061124d565b85600160a060020a031681600160a060020a0316141561123d576001945061124d565b9250600101826111ee565b600094505b5050505092915050565b6000611261610fbd565b600160a060020a0316331461127557600080fd5b61127e82612def565b1580611291575061128f8383612ff5565b155b1561129e57506000610d01565b6112a782612e26565b6112b18383613046565b50600192915050565b6040805160008051602061354a833981519152602080830191909152600160a060020a038416828401527f7061796f75744b6579000000000000000000000000000000000000000000000060608084019190915283518084039091018152608090920192839052815160009360049385939092829184019080838360208310610cac5780518252601f199092019160209182019101610c8d565b6000806000611361610fbd565b600160a060020a0316331461137557600080fd5b61137d611004565b151561138c5760009250611695565b61139584611f72565b15156113a45760009250611695565b6113ac612826565b600160a060020a031684600160a060020a03161480156113d957506113cf6127a0565b6113d76123b5565b105b156113e75760009250611695565b6113ef610ec4565b604080517ff89a77b1000000000000000000000000000000000000000000000000000000008152600160a060020a038781166004830152600160248301529151929091169163f89a77b1916044808201926020929091908290030181600087803b15801561145c57600080fd5b505af1158015611470573d6000803e3d6000fd5b505050506040513d602081101561148657600080fd5b505115156114975760009250611695565b6114a084610c11565b91506114ab846112ba565b90506114b88260006130dd565b6114c3816000613177565b6114cc8461320d565b6114d4613247565b600160a060020a031663885c69b5856040518263ffffffff1660e060020a0281526004018082600160a060020a0316600160a060020a03168152602001915050600060405180830381600087803b15801561152e57600080fd5b505af1158015611542573d6000803e3d6000fd5b5050505061154f8461328e565b60408051600160a060020a03861681526020810182905260078183015260008051602061356a833981519152606082015290517f31511048ccdf9fbe46c149f8f729923c1232debeff658d242292f37365b457189181900360800190a1600160a060020a0382161561161e5760408051600160a060020a0384811682526020820183905260078284015260008051602061356a83398151915260608301529151918616917f3c12ed73d04c6ac636caa62bedf7896dc1452a189bd7fcdbcae6e9765233ca559181900360800190a25b600160a060020a038116156116905760408051600160a060020a0383811682526020820183905260078284015260008051602061356a83398151915260608301529151918616917f568d585fdb4f8eee3a22e8b798c49e9d6ac5fbfced5bc1b872a74808e3be7c7d9181900360800190a25b600192505b5050919050565b6107d090565b604080517f6f776e657200000000000000000000000000000000000000000000000000000081528151908190036005019020600090815260046020529081205481908190819081908190819033600160a060020a039091161461170457600080fd5b600061170e611094565b600160a060020a0316141561172257600080fd5b61172a611094565b9650600160a060020a038816151561174157600080fd5b86600160a060020a0316639bc91c22896040518263ffffffff1660e060020a0281526004018082600160a060020a0316600160a060020a03168152602001915050602060405180830381600087803b15801561179c57600080fd5b505af11580156117b0573d6000803e3d6000fd5b505050506040513d60208110156117c657600080fd5b505115156117d357600080fd5b6117dc88611f72565b156117e657600080fd5b6117ef88610b16565b156117f957600080fd5b86600160a060020a0316632befe2e1896040518263ffffffff1660e060020a0281526004018082600160a060020a0316600160a060020a03168152602001915050602060405180830381600087803b15801561185457600080fd5b505af1158015611868573d6000803e3d6000fd5b505050506040513d602081101561187e57600080fd5b5051604080517f7cded930000000000000000000000000000000000000000000000000000000008152600160a060020a038b81166004830152915192985090891691637cded930916024808201926020929091908290030181600087803b1580156118e857600080fd5b505af11580156118fc573d6000803e3d6000fd5b505050506040513d602081101561191257600080fd5b505194506119208689612907565b61192a8589612a0c565b6119ba87600160a060020a0316639bc91c228a6040518263ffffffff1660e060020a0281526004018082600160a060020a0316600160a060020a03168152602001915050602060405180830381600087803b15801561198857600080fd5b505af115801561199c573d6000803e3d6000fd5b505050506040513d60208110156119b257600080fd5b505189612aa6565b611a4a87600160a060020a03166362b46d64886040518263ffffffff1660e060020a0281526004018082600160a060020a0316600160a060020a03168152602001915050602060405180830381600087803b158015611a1857600080fd5b505af1158015611a2c573d6000803e3d6000fd5b505050506040513d6020811015611a4257600080fd5b505189612b8f565b611ada87600160a060020a031663fee092858a6040518263ffffffff1660e060020a0281526004018082600160a060020a0316600160a060020a03168152602001915050602060405180830381600087803b158015611aa857600080fd5b505af1158015611abc573d6000803e3d6000fd5b505050506040513d6020811015611ad257600080fd5b505189612c29565b611ae486896130dd565b611aee8589613177565b611af9600189612cc3565b879350611b04612061565b9250600091505b82821015611bc65786600160a060020a031663a5a36dee856040518263ffffffff1660e060020a0281526004018082600160a060020a0316600160a060020a03168152602001915050602060405180830381600087803b158015611b6e57600080fd5b505af1158015611b82573d6000803e3d6000fd5b505050506040513d6020811015611b9857600080fd5b50519050600160a060020a0381161515611bb157611bc6565b611bbb848261335e565b925060010182611b0b565b60408051600160a060020a038a1660208201528181526009818301527f6d696e696e674b65790000000000000000000000000000000000000000000000606082015290517f495f7fdbe153771103489f5c94591c07cd8e655814d1f12739f591b94411ec079181900360800190a15050505050505050565b6000611c48612826565b600160a060020a03163314611c5c57600080fd5b600160a060020a0382161515611c7157600080fd5b6000611c7c83610758565b14611c8657600080fd5b611c8e612826565b600160a060020a0383811691161415611ca657600080fd5b611cae6123b5565b9050611cb86127a0565b8110611cc357600080fd5b611cce6001836133df565b611cdf81600163ffffffff6134a316565b9050611cea81612daf565b81600160a060020a03167f8f0993529f6c865998786a88a06fce1f0261f632bf90ee1b50fa640338d5e936611d1d611048565b60408051918252602082018590528051918290030190a25050565b6000611d42610fbd565b600160a060020a03163314611d5657600080fd5b611d5f82612706565b8015611d7d57506000611d7183610c11565b600160a060020a031614155b15611d8c5761115083836123f6565b611d968383612ff5565b156111785761117083836134b2565b604080517f6f776e6572000000000000000000000000000000000000000000000000000000815281519081900360050190206000908152600460205290812054819033600160a060020a0390911614611dfd57600080fd5b6000611e0884610758565b14611e1257600080fd5b600160a060020a0383161515611e2757600080fd5b6000611e31611094565b600160a060020a03161415611e4557600080fd5b611e4d611094565b915081600160a060020a031663b5cd46db846040518263ffffffff1660e060020a0281526004018082600160a060020a0316600160a060020a03168152602001915050602060405180830381600087803b158015611eaa57600080fd5b505af1158015611ebe573d6000803e3d6000fd5b505050506040513d6020811015611ed457600080fd5b505160ff1690506001811480611eea5750600281145b1515611ef557600080fd5b611eff81846133df565b60408051600160a060020a0385166020820152818152600a818301527f696e697469616c4b657900000000000000000000000000000000000000000000606082015290517f495f7fdbe153771103489f5c94591c07cd8e655814d1f12739f591b94411ec079181900360800190a1505050565b6040805160008051602061354a833981519152602080830191909152600160a060020a038416828401527f69734d696e696e674163746976650000000000000000000000000000000000006060808401919091528351808403909101815260809092019283905281516000936006938593909282918401908083836020831061089f5780518252601f199092019160209182019101610880565b6000610d0182610f3c565b604080517f70726f787953746f7261676500000000000000000000000000000000000000008152815190819003600c019020600090815260046020522054600160a060020a031690565b601990565b604080517f6d696e696e674b657942795061796f7574000000000000000000000000000000602080830191909152600160a060020a03841682840152825180830384018152606090920192839052815160009360049385939092829184019080838360208310610cac5780518252601f199092019160209182019101610c8d565b60016120f233610758565b146120fc57600080fd5b612104612f6f565b151561210f57600080fd5b600160a060020a038316151561212457600080fd5b600160a060020a038216151561213957600080fd5b600160a060020a038116151561214e57600080fd5b600160a060020a03838116908316141561216757600080fd5b600160a060020a03838116908216141561218057600080fd5b600160a060020a03828116908216141561219957600080fd5b600160a060020a0383163314156121af57600080fd5b600160a060020a0382163314156121c557600080fd5b600160a060020a0381163314156121db57600080fd5b6121e483611f72565b156121ee57600080fd5b60006121f9836127a5565b600160a060020a03161461220c57600080fd5b600061221782612066565b600160a060020a03161461222a57600080fd5b600061223584610c11565b600160a060020a03161461224857600080fd5b6000612253846112ba565b600160a060020a03161461226657600080fd5b61226e610ec4565b604080517f21a3fb85000000000000000000000000000000000000000000000000000000008152600160a060020a03868116600483015260016024830152915192909116916321a3fb85916044808201926020929091908290030181600087803b1580156122db57600080fd5b505af11580156122ef573d6000803e3d6000fd5b505050506040513d602081101561230557600080fd5b5051151561231257600080fd5b61231c8284612907565b6123268184612a0c565b612331600184612aa6565b61233c600184612b8f565b612347600184612c29565b61235182846130dd565b61235b8184613177565b6123666002336133df565b80600160a060020a031682600160a060020a031684600160a060020a03167f09b714df46e3a39ff284866b80612984e10c731561c157cd03aca91e436808a560405160405180910390a4505050565b604080517f696e697469616c4b657973436f756e74000000000000000000000000000000008152815190819003601001902060009081526002602052205490565b6000612400610fbd565b600160a060020a0316331461241457600080fd5b61241d82612eba565b1580612430575061242e8383612ff5565b155b1561243d57506000610d01565b61244682612edb565b6112b183836134b2565b600080600061245d610fbd565b600160a060020a0316331461247157600080fd5b83600160a060020a031685600160a060020a0316141561249457600092506126fe565b61249d84611f72565b15156124ac57600092506126fe565b6124b58561081d565b156124c357600092506126fe565b6124cb610ec4565b604080517f879736b2000000000000000000000000000000000000000000000000000000008152600160a060020a03888116600483015287811660248301529151929091169163879736b2916044808201926020929091908290030181600087803b15801561253957600080fd5b505af115801561254d573d6000803e3d6000fd5b505050506040513d602081101561256357600080fd5b5051151561257457600092506126fe565b61257e858561335e565b61258784610c11565b9150612592846112ba565b905061259e8286612907565b6125a88186612a0c565b6125b3600186612aa6565b6125c56125bf836110de565b86612b8f565b6125d76125d18561286d565b86612c29565b6125e08461320d565b6125ea82866130dd565b6125f48186613177565b6125fc613247565b604080517fc2d0916f000000000000000000000000000000000000000000000000000000008152600160a060020a03878116600483015288811660248301529151929091169163c2d0916f9160448082019260009290919082900301818387803b15801561266957600080fd5b505af115801561267d573d6000803e3d6000fd5b5050505061268a8461328e565b60408051600160a060020a0387168152602081018290526007818301527f7377617070656400000000000000000000000000000000000000000000000000606082015290517f31511048ccdf9fbe46c149f8f729923c1232debeff658d242292f37365b457189181900360800190a1600192505b505092915050565b6040805160008051602061354a833981519152602080830191909152600160a060020a038416828401527f6973566f74696e674163746976650000000000000000000000000000000000006060808401919091528351808403909101815260809092019283905281516000936006938593909282918401908083836020831061089f5780518252601f199092019160209182019101610880565b600c90565b604080517f6d696e696e674b65794279566f74696e67000000000000000000000000000000602080830191909152600160a060020a03841682840152825180830384018152606090920192839052815160009360049385939092829184019080838360208310610cac5780518252601f199092019160209182019101610c8d565b6000612830610ec4565b600160a060020a031663fa81b2006040518163ffffffff1660e060020a028152600401602060405180830381600087803b158015610f0b57600080fd5b6040805160008051602061354a833981519152602080830191909152600160a060020a038416828401527f69735061796f75744163746976650000000000000000000000000000000000006060808401919091528351808403909101815260809092019283905281516000936006938593909282918401908083836020831061089f5780518252601f199092019160209182019101610880565b6040805160008051602061354a833981519152602080830191909152600160a060020a038416828401527f766f74696e674b657900000000000000000000000000000000000000000000006060808401919091528351808403909101815260809092019283905281518593600493600093909282918401908083835b602083106129a25780518252601f199092019160209182019101612983565b51815160209384036101000a60001901801990921691161790526040805192909401829003909120865285019590955292909201600020805473ffffffffffffffffffffffffffffffffffffffff1916600160a060020a0395909516949094179093555050505050565b6040805160008051602061354a833981519152602080830191909152600160a060020a038416828401527f7061796f75744b65790000000000000000000000000000000000000000000000606080840191909152835180840390910181526080909201928390528151859360049360009390928291840190808383602083106129a25780518252601f199092019160209182019101612983565b6040805160008051602061354a833981519152602080830191909152600160a060020a038416828401527f69734d696e696e674163746976650000000000000000000000000000000000006060808401919091528351808403909101815260809092019283905281518593600693600093909282918401908083835b60208310612b415780518252601f199092019160209182019101612b22565b51815160209384036101000a60001901801990921691161790526040805192909401829003909120865285019590955292909201600020805460ff1916941515949094179093555050505050565b6040805160008051602061354a833981519152602080830191909152600160a060020a038416828401527f6973566f74696e6741637469766500000000000000000000000000000000000060608084019190915283518084039091018152608090920192839052815185936006936000939092829184019080838360208310612b415780518252601f199092019160209182019101612b22565b6040805160008051602061354a833981519152602080830191909152600160a060020a038416828401527f69735061796f757441637469766500000000000000000000000000000000000060608084019190915283518084039091018152608090920192839052815185936006936000939092829184019080838360208310612b415780518252601f199092019160209182019101612b22565b604080517f7375636365737366756c56616c696461746f72436c6f6e650000000000000000602080830191909152600160a060020a03841682840152825180830384018152606090920192839052815185936006936000939092829184019080838360208310612b415780518252601f199092019160209182019101612b22565b604080517f70726576696f75734b6579734d616e61676572000000000000000000000000008152815190819003601301902060009081526004602052208054600160a060020a0390921673ffffffffffffffffffffffffffffffffffffffff19909216919091179055565b604080517f696e697469616c4b657973436f756e740000000000000000000000000000000081528151908190036010019020600090815260026020522055565b6000612df9611004565b1515612e0757506000610818565b612e108261286d565b1515612e1e57506000610818565b506001919050565b6000612e31826112ba565b9050612e3e600083612a0c565b612e49600083612c29565b612e54816000613177565b60408051600160a060020a0383811682526020820183905260078284015260008051602061356a83398151915260608301529151918416917f568d585fdb4f8eee3a22e8b798c49e9d6ac5fbfced5bc1b872a74808e3be7c7d9181900360800190a25050565b6000612ec4611004565b1515612ed257506000610818565b612e1082612706565b6000612ee682610c11565b9050612ef3600083612907565b612efe600083612b8f565b612f098160006130dd565b60408051600160a060020a0383811682526020820183905260078284015260008051602061356a83398151915260608301529151918416917f3c12ed73d04c6ac636caa62bedf7896dc1452a189bd7fcdbcae6e9765233ca559181900360800190a25050565b600080612f7a610ec4565b9050612f8461169c565b81600160a060020a0316630eaba26a6040518163ffffffff1660e060020a028152600401602060405180830381600087803b158015612fc257600080fd5b505af1158015612fd6573d6000803e3d6000fd5b505050506040513d6020811015612fec57600080fd5b50511091505090565b6000612fff611004565b151561300d57506000610d01565b61301682611f72565b151561302457506000610d01565b81600160a060020a031683600160a060020a031614156112b157506000610d01565b6130508282612a0c565b61305b600182612c29565b6130658282613177565b60408051600160a060020a038481168252602082018390526005828401527f616464656400000000000000000000000000000000000000000000000000000060608301529151918316917f568d585fdb4f8eee3a22e8b798c49e9d6ac5fbfced5bc1b872a74808e3be7c7d9181900360800190a25050565b600160a060020a03821615156130f257613173565b604080517f6d696e696e674b65794279566f74696e67000000000000000000000000000000602080830191909152600160a060020a038516828401528251808303840181526060909201928390528151849360049360009390928291840190808383602083106129a25780518252601f199092019160209182019101612983565b5050565b600160a060020a038216151561318c57613173565b604080517f6d696e696e674b657942795061796f7574000000000000000000000000000000602080830191909152600160a060020a038516828401528251808303840181526060909201928390528151849360049360009390928291840190808383602083106129a25780518252601f199092019160209182019101612983565b613218600082612907565b613223600082612a0c565b61322e600082612aa6565b613239600082612b8f565b613244600082612c29565b50565b6000613251612017565b600160a060020a031663b1339de36040518163ffffffff1660e060020a028152600401602060405180830381600087803b158015610f0b57600080fd5b604080517f6861734d696e696e674b65794265656e52656d6f766564000000000000000000602080830191909152600160a060020a038416828401528251808303840181526060909201928390528151600193600693600093909282918401908083835b602083106133115780518252601f1990920191602091820191016132f2565b51815160209384036101000a60001901801990921691161790526040805192909401829003909120865285019590955292909201600020805460ff19169415159490941790935550505050565b604080517f6d696e696e674b6579486973746f727900000000000000000000000000000000602080830191909152600160a060020a038516828401528251808303840181526060909201928390528151849360049360009390928291840190808383602083106129a25780518252601f199092019160209182019101612983565b604080517f696e697469616c4b657953746174757300000000000000000000000000000000602080830191909152600160a060020a0384168284015282518083038401815260609092019283905281518593600293600093909282918401908083835b602083106134615780518252601f199092019160209182019101613442565b51815160209384036101000a60001901801990921691161790526040805192909401829003909120865285019590955292909201600020939093555050505050565b6000828201838110156110f557fe5b6134bc8282612907565b6134c7600182612b8f565b6134d182826130dd565b60408051600160a060020a038481168252602082018390526005828401527f616464656400000000000000000000000000000000000000000000000000000060608301529151918316917f3c12ed73d04c6ac636caa62bedf7896dc1452a189bd7fcdbcae6e9765233ca559181900360800190a25050560076616c696461746f724b6579730000000000000000000000000000000000000072656d6f76656400000000000000000000000000000000000000000000000000a165627a7a72305820596a4cd7a512b9ac46342d10754e536bd455151b2ef6d01844baac83778c0ad00029",
  "source": "pragma solidity ^0.4.24;\n\nimport \"./libs/SafeMath.sol\";\nimport \"./interfaces/IPoaNetworkConsensus.sol\";\nimport \"./interfaces/IKeysManager.sol\";\nimport \"./interfaces/IProxyStorage.sol\";\nimport \"./interfaces/IValidatorMetadata.sol\";\nimport \"./eternal-storage/EternalStorage.sol\";\n\n\ncontract KeysManager is EternalStorage, IKeysManager {\n    using SafeMath for uint256;\n\n    bytes32 internal constant INIT_DISABLED =\n        keccak256(\"initDisabled\");\n    \n    bytes32 internal constant INITIAL_KEYS_COUNT =\n        keccak256(\"initialKeysCount\");\n    \n    bytes32 internal constant OWNER =\n        keccak256(\"owner\");\n    \n    bytes32 internal constant PREVIOUS_KEYS_MANAGER =\n        keccak256(\"previousKeysManager\");\n    \n    bytes32 internal constant PROXY_STORAGE =\n        keccak256(\"proxyStorage\");\n\n    bytes32 internal constant INITIAL_KEY_STATUS = \"initialKeyStatus\";\n    bytes32 internal constant IS_MINING_ACTIVE = \"isMiningActive\";\n    bytes32 internal constant IS_PAYOUT_ACTIVE = \"isPayoutActive\";\n    bytes32 internal constant IS_VOTING_ACTIVE = \"isVotingActive\";\n    bytes32 internal constant HAS_MINING_KEY_BEEN_REMOVED = \"hasMiningKeyBeenRemoved\";\n    bytes32 internal constant MINING_KEY_BY_PAYOUT = \"miningKeyByPayout\";\n    bytes32 internal constant MINING_KEY_BY_VOTING = \"miningKeyByVoting\";\n    bytes32 internal constant MINING_KEY_HISTORY = \"miningKeyHistory\";\n    bytes32 internal constant PAYOUT_KEY = \"payoutKey\";\n    bytes32 internal constant SUCCESSFUL_VALIDATOR_CLONE = \"successfulValidatorClone\";\n    bytes32 internal constant VALIDATOR_KEYS = \"validatorKeys\";\n    bytes32 internal constant VOTING_KEY = \"votingKey\";\n\n    enum InitialKeyState {Invalid, Activated, Deactivated}\n\n    event MiningKeyChanged(address key, string action);\n    event VotingKeyChanged(address key, address indexed miningKey, string action);\n    event PayoutKeyChanged(address key, address indexed miningKey, string action);\n    \n    event ValidatorInitialized(\n        address indexed miningKey,\n        address indexed votingKey,\n        address indexed payoutKey\n    );\n\n    event InitialKeyCreated(\n        address indexed initialKey,\n        uint256 time,\n        uint256 initialKeysCount\n    );\n    \n    event Migrated(string name, address key);\n\n    modifier onlyOwner() {\n        require(msg.sender == addressStorage[OWNER]);\n        _;\n    }\n\n    modifier onlyVotingToChangeKeys() {\n        require(msg.sender == getVotingToChangeKeys());\n        _;\n    }\n\n    modifier onlyValidInitialKey() {\n        require(getInitialKeyStatus(msg.sender) == uint256(InitialKeyState.Activated));\n        _;\n    }\n\n    function checkIfMiningExisted(address _currentKey, address _newKey)\n        public\n        view\n        returns(bool)\n    {\n        require(msg.data.length >= 32*2 + 4);\n\n        if (isMiningActive(_newKey)) {\n            return true;\n        }\n\n        if (hasMiningKeyBeenRemoved(_newKey)) {\n            return true;\n        }\n\n        if (_currentKey == address(0)) {\n            return false;\n        }\n        \n        address currentKey = _currentKey;\n        uint256 maxDeep = maxOldMiningKeysDeepCheck();\n        \n        for (uint256 i = 0; i < maxDeep; i++) {\n            address oldMiningKey = getMiningKeyHistory(currentKey);\n            if (oldMiningKey == address(0)) {\n                return false;\n            }\n            if (oldMiningKey == _newKey) {\n                return true;\n            }\n            currentKey = oldMiningKey;\n        }\n        \n        return false;\n    }\n\n    function maxLimitValidators() public pure returns(uint256) {\n        return 2000;\n    }\n\n    function maxOldMiningKeysDeepCheck() public pure returns(uint256) {\n        return 25;\n    }\n\n    function masterOfCeremony() public view returns(address) {\n        return IPoaNetworkConsensus(poaNetworkConsensus()).masterOfCeremony();\n    }\n\n    function previousKeysManager() public view returns(address) {\n        return addressStorage[PREVIOUS_KEYS_MANAGER];\n    }\n\n    function proxyStorage() public view returns(address) {\n        return addressStorage[PROXY_STORAGE];\n    }\n\n    function poaNetworkConsensus() public view returns(address) {\n        return IProxyStorage(proxyStorage()).getPoaConsensus();\n    }\n\n    function maxNumberOfInitialKeys() public pure returns(uint256) {\n        return 12;\n    }\n\n    function initialKeysCount() public view returns(uint256) {\n        return uintStorage[INITIAL_KEYS_COUNT];\n    }\n\n    function getInitialKeyStatus(address _initialKey) public view returns(uint256) {\n        return uintStorage[\n            keccak256(abi.encode(INITIAL_KEY_STATUS, _initialKey))\n        ];\n    }\n\n    function miningKeyByPayout(address _payoutKey) public view returns(address) {\n        return addressStorage[\n            keccak256(abi.encode(MINING_KEY_BY_PAYOUT, _payoutKey))\n        ];\n    }\n\n    function miningKeyByVoting(address _votingKey) public view returns(address) {\n        return addressStorage[\n            keccak256(abi.encode(MINING_KEY_BY_VOTING, _votingKey))\n        ];\n    }\n\n    function miningKeyHistory(address _miningKey) public view returns(address) {\n        return addressStorage[\n            keccak256(abi.encode(MINING_KEY_HISTORY, _miningKey))\n        ];\n    }\n\n    function successfulValidatorClone(address _miningKey) public view returns(bool) {\n        return boolStorage[\n            keccak256(abi.encode(SUCCESSFUL_VALIDATOR_CLONE, _miningKey))\n        ];\n    }\n\n    function validatorKeys(address _miningKey) public view returns(\n        address validatorVotingKey,\n        address validatorPayoutKey,\n        bool isValidatorMiningActive,\n        bool isValidatorVotingActive,\n        bool isValidatorPayoutActive\n    ) {\n        validatorVotingKey = getVotingByMining(_miningKey);\n        validatorPayoutKey = getPayoutByMining(_miningKey);\n        isValidatorMiningActive = isMiningActive(_miningKey);\n        isValidatorVotingActive = isVotingActiveByMiningKey(_miningKey);\n        isValidatorPayoutActive = isPayoutActive(_miningKey);\n    }\n\n    function initDisabled() public view returns(bool) {\n        return boolStorage[INIT_DISABLED];\n    }\n\n    function init(\n        address _previousKeysManager\n    ) public onlyOwner {\n        require(!initDisabled());\n        address _masterOfCeremony = masterOfCeremony();\n        require(_masterOfCeremony != address(0));\n        require(_masterOfCeremony != poaNetworkConsensus());\n        _setVotingKey(address(0), _masterOfCeremony);\n        _setPayoutKey(address(0), _masterOfCeremony);\n        _setIsMiningActive(true, _masterOfCeremony);\n        _setIsVotingActive(false, _masterOfCeremony);\n        _setIsPayoutActive(false, _masterOfCeremony);\n        _setSuccessfulValidatorClone(true, _masterOfCeremony);\n        emit Migrated(\"miningKey\", _masterOfCeremony);\n        if (_previousKeysManager != address(0)) {\n            _setPreviousKeysManager(_previousKeysManager);\n            IKeysManager previous = IKeysManager(_previousKeysManager);\n            _setInitialKeysCount(previous.initialKeysCount());\n        }\n        boolStorage[INIT_DISABLED] = true;\n    }\n\n    function migrateMiningKey(\n        address _miningKey\n    ) public onlyOwner {\n        require(previousKeysManager() != address(0));\n        IKeysManager previous = IKeysManager(previousKeysManager());\n        require(_miningKey != address(0));\n        require(previous.isMiningActive(_miningKey));\n        require(!isMiningActive(_miningKey));\n        require(!successfulValidatorClone(_miningKey));\n        address votingKey = previous.getVotingByMining(_miningKey);\n        address payoutKey = previous.getPayoutByMining(_miningKey);\n        _setVotingKey(votingKey, _miningKey);\n        _setPayoutKey(payoutKey, _miningKey);\n        _setIsMiningActive(previous.isMiningActive(_miningKey), _miningKey);\n        _setIsVotingActive(previous.isVotingActive(votingKey), _miningKey);\n        _setIsPayoutActive(previous.isPayoutActive(_miningKey), _miningKey);\n        _setMiningKeyByVoting(votingKey, _miningKey);\n        _setMiningKeyByPayout(payoutKey, _miningKey);\n        _setSuccessfulValidatorClone(true, _miningKey);\n        address currentMiningKey = _miningKey;\n        uint256 maxMiningKeyHistoryDeep = maxOldMiningKeysDeepCheck();\n        for (uint256 i = 0; i < maxMiningKeyHistoryDeep; i++) {\n            address oldMiningKey = previous.getMiningKeyHistory(currentMiningKey);\n            if (oldMiningKey == address(0)) {\n                break;\n            }\n            _setMiningKeyHistory(currentMiningKey, oldMiningKey);\n            currentMiningKey = oldMiningKey;\n        }\n        emit Migrated(\"miningKey\", _miningKey);\n    }\n\n    function migrateInitialKey(address _initialKey) public onlyOwner {\n        require(getInitialKeyStatus(_initialKey) == uint256(InitialKeyState.Invalid));\n        require(_initialKey != address(0));\n        require(previousKeysManager() != address(0));\n        IKeysManagerPrev previous = IKeysManagerPrev(previousKeysManager());\n        uint256 status = previous.getInitialKey(_initialKey);\n        require(\n            status == uint256(InitialKeyState.Activated) ||\n            status == uint256(InitialKeyState.Deactivated)\n        );\n        _setInitialKeyStatus(status, _initialKey);\n        emit Migrated(\"initialKey\", _initialKey);\n    }\n\n    function initiateKeys(address _initialKey) public {\n        require(msg.sender == masterOfCeremony());\n        require(_initialKey != address(0));\n        require(getInitialKeyStatus(_initialKey) == uint256(InitialKeyState.Invalid));\n        require(_initialKey != masterOfCeremony());\n        uint256 _initialKeysCount = initialKeysCount();\n        require(_initialKeysCount < maxNumberOfInitialKeys());\n        _setInitialKeyStatus(uint256(InitialKeyState.Activated), _initialKey);\n        _initialKeysCount = _initialKeysCount.add(1);\n        _setInitialKeysCount(_initialKeysCount);\n        emit InitialKeyCreated(_initialKey, getTime(), _initialKeysCount);\n    }\n\n    function createKeys(\n        address _miningKey,\n        address _votingKey,\n        address _payoutKey\n    )\n        public\n        onlyValidInitialKey\n    {\n        require(_withinTotalLimit());\n        require(_miningKey != address(0));\n        require(_votingKey != address(0));\n        require(_payoutKey != address(0));\n        require(_miningKey != _votingKey);\n        require(_miningKey != _payoutKey);\n        require(_votingKey != _payoutKey);\n        require(_miningKey != msg.sender);\n        require(_votingKey != msg.sender);\n        require(_payoutKey != msg.sender);\n        require(!isMiningActive(_miningKey));\n        require(miningKeyByVoting(_votingKey) == address(0));\n        require(miningKeyByPayout(_payoutKey) == address(0));\n        require(getVotingByMining(_miningKey) == address(0));\n        require(getPayoutByMining(_miningKey) == address(0));\n        if (!IPoaNetworkConsensus(poaNetworkConsensus()).addValidator(_miningKey, true)) {\n            revert();\n        }\n        _setVotingKey(_votingKey, _miningKey);\n        _setPayoutKey(_payoutKey, _miningKey);\n        _setIsMiningActive(true, _miningKey);\n        _setIsVotingActive(true, _miningKey);\n        _setIsPayoutActive(true, _miningKey);\n        _setMiningKeyByVoting(_votingKey, _miningKey);\n        _setMiningKeyByPayout(_payoutKey, _miningKey);\n        _setInitialKeyStatus(uint256(InitialKeyState.Deactivated), msg.sender);\n        emit ValidatorInitialized(_miningKey, _votingKey, _payoutKey);\n    }\n\n    function getTime() public view returns(uint256) {\n        return now;\n    }\n\n    function getVotingToChangeKeys() public view returns(address) {\n        return IProxyStorage(proxyStorage()).getVotingToChangeKeys();\n    }\n\n    function isMiningActive(address _key) public view returns(bool) {\n        return boolStorage[\n            keccak256(abi.encode(VALIDATOR_KEYS, _key, IS_MINING_ACTIVE))\n        ];\n    }\n\n    function isVotingActive(address _votingKey) public view returns(bool) {\n        address miningKey = miningKeyByVoting(_votingKey);\n        return isVotingActiveByMiningKey(miningKey);\n    }\n\n    function isVotingActiveByMiningKey(address _miningKey) public view returns(bool) {\n        return boolStorage[\n            keccak256(abi.encode(VALIDATOR_KEYS, _miningKey, IS_VOTING_ACTIVE))\n        ];\n    }\n\n    function isPayoutActive(address _miningKey) public view returns(bool) {\n        return boolStorage[\n            keccak256(abi.encode(VALIDATOR_KEYS, _miningKey, IS_PAYOUT_ACTIVE))\n        ];\n    }\n\n    function getVotingByMining(address _miningKey) public view returns(address) {\n        return addressStorage[\n            keccak256(abi.encode(VALIDATOR_KEYS, _miningKey, VOTING_KEY))\n        ];\n    }\n\n    function getPayoutByMining(address _miningKey) public view returns(address) {\n        return addressStorage[\n            keccak256(abi.encode(VALIDATOR_KEYS, _miningKey, PAYOUT_KEY))\n        ];\n    }\n\n    function hasMiningKeyBeenRemoved(address _key) public view returns(bool) {\n        return boolStorage[\n            keccak256(abi.encode(HAS_MINING_KEY_BEEN_REMOVED, _key))\n        ];\n    }\n\n    function getMiningKeyHistory(address _miningKey) public view returns(address) {\n        return miningKeyHistory(_miningKey);\n    }\n\n    function getMiningKeyByVoting(address _votingKey) public view returns(address) {\n        return miningKeyByVoting(_votingKey);\n    }\n\n    function addMiningKey(address _key) public onlyVotingToChangeKeys returns(bool) {\n        if (!_withinTotalLimit()) return false;\n        if (!initDisabled()) return false;\n        if (hasMiningKeyBeenRemoved(_key)) {\n            return false;\n        }\n        if (!IPoaNetworkConsensus(poaNetworkConsensus()).addValidator(_key, true)) {\n            return false;\n        }\n        _setVotingKey(address(0), _key);\n        _setPayoutKey(address(0), _key);\n        _setIsMiningActive(true, _key);\n        _setIsVotingActive(false, _key);\n        _setIsPayoutActive(false, _key);\n        emit MiningKeyChanged(_key, \"added\");\n        return true;\n    }\n\n    function addVotingKey(address _key, address _miningKey) public onlyVotingToChangeKeys returns(bool) {\n        if (isVotingActiveByMiningKey(_miningKey) && getVotingByMining(_miningKey) != address(0)) {\n            return swapVotingKey(_key, _miningKey);\n        }\n        if (_addVotingPayoutKeyAllowed(_key, _miningKey)) {\n            _addVotingKey(_key, _miningKey);\n            return true;\n        }\n        return false;\n    }\n\n    function addPayoutKey(address _key, address _miningKey) public onlyVotingToChangeKeys returns(bool) {\n        if (isPayoutActive(_miningKey) && getPayoutByMining(_miningKey) != address(0)) {\n            return swapPayoutKey(_key, _miningKey);\n        }\n        if (_addVotingPayoutKeyAllowed(_key, _miningKey)) {\n            _addPayoutKey(_key, _miningKey);\n            return true;\n        }\n        return false;\n    }\n\n    function removeMiningKey(address _key) public onlyVotingToChangeKeys returns(bool) {\n        if (!initDisabled()) return false;\n        if (!isMiningActive(_key)) return false;\n        if (_key == masterOfCeremony() && initialKeysCount() < maxNumberOfInitialKeys()) return false;\n        if (!IPoaNetworkConsensus(poaNetworkConsensus()).removeValidator(_key, true)) return false;\n        address votingKey = getVotingByMining(_key);\n        address payoutKey = getPayoutByMining(_key);\n        _setMiningKeyByVoting(votingKey, address(0));\n        _setMiningKeyByPayout(payoutKey, address(0));\n        _clearMiningKey(_key);\n        _getValidatorMetadata().clearMetadata(_key);\n        _setHasMiningKeyBeenRemoved(_key);\n        emit MiningKeyChanged(_key, \"removed\");\n        if (votingKey != address(0)) {\n            emit VotingKeyChanged(votingKey, _key, \"removed\");\n        }\n        if (payoutKey != address(0)) {\n            emit PayoutKeyChanged(payoutKey, _key, \"removed\");\n        }\n        return true;\n    }\n\n    function removeVotingKey(address _miningKey) public onlyVotingToChangeKeys returns(bool) {\n        if (_removeVotingKeyAllowed(_miningKey)) {\n            _removeVotingKey(_miningKey);\n            return true;\n        }\n        return false;\n    }\n\n    function removePayoutKey(address _miningKey) public onlyVotingToChangeKeys returns(bool) {\n        if (_removePayoutKeyAllowed(_miningKey)) {\n            _removePayoutKey(_miningKey);\n            return true;\n        }\n        return false;\n    }\n\n    function swapMiningKey(address _key, address _oldMiningKey)\n        public\n        onlyVotingToChangeKeys\n        returns(bool)\n    {\n        if (_key == _oldMiningKey) return false;\n        if (!isMiningActive(_oldMiningKey)) return false;\n        if (hasMiningKeyBeenRemoved(_key)) {\n            return false;\n        }\n        if (!IPoaNetworkConsensus(poaNetworkConsensus()).swapValidatorKey(_key, _oldMiningKey)) {\n            return false;\n        }\n        _setMiningKeyHistory(_key, _oldMiningKey);\n        address votingKey = getVotingByMining(_oldMiningKey);\n        address payoutKey = getPayoutByMining(_oldMiningKey);\n        _setVotingKey(votingKey, _key);\n        _setPayoutKey(payoutKey, _key);\n        _setIsMiningActive(true, _key);\n        _setIsVotingActive(isVotingActive(votingKey), _key);\n        _setIsPayoutActive(isPayoutActive(_oldMiningKey), _key);\n        _clearMiningKey(_oldMiningKey);\n        _setMiningKeyByVoting(votingKey, _key);\n        _setMiningKeyByPayout(payoutKey, _key);\n        _getValidatorMetadata().moveMetadata(_oldMiningKey, _key);\n        _setHasMiningKeyBeenRemoved(_oldMiningKey);\n        emit MiningKeyChanged(_key, \"swapped\");\n        return true;\n    }\n\n    function swapVotingKey(address _key, address _miningKey) public onlyVotingToChangeKeys returns(bool) {\n        if (!_removeVotingKeyAllowed(_miningKey) || !_addVotingPayoutKeyAllowed(_key, _miningKey)) return false;\n        _removeVotingKey(_miningKey);\n        _addVotingKey(_key, _miningKey);\n        return true;\n    }\n\n    function swapPayoutKey(address _key, address _miningKey) public onlyVotingToChangeKeys returns(bool) {\n        if (!_removePayoutKeyAllowed(_miningKey) || !_addVotingPayoutKeyAllowed(_key, _miningKey)) return false;\n        _removePayoutKey(_miningKey);\n        _addPayoutKey(_key, _miningKey);\n        return true;\n    }\n\n    function _addVotingKey(address _key, address _miningKey) private {\n        _setVotingKey(_key, _miningKey);\n        _setIsVotingActive(true, _miningKey);\n        _setMiningKeyByVoting(_key, _miningKey);\n        emit VotingKeyChanged(_key, _miningKey, \"added\");\n    }\n\n    function _addVotingPayoutKeyAllowed(address _key, address _miningKey) private view returns(bool) {\n        if (!initDisabled()) return false;\n        if (!isMiningActive(_miningKey)) return false;\n        if (_key == _miningKey) return false;\n        return true;\n    }\n\n    function _addPayoutKey(address _key, address _miningKey) private {\n        _setPayoutKey(_key, _miningKey);\n        _setIsPayoutActive(true, _miningKey);\n        _setMiningKeyByPayout(_key, _miningKey);\n        emit PayoutKeyChanged(_key, _miningKey, \"added\");\n    }\n\n    function _clearMiningKey(address _miningKey) private {\n        _setVotingKey(address(0), _miningKey);\n        _setPayoutKey(address(0), _miningKey);\n        _setIsMiningActive(false, _miningKey);\n        _setIsVotingActive(false, _miningKey);\n        _setIsPayoutActive(false, _miningKey);\n    }\n\n    function _getValidatorMetadata() private view returns(IValidatorMetadata) {\n        return IValidatorMetadata(IProxyStorage(proxyStorage()).getValidatorMetadata());\n    }\n\n    function _removeVotingKey(address _miningKey) private {\n        address oldVoting = getVotingByMining(_miningKey);\n        _setVotingKey(address(0), _miningKey);\n        _setIsVotingActive(false, _miningKey);\n        _setMiningKeyByVoting(oldVoting, address(0));\n        emit VotingKeyChanged(oldVoting, _miningKey, \"removed\");\n    }\n\n    function _removeVotingKeyAllowed(address _miningKey) private view returns(bool) {\n        if (!initDisabled()) return false;\n        if (!isVotingActiveByMiningKey(_miningKey)) return false;\n        return true;\n    }\n\n    function _removePayoutKey(address _miningKey) private {\n        address oldPayout = getPayoutByMining(_miningKey);\n        _setPayoutKey(address(0), _miningKey);\n        _setIsPayoutActive(false, _miningKey);\n        _setMiningKeyByPayout(oldPayout, address(0));\n        emit PayoutKeyChanged(oldPayout, _miningKey, \"removed\");\n    }\n\n    function _removePayoutKeyAllowed(address _miningKey) private view returns(bool) {\n        if (!initDisabled()) return false;\n        if (!isPayoutActive(_miningKey)) return false;\n        return true;\n    }\n\n    function _setPreviousKeysManager(address _keysManager) private {\n        addressStorage[PREVIOUS_KEYS_MANAGER] = _keysManager;\n    }\n\n    function _setInitialKeysCount(uint256 _count) private {\n        uintStorage[INITIAL_KEYS_COUNT] = _count;\n    }\n\n    function _setInitialKeyStatus(uint256 _status, address _initialKey) private {\n        uintStorage[\n            keccak256(abi.encode(INITIAL_KEY_STATUS, _initialKey))\n        ] = _status;\n    }\n\n    function _setVotingKey(address _key, address _miningKey) private {\n        addressStorage[\n            keccak256(abi.encode(VALIDATOR_KEYS, _miningKey, VOTING_KEY))\n        ] = _key;\n    }\n\n    function _setPayoutKey(address _key, address _miningKey) private {\n        addressStorage[\n            keccak256(abi.encode(VALIDATOR_KEYS, _miningKey, PAYOUT_KEY))\n        ] = _key;\n    }\n\n    function _setIsMiningActive(bool _active, address _miningKey) private {\n        boolStorage[\n            keccak256(abi.encode(VALIDATOR_KEYS, _miningKey, IS_MINING_ACTIVE))\n        ] = _active;\n    }\n\n    function _setIsVotingActive(bool _active, address _miningKey) private {\n        boolStorage[\n            keccak256(abi.encode(VALIDATOR_KEYS, _miningKey, IS_VOTING_ACTIVE))\n        ] = _active;\n    }\n\n    function _setIsPayoutActive(bool _active, address _miningKey) private {\n        boolStorage[\n            keccak256(abi.encode(VALIDATOR_KEYS, _miningKey, IS_PAYOUT_ACTIVE))\n        ] = _active;\n    }\n\n    function _setMiningKeyByPayout(address _payoutKey, address _miningKey) private {\n        if (_payoutKey == address(0)) return;\n        addressStorage[\n            keccak256(abi.encode(MINING_KEY_BY_PAYOUT, _payoutKey))\n        ] = _miningKey;\n    }\n\n    function _setMiningKeyByVoting(address _votingKey, address _miningKey) private {\n        if (_votingKey == address(0)) return;\n        addressStorage[\n            keccak256(abi.encode(MINING_KEY_BY_VOTING, _votingKey))\n        ] = _miningKey;\n    }\n\n    function _setMiningKeyHistory(address _key, address _oldMiningKey) private {\n        addressStorage[\n            keccak256(abi.encode(MINING_KEY_HISTORY, _key))\n        ] = _oldMiningKey;\n    }\n\n    function _setSuccessfulValidatorClone(bool _success, address _miningKey) private {\n        boolStorage[\n            keccak256(abi.encode(SUCCESSFUL_VALIDATOR_CLONE, _miningKey))\n        ] = _success;\n    }\n\n    function _setHasMiningKeyBeenRemoved(address _key) private {\n        boolStorage[\n            keccak256(abi.encode(HAS_MINING_KEY_BEEN_REMOVED, _key))\n        ] = true;\n    }\n\n    function _withinTotalLimit() private view returns(bool) {\n        IPoaNetworkConsensus poa = IPoaNetworkConsensus(poaNetworkConsensus());\n        return poa.getCurrentValidatorsLength() < maxLimitValidators();\n    }\n}\n",
  "sourcePath": "/home/moc/poa-network-consensus-contracts/contracts/KeysManager.sol",
  "compiler": {
    "name": "solc",
    "version": "0.4.24+commit.e67f0147.Emscripten.clang"
  },
  "schemaVersion": "2.0.1",
  "updatedAt": "2021-11-29T10:09:50.859Z"
}