{
  "contractName": "ProxyStorage",
  "abi": [
    {
      "anonymous": false,
      "inputs": [
        {
          "indexed": false,
          "name": "keysManagerEternalStorage",
          "type": "address"
        },
        {
          "indexed": false,
          "name": "votingToChangeKeysEternalStorage",
          "type": "address"
        },
        {
          "indexed": false,
          "name": "votingToChangeMinThresholdEternalStorage",
          "type": "address"
        },
        {
          "indexed": false,
          "name": "votingToChangeProxyEternalStorage",
          "type": "address"
        },
        {
          "indexed": false,
          "name": "votingToManageEmissionFundsEternalStorage",
          "type": "address"
        },
        {
          "indexed": false,
          "name": "ballotsStorageEternalStorage",
          "type": "address"
        },
        {
          "indexed": false,
          "name": "validatorMetadataEternalStorage",
          "type": "address"
        },
        {
          "indexed": false,
          "name": "rewardByBlockEternalStorage",
          "type": "address"
        }
      ],
      "name": "ProxyInitialized",
      "type": "event"
    },
    {
      "anonymous": false,
      "inputs": [
        {
          "indexed": false,
          "name": "contractType",
          "type": "uint256"
        },
        {
          "indexed": false,
          "name": "contractAddress",
          "type": "address"
        }
      ],
      "name": "AddressSet",
      "type": "event"
    },
    {
      "constant": true,
      "inputs": [],
      "name": "initDisabled",
      "outputs": [
        {
          "name": "",
          "type": "bool"
        }
      ],
      "payable": false,
      "stateMutability": "view",
      "type": "function"
    },
    {
      "constant": false,
      "inputs": [
        {
          "name": "_poaConsensus",
          "type": "address"
        }
      ],
      "name": "init",
      "outputs": [],
      "payable": false,
      "stateMutability": "nonpayable",
      "type": "function"
    },
    {
      "constant": true,
      "inputs": [],
      "name": "mocInitialized",
      "outputs": [
        {
          "name": "",
          "type": "bool"
        }
      ],
      "payable": false,
      "stateMutability": "view",
      "type": "function"
    },
    {
      "constant": true,
      "inputs": [],
      "name": "getKeysManager",
      "outputs": [
        {
          "name": "",
          "type": "address"
        }
      ],
      "payable": false,
      "stateMutability": "view",
      "type": "function"
    },
    {
      "constant": true,
      "inputs": [],
      "name": "getVotingToChangeKeys",
      "outputs": [
        {
          "name": "",
          "type": "address"
        }
      ],
      "payable": false,
      "stateMutability": "view",
      "type": "function"
    },
    {
      "constant": true,
      "inputs": [],
      "name": "getVotingToChangeMinThreshold",
      "outputs": [
        {
          "name": "",
          "type": "address"
        }
      ],
      "payable": false,
      "stateMutability": "view",
      "type": "function"
    },
    {
      "constant": true,
      "inputs": [],
      "name": "getVotingToChangeProxy",
      "outputs": [
        {
          "name": "",
          "type": "address"
        }
      ],
      "payable": false,
      "stateMutability": "view",
      "type": "function"
    },
    {
      "constant": true,
      "inputs": [],
      "name": "getVotingToManageEmissionFunds",
      "outputs": [
        {
          "name": "",
          "type": "address"
        }
      ],
      "payable": false,
      "stateMutability": "view",
      "type": "function"
    },
    {
      "constant": true,
      "inputs": [],
      "name": "getPoaConsensus",
      "outputs": [
        {
          "name": "",
          "type": "address"
        }
      ],
      "payable": false,
      "stateMutability": "view",
      "type": "function"
    },
    {
      "constant": true,
      "inputs": [],
      "name": "getBallotsStorage",
      "outputs": [
        {
          "name": "",
          "type": "address"
        }
      ],
      "payable": false,
      "stateMutability": "view",
      "type": "function"
    },
    {
      "constant": true,
      "inputs": [],
      "name": "getValidatorMetadata",
      "outputs": [
        {
          "name": "",
          "type": "address"
        }
      ],
      "payable": false,
      "stateMutability": "view",
      "type": "function"
    },
    {
      "constant": true,
      "inputs": [],
      "name": "getRewardByBlock",
      "outputs": [
        {
          "name": "",
          "type": "address"
        }
      ],
      "payable": false,
      "stateMutability": "view",
      "type": "function"
    },
    {
      "constant": false,
      "inputs": [
        {
          "name": "_keysManagerEternalStorage",
          "type": "address"
        },
        {
          "name": "_votingToChangeKeysEternalStorage",
          "type": "address"
        },
        {
          "name": "_votingToChangeMinThresholdEternalStorage",
          "type": "address"
        },
        {
          "name": "_votingToChangeProxyEternalStorage",
          "type": "address"
        },
        {
          "name": "_votingToManageEmissionFundsEternalStorage",
          "type": "address"
        },
        {
          "name": "_ballotsStorageEternalStorage",
          "type": "address"
        },
        {
          "name": "_validatorMetadataEternalStorage",
          "type": "address"
        },
        {
          "name": "_rewardByBlockEternalStorage",
          "type": "address"
        }
      ],
      "name": "initializeAddresses",
      "outputs": [],
      "payable": false,
      "stateMutability": "nonpayable",
      "type": "function"
    },
    {
      "constant": false,
      "inputs": [
        {
          "name": "_contractType",
          "type": "uint256"
        },
        {
          "name": "_contractAddress",
          "type": "address"
        }
      ],
      "name": "setContractAddress",
      "outputs": [
        {
          "name": "",
          "type": "bool"
        }
      ],
      "payable": false,
      "stateMutability": "nonpayable",
      "type": "function"
    }
  ],
  "bytecode": "0x608060405234801561001057600080fd5b50611124806100206000396000f3006080604052600436106100b65763ffffffff60e060020a60003504166302afdfd481146100bb57806313e468b3146100ec57806319ab453c1461010157806336ee77731461012457806349285b581461013957806352a369381461014e5780636398316c146101775780636ecad99d1461018c5780638b8414c4146101a15780639a573786146101b65780639efa82cf146101cb578063a3b3fff114610216578063b1339de31461022b578063bb0165b114610240575b600080fd5b3480156100c757600080fd5b506100d0610264565b60408051600160a060020a039092168252519081900360200190f35b3480156100f857600080fd5b506100d06102ae565b34801561010d57600080fd5b50610122600160a060020a0360043516610323565b005b34801561013057600080fd5b506100d06103c8565b34801561014557600080fd5b506100d0610412565b34801561015a57600080fd5b5061016361045d565b604080519115158252519081900360200190f35b34801561018357600080fd5b506101636104a1565b34801561019857600080fd5b506100d06104e5565b3480156101ad57600080fd5b506100d061055a565b3480156101c257600080fd5b506100d06105a4565b3480156101d757600080fd5b50610122600160a060020a0360043581169060243581169060443581169060643581169060843581169060a43581169060c43581169060e435166105ee565b34801561022257600080fd5b506100d0610baf565b34801561023757600080fd5b506100d0610c24565b34801561024c57600080fd5b50610163600435600160a060020a0360243516610c6e565b604080517f7265776172644279426c6f636b457465726e616c53746f7261676500000000008152815190819003601b019020600090815260046020522054600160a060020a031690565b604080517f766f74696e67546f4368616e676550726f7879457465726e616c53746f72616781527f6500000000000000000000000000000000000000000000000000000000000000602080830191909152825191829003602101909120600090815260049091522054600160a060020a031690565b61032c33610f3d565b151561033757600080fd5b61033f61045d565b1561034957600080fd5b600160a060020a038116151561035e57600080fd5b600160a060020a03811630141561037457600080fd5b61037d81610f8e565b50604080517f696e697444697361626c656400000000000000000000000000000000000000008152815190819003600c0190206000908152600660205220805460ff19166001179055565b604080517f62616c6c6f747353746f72616765457465726e616c53746f72616765000000008152815190819003601c019020600090815260046020522054600160a060020a031690565b604080517f766f74696e67546f4368616e67654b657973457465726e616c53746f726167658152815160209181900382019020600090815260049091522054600160a060020a031690565b604080517f696e697444697361626c656400000000000000000000000000000000000000008152815190819003600c01902060009081526006602052205460ff1690565b604080517f6d6f63496e697469616c697a65640000000000000000000000000000000000008152815190819003600e01902060009081526006602052205460ff1690565b604080517f766f74696e67546f4d616e616765456d697373696f6e46756e6473457465726e81527f616c53746f726167650000000000000000000000000000000000000000000000602080830191909152825191829003602901909120600090815260049091522054600160a060020a031690565b604080517f706f61436f6e73656e73757300000000000000000000000000000000000000008152815190819003600c019020600090815260046020522054600160a060020a031690565b604080517f6b6579734d616e61676572457465726e616c53746f726167650000000000000081528151908190036019019020600090815260046020522054600160a060020a031690565b6105f733610f3d565b80610606575061060633610ff9565b151561061157600080fd5b6106196104a1565b1561062357600080fd5b876004600060405180807f6b6579734d616e61676572457465726e616c53746f7261676500000000000000815250601901905060405180910390206000191660001916815260200190815260200160002060006101000a815481600160a060020a030219169083600160a060020a03160217905550866004600060405180807f766f74696e67546f4368616e67654b657973457465726e616c53746f72616765815250602001905060405180910390206000191660001916815260200190815260200160002060006101000a815481600160a060020a030219169083600160a060020a03160217905550856004600060405180807f766f74696e67546f4368616e67654d696e5468726573686f6c64457465726e6181526020017f6c53746f72616765000000000000000000000000000000000000000000000000815250602801905060405180910390206000191660001916815260200190815260200160002060006101000a815481600160a060020a030219169083600160a060020a03160217905550846004600060405180807f766f74696e67546f4368616e676550726f7879457465726e616c53746f72616781526020017f6500000000000000000000000000000000000000000000000000000000000000815250602101905060405180910390206000191660001916815260200190815260200160002060006101000a815481600160a060020a030219169083600160a060020a03160217905550836004600060405180807f766f74696e67546f4d616e616765456d697373696f6e46756e6473457465726e81526020017f616c53746f726167650000000000000000000000000000000000000000000000815250602901905060405180910390206000191660001916815260200190815260200160002060006101000a815481600160a060020a030219169083600160a060020a03160217905550826004600060405180807f62616c6c6f747353746f72616765457465726e616c53746f7261676500000000815250601c01905060405180910390206000191660001916815260200190815260200160002060006101000a815481600160a060020a030219169083600160a060020a03160217905550816004600060405180807f76616c696461746f724d65746164617461457465726e616c53746f7261676500815250601f01905060405180910390206000191660001916815260200190815260200160002060006101000a815481600160a060020a030219169083600160a060020a03160217905550806004600060405180807f7265776172644279426c6f636b457465726e616c53746f726167650000000000815250601b01905060405180910390206000191660001916815260200190815260200160002060006101000a815481600160a060020a030219169083600160a060020a0316021790555060016006600060405180807f6d6f63496e697469616c697a6564000000000000000000000000000000000000815250600e01905060405180910390206000191660001916815260200190815260200160002060006101000a81548160ff0219169083151502179055507fa0b05192e1273ceffbbdd1e02195c6ea17c6555a090c4f498adbd7ba31a19eb688888888888888886040518089600160a060020a0316600160a060020a0316815260200188600160a060020a0316600160a060020a0316815260200187600160a060020a0316600160a060020a0316815260200186600160a060020a0316600160a060020a0316815260200185600160a060020a0316600160a060020a0316815260200184600160a060020a0316600160a060020a0316815260200183600160a060020a0316600160a060020a0316815260200182600160a060020a0316600160a060020a031681526020019850505050505050505060405180910390a15050505050505050565b604080517f766f74696e67546f4368616e67654d696e5468726573686f6c64457465726e6181527f6c53746f72616765000000000000000000000000000000000000000000000000602080830191909152825191829003602801909120600090815260049091522054600160a060020a031690565b604080517f76616c696461746f724d65746164617461457465726e616c53746f72616765008152815190819003601f019020600090815260046020522054600160a060020a031690565b600080610c796102ae565b600160a060020a03163314610c8d57600080fd5b610c956104a1565b1515610ca45760009150610f36565b610cac61045d565b1515610cbb5760009150610f36565b600160a060020a0383161515610cd45760009150610f36565b5060006001841415610d7557610ce86105a4565b600160a060020a0316633659cfe6846040518263ffffffff1660e060020a0281526004018082600160a060020a0316600160a060020a03168152602001915050602060405180830381600087803b158015610d4257600080fd5b505af1158015610d56573d6000803e3d6000fd5b505050506040513d6020811015610d6c57600080fd5b50519050610ee8565b6002841415610d8657610ce8610412565b6003841415610d9757610ce8610baf565b6004841415610da857610ce86102ae565b6005841415610db957610ce86103c8565b6006841415610dd357610dcb83610f8e565b506001610ee8565b6007841415610de457610ce8610c24565b6008841415610e4e57604080517f3659cfe6000000000000000000000000000000000000000000000000000000008152600160a060020a038516600482015290513091633659cfe69160248083019260209291908290030181600087803b158015610d4257600080fd5b6009841415610ee857610e5f610264565b600160a060020a0316633659cfe6846040518263ffffffff1660e060020a0281526004018082600160a060020a0316600160a060020a03168152602001915050602060405180830381600087803b158015610eb957600080fd5b505af1158015610ecd573d6000803e3d6000fd5b505050506040513d6020811015610ee357600080fd5b505190505b8015610f325760408051858152600160a060020a038516602082015281517fcb8f0f32182a0f756b1e065dab832c24d2c48fa533912c33552252a7f25bf4ae929181900390910190a15b8091505b5092915050565b604080517f6f776e657200000000000000000000000000000000000000000000000000000081528151908190036005019020600090815260046020522054600160a060020a03828116911614919050565b604080517f706f61436f6e73656e73757300000000000000000000000000000000000000008152815190819003600c01902060009081526004602052208054600160a060020a0390921673ffffffffffffffffffffffffffffffffffffffff19909216919091179055565b60008061100461055a565b905080600160a060020a031663fa81b2006040518163ffffffff1660e060020a028152600401602060405180830381600087803b15801561104457600080fd5b505af1158015611058573d6000803e3d6000fd5b505050506040513d602081101561106e57600080fd5b5051600160a060020a0384811691161480156110f1575080600160a060020a031663379fed9a6040518163ffffffff1660e060020a028152600401602060405180830381600087803b1580156110c357600080fd5b505af11580156110d7573d6000803e3d6000fd5b505050506040513d60208110156110ed57600080fd5b5051155b93925050505600a165627a7a72305820fcf64c0558a2ddd66e5a49d43f87d25a4f8f490d542dcc69d433104c57f870af0029",
  "source": "pragma solidity ^0.4.24;\n\nimport \"./interfaces/IProxyStorage.sol\";\nimport \"./interfaces/IPoaNetworkConsensus.sol\";\nimport \"./interfaces/IEternalStorageProxy.sol\";\nimport \"./eternal-storage/EternalStorage.sol\";\n\n\ncontract ProxyStorage is EternalStorage, IProxyStorage {\n    bytes32 internal constant INIT_DISABLED =\n        keccak256(\"initDisabled\");\n    \n    bytes32 internal constant BALLOTS_STORAGE_ETERNAL_STORAGE =\n        keccak256(\"ballotsStorageEternalStorage\");\n    \n    bytes32 internal constant KEYS_MANAGER_ETERNAL_STORAGE =\n        keccak256(\"keysManagerEternalStorage\");\n    \n    bytes32 internal constant MOC_INITIALIZED =\n        keccak256(\"mocInitialized\");\n    \n    bytes32 internal constant OWNER =\n        keccak256(\"owner\");\n    \n    bytes32 internal constant POA_CONSENSUS =\n        keccak256(\"poaConsensus\");\n\n    bytes32 internal constant REWARD_BY_BLOCK_ETERNAL_STORAGE = \n        keccak256(\"rewardByBlockEternalStorage\");\n    \n    bytes32 internal constant VALIDATOR_METADATA_ETERNAL_STORAGE =\n        keccak256(\"validatorMetadataEternalStorage\");\n    \n    bytes32 internal constant VOTING_TO_CHANGE_KEYS_ETERNAL_STORAGE =\n        keccak256(\"votingToChangeKeysEternalStorage\");\n    \n    bytes32 internal constant VOTING_TO_CHANGE_MIN_THRESHOLD_ETERNAL_STORAGE =\n        keccak256(\"votingToChangeMinThresholdEternalStorage\");\n    \n    bytes32 internal constant VOTING_TO_CHANGE_PROXY_ETERNAL_STORAGE =\n        keccak256(\"votingToChangeProxyEternalStorage\");\n\n    bytes32 internal constant VOTING_TO_MANAGE_EMISSION_FUNDS_ETERNAL_STORAGE = \n        keccak256(\"votingToManageEmissionFundsEternalStorage\");\n\n    enum ContractTypes {\n        Invalid,\n        KeysManager,\n        VotingToChangeKeys,\n        VotingToChangeMinThreshold,\n        VotingToChangeProxy,\n        BallotsStorage,\n        PoaConsensus,\n        ValidatorMetadata,\n        ProxyStorage,\n        RewardByBlock\n    }\n\n    event ProxyInitialized(\n        address keysManagerEternalStorage,\n        address votingToChangeKeysEternalStorage,\n        address votingToChangeMinThresholdEternalStorage,\n        address votingToChangeProxyEternalStorage,\n        address votingToManageEmissionFundsEternalStorage,\n        address ballotsStorageEternalStorage,\n        address validatorMetadataEternalStorage,\n        address rewardByBlockEternalStorage\n    );\n\n    event AddressSet(uint256 contractType, address contractAddress);\n\n    modifier onlyVotingToChangeProxy() {\n        require(msg.sender == getVotingToChangeProxy());\n        _;\n    }\n\n    modifier onlyOwner() {\n        require(_isOwner(msg.sender));\n        _;\n    }\n\n    function initDisabled() public view returns(bool) {\n        return boolStorage[INIT_DISABLED];\n    }\n\n    function init(address _poaConsensus) public onlyOwner {\n        require(!initDisabled());\n        require(_poaConsensus != address(0));\n        require(_poaConsensus != address(this));\n        _setPoaConsensus(_poaConsensus);\n        boolStorage[INIT_DISABLED] = true;\n    }\n\n    function mocInitialized() public view returns(bool) {\n        return boolStorage[MOC_INITIALIZED];\n    }\n\n    function getKeysManager() public view returns(address) {\n        return addressStorage[KEYS_MANAGER_ETERNAL_STORAGE];\n    }\n\n    function getVotingToChangeKeys() public view returns(address) {\n        return addressStorage[VOTING_TO_CHANGE_KEYS_ETERNAL_STORAGE];\n    }\n\n    function getVotingToChangeMinThreshold() public view returns(address) {\n        return addressStorage[VOTING_TO_CHANGE_MIN_THRESHOLD_ETERNAL_STORAGE];\n    }\n\n    function getVotingToChangeProxy() public view returns(address) {\n        return addressStorage[VOTING_TO_CHANGE_PROXY_ETERNAL_STORAGE];\n    }\n\n    function getVotingToManageEmissionFunds() public view returns(address) {\n        return addressStorage[VOTING_TO_MANAGE_EMISSION_FUNDS_ETERNAL_STORAGE];\n    }\n\n    function getPoaConsensus() public view returns(address) {\n        return addressStorage[POA_CONSENSUS];\n    }\n\n    function getBallotsStorage() public view returns(address) {\n        return addressStorage[BALLOTS_STORAGE_ETERNAL_STORAGE];\n    }\n\n    function getValidatorMetadata() public view returns(address) {\n        return addressStorage[VALIDATOR_METADATA_ETERNAL_STORAGE];\n    }\n\n    function getRewardByBlock() public view returns(address) {\n        return addressStorage[REWARD_BY_BLOCK_ETERNAL_STORAGE];\n    }\n\n    function initializeAddresses(\n        address _keysManagerEternalStorage,\n        address _votingToChangeKeysEternalStorage,\n        address _votingToChangeMinThresholdEternalStorage,\n        address _votingToChangeProxyEternalStorage,\n        address _votingToManageEmissionFundsEternalStorage,\n        address _ballotsStorageEternalStorage,\n        address _validatorMetadataEternalStorage,\n        address _rewardByBlockEternalStorage\n    ) public {\n        require(_isOwner(msg.sender) || _isMoC(msg.sender));\n        require(!mocInitialized());\n        addressStorage[KEYS_MANAGER_ETERNAL_STORAGE] =\n            _keysManagerEternalStorage;\n        addressStorage[VOTING_TO_CHANGE_KEYS_ETERNAL_STORAGE] =\n            _votingToChangeKeysEternalStorage;\n        addressStorage[VOTING_TO_CHANGE_MIN_THRESHOLD_ETERNAL_STORAGE] =\n            _votingToChangeMinThresholdEternalStorage;\n        addressStorage[VOTING_TO_CHANGE_PROXY_ETERNAL_STORAGE] =\n            _votingToChangeProxyEternalStorage;\n        addressStorage[VOTING_TO_MANAGE_EMISSION_FUNDS_ETERNAL_STORAGE] =\n            _votingToManageEmissionFundsEternalStorage;\n        addressStorage[BALLOTS_STORAGE_ETERNAL_STORAGE] =\n            _ballotsStorageEternalStorage;\n        addressStorage[VALIDATOR_METADATA_ETERNAL_STORAGE] =\n            _validatorMetadataEternalStorage;\n        addressStorage[REWARD_BY_BLOCK_ETERNAL_STORAGE] = \n            _rewardByBlockEternalStorage;\n        boolStorage[MOC_INITIALIZED] = true;\n        emit ProxyInitialized(\n            _keysManagerEternalStorage,\n            _votingToChangeKeysEternalStorage,\n            _votingToChangeMinThresholdEternalStorage,\n            _votingToChangeProxyEternalStorage,\n            _votingToManageEmissionFundsEternalStorage,\n            _ballotsStorageEternalStorage,\n            _validatorMetadataEternalStorage,\n            _rewardByBlockEternalStorage\n        );\n    }\n\n    // solhint-disable code-complexity\n    function setContractAddress(uint256 _contractType, address _contractAddress)\n        public\n        onlyVotingToChangeProxy\n        returns(bool)\n    {\n        if (!mocInitialized()) return false;\n        if (!initDisabled()) return false;\n        if (_contractAddress == address(0)) return false;\n        bool success = false;\n        if (_contractType == uint256(ContractTypes.KeysManager)) {\n            success = IEternalStorageProxy(\n                getKeysManager()\n            ).upgradeTo(_contractAddress);\n        } else if (_contractType == uint256(ContractTypes.VotingToChangeKeys)) {\n            success = IEternalStorageProxy(\n                getVotingToChangeKeys()\n            ).upgradeTo(_contractAddress);\n        } else if (_contractType == uint256(ContractTypes.VotingToChangeMinThreshold)) {\n            success = IEternalStorageProxy(\n                getVotingToChangeMinThreshold()\n            ).upgradeTo(_contractAddress);\n        } else if (_contractType == uint256(ContractTypes.VotingToChangeProxy)) {\n            success = IEternalStorageProxy(\n                getVotingToChangeProxy()\n            ).upgradeTo(_contractAddress);\n        } else if (_contractType == uint256(ContractTypes.BallotsStorage)) {\n            success = IEternalStorageProxy(\n                getBallotsStorage()\n            ).upgradeTo(_contractAddress);\n        } else if (_contractType == uint256(ContractTypes.PoaConsensus)) {\n            _setPoaConsensus(_contractAddress);\n            success = true;\n        } else if (_contractType == uint256(ContractTypes.ValidatorMetadata)) {\n            success = IEternalStorageProxy(\n                getValidatorMetadata()\n            ).upgradeTo(_contractAddress);\n        } else if (_contractType == uint256(ContractTypes.ProxyStorage)) {\n            success = IEternalStorageProxy(this).upgradeTo(_contractAddress);\n        } else if (_contractType == uint256(ContractTypes.RewardByBlock)) {\n            success = IEternalStorageProxy(\n                getRewardByBlock()\n            ).upgradeTo(_contractAddress);\n        }\n        if (success) {\n            emit AddressSet(_contractType, _contractAddress);\n        }\n        return success;\n    }\n    // solhint-enable code-complexity\n\n    function _isMoC(address _validator) private view returns(bool) {\n        IPoaNetworkConsensus poa = IPoaNetworkConsensus(getPoaConsensus());\n        return _validator == poa.masterOfCeremony() && !poa.isMasterOfCeremonyRemoved();\n    }\n\n    function _isOwner(address _sender) private view returns(bool) {\n        return _sender == addressStorage[OWNER];\n    }\n\n    function _setPoaConsensus(address _poaConsensus) private {\n        addressStorage[POA_CONSENSUS] = _poaConsensus;\n    }\n}\n",
  "sourcePath": "/home/moc/poa-network-consensus-contracts/contracts/ProxyStorage.sol",
  "compiler": {
    "name": "solc",
    "version": "0.4.24+commit.e67f0147.Emscripten.clang"
  },
  "schemaVersion": "2.0.1",
  "updatedAt": "2021-11-29T10:09:50.832Z"
}