{
  "contractName": "RewardByBlock",
  "abi": [
    {
      "constant": true,
      "inputs": [],
      "name": "bridgesAllowedLength",
      "outputs": [
        {
          "name": "",
          "type": "uint256"
        }
      ],
      "payable": false,
      "stateMutability": "view",
      "type": "function"
    },
    {
      "constant": true,
      "inputs": [],
      "name": "emissionFunds",
      "outputs": [
        {
          "name": "",
          "type": "address"
        }
      ],
      "payable": false,
      "stateMutability": "view",
      "type": "function"
    },
    {
      "constant": true,
      "inputs": [],
      "name": "blockRewardAmount",
      "outputs": [
        {
          "name": "",
          "type": "uint256"
        }
      ],
      "payable": false,
      "stateMutability": "view",
      "type": "function"
    },
    {
      "constant": true,
      "inputs": [],
      "name": "emissionFundsAmount",
      "outputs": [
        {
          "name": "",
          "type": "uint256"
        }
      ],
      "payable": false,
      "stateMutability": "view",
      "type": "function"
    },
    {
      "anonymous": false,
      "inputs": [
        {
          "indexed": false,
          "name": "amount",
          "type": "uint256"
        },
        {
          "indexed": true,
          "name": "receiver",
          "type": "address"
        },
        {
          "indexed": true,
          "name": "bridge",
          "type": "address"
        }
      ],
      "name": "AddedReceiver",
      "type": "event"
    },
    {
      "anonymous": false,
      "inputs": [
        {
          "indexed": false,
          "name": "receivers",
          "type": "address[]"
        },
        {
          "indexed": false,
          "name": "rewards",
          "type": "uint256[]"
        }
      ],
      "name": "Rewarded",
      "type": "event"
    },
    {
      "constant": false,
      "inputs": [
        {
          "name": "_amount",
          "type": "uint256"
        },
        {
          "name": "_receiver",
          "type": "address"
        }
      ],
      "name": "addExtraReceiver",
      "outputs": [],
      "payable": false,
      "stateMutability": "nonpayable",
      "type": "function"
    },
    {
      "constant": false,
      "inputs": [
        {
          "name": "benefactors",
          "type": "address[]"
        },
        {
          "name": "kind",
          "type": "uint16[]"
        }
      ],
      "name": "reward",
      "outputs": [
        {
          "name": "",
          "type": "address[]"
        },
        {
          "name": "",
          "type": "uint256[]"
        }
      ],
      "payable": false,
      "stateMutability": "nonpayable",
      "type": "function"
    },
    {
      "constant": true,
      "inputs": [],
      "name": "bridgesAllowed",
      "outputs": [
        {
          "name": "",
          "type": "address[3]"
        }
      ],
      "payable": false,
      "stateMutability": "pure",
      "type": "function"
    },
    {
      "constant": true,
      "inputs": [
        {
          "name": "_bridge",
          "type": "address"
        }
      ],
      "name": "bridgeAmount",
      "outputs": [
        {
          "name": "",
          "type": "uint256"
        }
      ],
      "payable": false,
      "stateMutability": "view",
      "type": "function"
    },
    {
      "constant": true,
      "inputs": [
        {
          "name": "_index",
          "type": "uint256"
        }
      ],
      "name": "extraReceiverByIndex",
      "outputs": [
        {
          "name": "",
          "type": "address"
        }
      ],
      "payable": false,
      "stateMutability": "view",
      "type": "function"
    },
    {
      "constant": true,
      "inputs": [
        {
          "name": "_receiver",
          "type": "address"
        }
      ],
      "name": "extraReceiverAmount",
      "outputs": [
        {
          "name": "",
          "type": "uint256"
        }
      ],
      "payable": false,
      "stateMutability": "view",
      "type": "function"
    },
    {
      "constant": true,
      "inputs": [],
      "name": "extraReceiversLength",
      "outputs": [
        {
          "name": "",
          "type": "uint256"
        }
      ],
      "payable": false,
      "stateMutability": "view",
      "type": "function"
    },
    {
      "constant": true,
      "inputs": [
        {
          "name": "_account",
          "type": "address"
        }
      ],
      "name": "mintedForAccount",
      "outputs": [
        {
          "name": "",
          "type": "uint256"
        }
      ],
      "payable": false,
      "stateMutability": "view",
      "type": "function"
    },
    {
      "constant": true,
      "inputs": [
        {
          "name": "_account",
          "type": "address"
        },
        {
          "name": "_blockNumber",
          "type": "uint256"
        }
      ],
      "name": "mintedForAccountInBlock",
      "outputs": [
        {
          "name": "",
          "type": "uint256"
        }
      ],
      "payable": false,
      "stateMutability": "view",
      "type": "function"
    },
    {
      "constant": true,
      "inputs": [
        {
          "name": "_blockNumber",
          "type": "uint256"
        }
      ],
      "name": "mintedInBlock",
      "outputs": [
        {
          "name": "",
          "type": "uint256"
        }
      ],
      "payable": false,
      "stateMutability": "view",
      "type": "function"
    },
    {
      "constant": true,
      "inputs": [],
      "name": "mintedTotally",
      "outputs": [
        {
          "name": "",
          "type": "uint256"
        }
      ],
      "payable": false,
      "stateMutability": "view",
      "type": "function"
    },
    {
      "constant": true,
      "inputs": [
        {
          "name": "_bridge",
          "type": "address"
        }
      ],
      "name": "mintedTotallyByBridge",
      "outputs": [
        {
          "name": "",
          "type": "uint256"
        }
      ],
      "payable": false,
      "stateMutability": "view",
      "type": "function"
    },
    {
      "constant": true,
      "inputs": [],
      "name": "proxyStorage",
      "outputs": [
        {
          "name": "",
          "type": "address"
        }
      ],
      "payable": false,
      "stateMutability": "view",
      "type": "function"
    }
  ],
  "bytecode": "0x608060405234801561001057600080fd5b50611520806100206000396000f3006080604052600436106100f05763ffffffff7c01000000000000000000000000000000000000000000000000000000006000350416630f3a053381146100f557806310f2ee7c146101285780631f4356e41461013d57806326cc22561461016e57806330f6eb16146101835780633d84b8c1146101a75780634476d66a146101c8578063553a5c85146101e0578063899ca7fc146101f5578063aa9fa27414610242578063ae4b1b5b14610268578063b4a523e81461027d578063db456f771461029e578063e73b9e2f146102b6578063ee8d75ff1461016e578063efdc4d01146102d7578063f91c2898146102ec575b600080fd5b34801561010157600080fd5b50610116600160a060020a03600435166103b1565b60408051918252519081900360200190f35b34801561013457600080fd5b50610116610474565b34801561014957600080fd5b50610152610479565b60408051600160a060020a039092168252519081900360200190f35b34801561017a57600080fd5b50610116610479565b34801561018f57600080fd5b50610116600160a060020a036004351660243561047e565b3480156101b357600080fd5b50610116600160a060020a036004351661054b565b3480156101d457600080fd5b506101166004356105cc565b3480156101ec57600080fd5b50610116610645565b34801561020157600080fd5b5061020a610687565b6040518082606080838360005b8381101561022f578181015183820152602001610217565b5050505090500191505060405180910390f35b34801561024e57600080fd5b50610266600435600160a060020a03602435166106b0565b005b34801561027457600080fd5b50610152610782565b34801561028957600080fd5b50610116600160a060020a03600435166107cc565b3480156102aa57600080fd5b5061015260043561084d565b3480156102c257600080fd5b50610116600160a060020a03600435166108a1565b3480156102e357600080fd5b50610116610922565b3480156102f857600080fd5b506103186024600480358281019290820135918135918201910135610951565b604051808060200180602001838103835285818151815260200191508051906020019060200280838360005b8381101561035c578181015183820152602001610344565b50505050905001838103825284818151815260200191508051906020019060200280838360005b8381101561039b578181015183820152602001610383565b5050505090500194505050505060405180910390f35b604080517f65787472615265636569766572416d6f756e7400000000000000000000000000602080830191909152600160a060020a0384168284015282518083038401815260609092019283905281516000936002938593909282918401908083835b602083106104335780518252601f199092019160209182019101610414565b51815160209384036101000a600019018019909216911617905260408051929094018290039091208652850195909552929092016000205495945050505050565b600381565b600081565b604080517f6d696e746564466f724163636f756e74496e426c6f636b000000000000000000602080830191909152600160a060020a0385168284015260608083018590528351808403909101815260809092019283905281516000936002938593909282918401908083835b602083106105095780518252601f1990920191602091820191016104ea565b51815160209384036101000a60001901801990921691161790526040805192909401829003909120865285019590955292909201600020549695505050505050565b604080517f6d696e746564466f724163636f756e7400000000000000000000000000000000602080830191909152600160a060020a038416828401528251808303840181526060909201928390528151600093600293859390928291840190808383602083106104335780518252601f199092019160209182019101610414565b604080517f6d696e746564496e426c6f636b000000000000000000000000000000000000006020808301919091528183018490528251808303840181526060909201928390528151600093600293859390928291840190808383602083106104335780518252601f199092019160209182019101610414565b604080517f6d696e746564546f74616c6c79000000000000000000000000000000000000008152815190819003600d0190206000908152600260205220545b90565b61068f61146e565b50604080516060810182526000808252602082018190529181019190915290565b60006106bb33610d3b565b15156106c657600080fd5b8215156106d257600080fd5b600160a060020a03821615156106e757600080fd5b6106f0826103b1565b90508015156107025761070282610da6565b61071b610715828563ffffffff610e1216565b83610e28565b61073d6107378461072b336108a1565b9063ffffffff610e1216565b33610eec565b6040805184815290513391600160a060020a038516917f3c798bbcf33115b42c728b8504cff11dd58736e9fa789f1cda2738db7d696b2a9181900360200190a3505050565b604080517f70726f787953746f7261676500000000000000000000000000000000000000008152815190819003600c019020600090815260046020522054600160a060020a031690565b604080517f6d696e746564546f74616c6c7942794272696467650000000000000000000000602080830191909152600160a060020a038416828401528251808303840181526060909201928390528151600093600293859390928291840190808383602083106104335780518252601f199092019160209182019101610414565b604080516000805160206114d58339815191528152815190819003600e0190206000908152600b60205290812080548390811061088657fe5b600091825260209091200154600160a060020a031692915050565b604080517f627269646765416d6f756e740000000000000000000000000000000000000000602080830191909152600160a060020a038416828401528251808303840181526060909201928390528151600093600293859390928291840190808383602083106104335780518252601f199092019160209182019101610414565b604080516000805160206114d58339815191528152815190819003600e0190206000908152600b602052205490565b6060806000808280828080808073fffffffffffffffffffffffffffffffffffffffe331461097e57600080fd5b8d8c1461098a57600080fd5b60018e1461099757600080fd5b8c8c60008181106109a457fe5b9050602002013561ffff1661ffff1660001415156109c157600080fd5b8e8e60008181106109ce57fe5b90506020020135600160a060020a031698506000600160a060020a031689600160a060020a03161415610a1a57604080516000808252602082019081528183019092529b509950610d29565b610a22610922565b9750610a3588600263ffffffff610e1216565b604051908082528060200260200182016040528015610a5e578160200160208202803883390190505b5096508651604051908082528060200260200182016040528015610a8c578160200160208202803883390190505b509550610a9889610f6d565b876000815181101515610aa757fe5b600160a060020a039092166020928302909101909101528551600090879082908110610acf57fe5b60209081029091010152865160009088906001908110610aeb57fe5b600160a060020a03909216602092830290910190910152855160009087906001908110610b1457fe5b60209081029091010152600094505b87851015610bb257610b348561084d565b9350610b3f846103b1565b9250610b4c600085610e28565b8387610b5f87600263ffffffff610e1216565b81518110610b6957fe5b600160a060020a039092166020928302909101909101528286610b9387600263ffffffff610e1216565b81518110610b9d57fe5b60209081029091010152600190940193610b23565b600094505b8651851015610c0357610bf88686815181101515610bd157fe5b906020019060200201518887815181101515610be957fe5b906020019060200201516110b2565b600190940193610bb7565b600094505b6003851015610c5f57610c19610687565b8560038110610c2457fe5b60200201519150610c34826108a1565b90506000811115610c5457610c4a600083610eec565b610c54818361136e565b600190940193610c08565b610c67611434565b7fb747d4e9a0b39cc47496d84b42e4066ba8b8a0b89776528bcec4ac2997e224538787604051808060200180602001838103835285818151815260200191508051906020019060200280838360005b83811015610cce578181015183820152602001610cb6565b50505050905001838103825284818151815260200191508051906020019060200280838360005b83811015610d0d578181015183820152602001610cf5565b5050505090500194505050505060405180910390a186869a509a505b50505050505050505094509492505050565b6000610d4561146e565b6000610d4f610687565b9150600090505b6003811015610d9a57818160038110610d6b57fe5b6020020151600160a060020a031684600160a060020a03161415610d925760019250610d9f565b600101610d56565b600092505b5050919050565b604080516000805160206114d58339815191528152815190819003600e0190206000908152600b60209081529181208054600181018255908252919020018054600160a060020a0390921673ffffffffffffffffffffffffffffffffffffffff19909216919091179055565b600082820183811015610e2157fe5b9392505050565b604080517f65787472615265636569766572416d6f756e7400000000000000000000000000602080830191909152600160a060020a0384168284015282518083038401815260609092019283905281518593600293600093909282918401908083835b60208310610eaa5780518252601f199092019160209182019101610e8b565b51815160209384036101000a60001901801990921691161790526040805192909401829003909120865285019590955292909201600020939093555050505050565b604080517f627269646765416d6f756e740000000000000000000000000000000000000000602080830191909152600160a060020a03841682840152825180830384018152606090920192839052815185936002936000939092829184019080838360208310610eaa5780518252601f199092019160209182019101610e8b565b6000806000610f7a610782565b600160a060020a0316639a5737866040518163ffffffff167c0100000000000000000000000000000000000000000000000000000000028152600401602060405180830381600087803b158015610fd057600080fd5b505af1158015610fe4573d6000803e3d6000fd5b505050506040513d6020811015610ffa57600080fd5b5051604080517f7cded930000000000000000000000000000000000000000000000000000000008152600160a060020a038781166004830152915192945090841691637cded930916024808201926020929091908290030181600087803b15801561106457600080fd5b505af1158015611078573d6000803e3d6000fd5b505050506040513d602081101561108e57600080fd5b50519050600160a060020a03811615156110a857836110aa565b805b949350505050565b604080517f6d696e746564466f724163636f756e74496e426c6f636b000000000000000000602080830191909152600160a060020a0384168284015243606080840191909152835180840390910181526080909201928390528151600093918291908401908083835b6020831061113a5780518252601f19909201916020918201910161111b565b51815160209384036101000a6000190180199092169116179052604080519290940182900382206000818152600283528590208a90557f6d696e746564466f724163636f756e740000000000000000000000000000000083830152600160a060020a0389168386015284518084038601815260609093019485905282519097509195509293508392850191508083835b602083106111e95780518252601f1990920191602091820191016111ca565b51815160209384036101000a6000190180199092169116179052604080519290940182900390912060008181526002909252929020549194506112329350909150859050610e12565b6000828152600260209081526040918290209290925580517f6d696e746564496e426c6f636b00000000000000000000000000000000000000818401524381830152815180820383018152606090910191829052805190928291908401908083835b602083106112b35780518252601f199092019160209182019101611294565b51815160209384036101000a6000190180199092169116179052604080519290940182900390912060008181526002909252929020549194506112fc9350909150859050610e12565b60009182526002602081815260408085209390935582517f6d696e746564546f74616c6c79000000000000000000000000000000000000008152835190819003600d01902080855291905291205461135a908463ffffffff610e1216565b600091825260026020526040909120555050565b604080517f6d696e746564546f74616c6c7942794272696467650000000000000000000000602080830191909152600160a060020a038416828401528251808303840181526060909201928390528151600093918291908401908083835b602083106113eb5780518252601f1990920191602091820191016113cc565b51815160209384036101000a60001901801990921691161790526040805192909401829003909120600081815260029092529290205491945061135a9350909150859050610e12565b604080516000805160206114d58339815191528152815190819003600e0190206000908152600b60205290812061146b908261148d565b50565b6060604051908101604052806003906020820280388339509192915050565b8154818355818111156114b1576000838152602090206114b19181019083016114b6565b505050565b61068491905b808211156114d057600081556001016114bc565b509056006578747261526563656976657273000000000000000000000000000000000000a165627a7a72305820cf445a346e61332b66beea2f8cde1f9e8925b54eaa072825e68b7fef6898da690029",
  "source": "pragma solidity ^0.4.24;\n\nimport \"./interfaces/IRewardByBlock.sol\";\nimport \"./interfaces/IKeysManager.sol\";\nimport \"./interfaces/IProxyStorage.sol\";\nimport \"./eternal-storage/EternalStorage.sol\";\nimport \"./libs/SafeMath.sol\";\n\n\ncontract RewardByBlock is EternalStorage, IRewardByBlock {\n    using SafeMath for uint256;\n\n    bytes32 internal constant EXTRA_RECEIVERS = keccak256(\"extraReceivers\");\n    bytes32 internal constant PROXY_STORAGE = keccak256(\"proxyStorage\");\n    bytes32 internal constant MINTED_TOTALLY = keccak256(\"mintedTotally\");\n\n    bytes32 internal constant BRIDGE_AMOUNT = \"bridgeAmount\";\n    bytes32 internal constant EXTRA_RECEIVER_AMOUNT = \"extraReceiverAmount\";\n    bytes32 internal constant MINTED_FOR_ACCOUNT = \"mintedForAccount\";\n    bytes32 internal constant MINTED_FOR_ACCOUNT_IN_BLOCK = \"mintedForAccountInBlock\";\n    bytes32 internal constant MINTED_IN_BLOCK = \"mintedInBlock\";\n    bytes32 internal constant MINTED_TOTALLY_BY_BRIDGE = \"mintedTotallyByBridge\";\n\n    // solhint-disable const-name-snakecase\n    // These values must be changed before deploy\n    uint256 public constant blockRewardAmount = 0;\n    uint256 public constant emissionFundsAmount = 0;\n    address public constant emissionFunds = 0x0000000000000000000000000000000000000000;\n    uint256 public constant bridgesAllowedLength = 3;\n    // solhint-enable const-name-snakecase\n\n    event AddedReceiver(uint256 amount, address indexed receiver, address indexed bridge);\n    event Rewarded(address[] receivers, uint256[] rewards);\n\n    modifier onlyBridgeContract {\n        require(_isBridgeContract(msg.sender));\n        _;\n    }\n\n    modifier onlySystem {\n        require(msg.sender == 0xffffFFFfFFffffffffffffffFfFFFfffFFFfFFfE);\n        _;\n    }\n\n    function addExtraReceiver(uint256 _amount, address _receiver)\n        external\n        onlyBridgeContract\n    {\n        require(_amount != 0);\n        require(_receiver != address(0));\n        uint256 oldAmount = extraReceiverAmount(_receiver);\n        if (oldAmount == 0) {\n            _addExtraReceiver(_receiver);\n        }\n        _setExtraReceiverAmount(oldAmount.add(_amount), _receiver);\n        _setBridgeAmount(bridgeAmount(msg.sender).add(_amount), msg.sender);\n        emit AddedReceiver(_amount, _receiver, msg.sender);\n    }\n\n    function reward(address[] benefactors, uint16[] kind)\n        external\n        onlySystem\n        returns (address[], uint256[])\n    {\n        require(benefactors.length == kind.length);\n        require(benefactors.length == 1);\n        require(kind[0] == 0);\n\n        address miningKey = benefactors[0];\n\n        if (miningKey == address(0)) {\n            // Return empty arrays\n            return (new address[](0), new uint256[](0));\n        }\n\n        uint256 extraLength = extraReceiversLength();\n\n        address[] memory receivers = new address[](extraLength.add(2));\n        uint256[] memory rewards = new uint256[](receivers.length);\n\n        receivers[0] = _getPayoutByMining(miningKey);\n        rewards[0] = blockRewardAmount;\n        receivers[1] = emissionFunds;\n        rewards[1] = emissionFundsAmount;\n\n        uint256 i;\n        \n        for (i = 0; i < extraLength; i++) {\n            address extraAddress = extraReceiverByIndex(i);\n            uint256 extraAmount = extraReceiverAmount(extraAddress);\n            _setExtraReceiverAmount(0, extraAddress);\n            receivers[i.add(2)] = extraAddress;\n            rewards[i.add(2)] = extraAmount;\n        }\n\n        for (i = 0; i < receivers.length; i++) {\n            _setMinted(rewards[i], receivers[i]);\n        }\n\n        for (i = 0; i < bridgesAllowedLength; i++) {\n            address bridgeAddress = bridgesAllowed()[i];\n            uint256 bridgeAmountForBlock = bridgeAmount(bridgeAddress);\n\n            if (bridgeAmountForBlock > 0) {\n                _setBridgeAmount(0, bridgeAddress);\n                _addMintedTotallyByBridge(bridgeAmountForBlock, bridgeAddress);\n            }\n        }\n\n        _clearExtraReceivers();\n\n        emit Rewarded(receivers, rewards);\n    \n        return (receivers, rewards);\n    }\n\n    function bridgesAllowed() public pure returns(address[bridgesAllowedLength]) {\n        // These values must be changed before deploy\n        return([\n            address(0x0000000000000000000000000000000000000000),\n            address(0x0000000000000000000000000000000000000000),\n            address(0x0000000000000000000000000000000000000000)\n        ]);\n    }\n\n    function bridgeAmount(address _bridge) public view returns(uint256) {\n        return uintStorage[\n            keccak256(abi.encode(BRIDGE_AMOUNT, _bridge))\n        ];\n    }\n\n    function extraReceiverByIndex(uint256 _index) public view returns(address) {\n        return addressArrayStorage[EXTRA_RECEIVERS][_index];\n    }\n\n    function extraReceiverAmount(address _receiver) public view returns(uint256) {\n        return uintStorage[\n            keccak256(abi.encode(EXTRA_RECEIVER_AMOUNT, _receiver))\n        ];\n    }\n\n    function extraReceiversLength() public view returns(uint256) {\n        return addressArrayStorage[EXTRA_RECEIVERS].length;\n    }\n\n    function mintedForAccount(address _account)\n        public\n        view\n        returns(uint256)\n    {\n        return uintStorage[\n            keccak256(abi.encode(MINTED_FOR_ACCOUNT, _account))\n        ];\n    }\n\n    function mintedForAccountInBlock(address _account, uint256 _blockNumber)\n        public\n        view\n        returns(uint256)\n    {\n        return uintStorage[\n            keccak256(abi.encode(MINTED_FOR_ACCOUNT_IN_BLOCK, _account, _blockNumber))\n        ];\n    }\n\n    function mintedInBlock(uint256 _blockNumber) public view returns(uint256) {\n        return uintStorage[\n            keccak256(abi.encode(MINTED_IN_BLOCK, _blockNumber))\n        ];\n    }\n\n    function mintedTotally() public view returns(uint256) {\n        return uintStorage[MINTED_TOTALLY];\n    }\n\n    function mintedTotallyByBridge(address _bridge) public view returns(uint256) {\n        return uintStorage[\n            keccak256(abi.encode(MINTED_TOTALLY_BY_BRIDGE, _bridge))\n        ];\n    }\n\n    function proxyStorage() public view returns(address) {\n        return addressStorage[PROXY_STORAGE];\n    }\n\n    function _addExtraReceiver(address _receiver) private {\n        addressArrayStorage[EXTRA_RECEIVERS].push(_receiver);\n    }\n\n    function _addMintedTotallyByBridge(uint256 _amount, address _bridge) private {\n        bytes32 hash = keccak256(abi.encode(MINTED_TOTALLY_BY_BRIDGE, _bridge));\n        uintStorage[hash] = uintStorage[hash].add(_amount);\n    }\n\n    function _clearExtraReceivers() private {\n        addressArrayStorage[EXTRA_RECEIVERS].length = 0;\n    }\n\n    function _getPayoutByMining(address _miningKey)\n        private\n        view\n        returns (address)\n    {\n        IKeysManager keysManager = IKeysManager(\n            IProxyStorage(proxyStorage()).getKeysManager()\n        );\n        address payoutKey = keysManager.getPayoutByMining(_miningKey);\n        return (payoutKey != address(0)) ? payoutKey : _miningKey;\n    }\n\n    function _isBridgeContract(address _addr) private pure returns(bool) {\n        address[bridgesAllowedLength] memory bridges = bridgesAllowed();\n        \n        for (uint256 i = 0; i < bridges.length; i++) {\n            if (_addr == bridges[i]) {\n                return true;\n            }\n        }\n\n        return false;\n    }\n\n    function _isMiningActive(address _miningKey)\n        private\n        view\n        returns (bool)\n    {\n        IKeysManager keysManager = IKeysManager(\n            IProxyStorage(proxyStorage()).getKeysManager()\n        );\n        return keysManager.isMiningActive(_miningKey);\n    }\n\n    function _setBridgeAmount(uint256 _amount, address _bridge) private {\n        uintStorage[\n            keccak256(abi.encode(BRIDGE_AMOUNT, _bridge))\n        ] = _amount;\n    }\n\n    function _setExtraReceiverAmount(uint256 _amount, address _receiver) private {\n        uintStorage[\n            keccak256(abi.encode(EXTRA_RECEIVER_AMOUNT, _receiver))\n        ] = _amount;\n    }\n\n    function _setMinted(uint256 _amount, address _account) private {\n        bytes32 hash;\n\n        hash = keccak256(abi.encode(MINTED_FOR_ACCOUNT_IN_BLOCK, _account, block.number));\n        uintStorage[hash] = _amount;\n\n        hash = keccak256(abi.encode(MINTED_FOR_ACCOUNT, _account));\n        uintStorage[hash] = uintStorage[hash].add(_amount);\n\n        hash = keccak256(abi.encode(MINTED_IN_BLOCK, block.number));\n        uintStorage[hash] = uintStorage[hash].add(_amount);\n\n        hash = MINTED_TOTALLY;\n        uintStorage[hash] = uintStorage[hash].add(_amount);\n    }\n}\n",
  "sourcePath": "/home/moc/poa-network-consensus-contracts/contracts/RewardByBlock.sol",
  "compiler": {
    "name": "solc",
    "version": "0.4.24+commit.e67f0147.Emscripten.clang"
  },
  "schemaVersion": "2.0.1",
  "updatedAt": "2021-11-26T13:41:54.298Z"
}