{
  "contractName": "VotingToManageEmissionFunds",
  "abi": [
    {
      "constant": true,
      "inputs": [],
      "name": "minBallotDuration",
      "outputs": [
        {
          "name": "",
          "type": "uint256"
        }
      ],
      "payable": false,
      "stateMutability": "view",
      "type": "function"
    },
    {
      "constant": true,
      "inputs": [
        {
          "name": "_id",
          "type": "uint256"
        }
      ],
      "name": "getQuorumState",
      "outputs": [
        {
          "name": "",
          "type": "uint256"
        }
      ],
      "payable": false,
      "stateMutability": "view",
      "type": "function"
    },
    {
      "constant": true,
      "inputs": [
        {
          "name": "_id",
          "type": "uint256"
        },
        {
          "name": "_votingKey",
          "type": "address"
        }
      ],
      "name": "isValidVote",
      "outputs": [
        {
          "name": "",
          "type": "bool"
        }
      ],
      "payable": false,
      "stateMutability": "view",
      "type": "function"
    },
    {
      "constant": true,
      "inputs": [],
      "name": "initDisabled",
      "outputs": [
        {
          "name": "",
          "type": "bool"
        }
      ],
      "payable": false,
      "stateMutability": "view",
      "type": "function"
    },
    {
      "constant": true,
      "inputs": [],
      "name": "getTime",
      "outputs": [
        {
          "name": "",
          "type": "uint256"
        }
      ],
      "payable": false,
      "stateMutability": "view",
      "type": "function"
    },
    {
      "constant": true,
      "inputs": [
        {
          "name": "_id",
          "type": "uint256"
        }
      ],
      "name": "isActive",
      "outputs": [
        {
          "name": "",
          "type": "bool"
        }
      ],
      "payable": false,
      "stateMutability": "view",
      "type": "function"
    },
    {
      "constant": true,
      "inputs": [],
      "name": "maxBallotDuration",
      "outputs": [
        {
          "name": "",
          "type": "uint256"
        }
      ],
      "payable": false,
      "stateMutability": "pure",
      "type": "function"
    },
    {
      "constant": true,
      "inputs": [],
      "name": "proxyStorage",
      "outputs": [
        {
          "name": "",
          "type": "address"
        }
      ],
      "payable": false,
      "stateMutability": "view",
      "type": "function"
    },
    {
      "constant": true,
      "inputs": [
        {
          "name": "_id",
          "type": "uint256"
        }
      ],
      "name": "getMinThresholdOfVoters",
      "outputs": [
        {
          "name": "",
          "type": "uint256"
        }
      ],
      "payable": false,
      "stateMutability": "view",
      "type": "function"
    },
    {
      "constant": true,
      "inputs": [
        {
          "name": "_id",
          "type": "uint256"
        },
        {
          "name": "_votingKey",
          "type": "address"
        }
      ],
      "name": "hasAlreadyVoted",
      "outputs": [
        {
          "name": "",
          "type": "bool"
        }
      ],
      "payable": false,
      "stateMutability": "view",
      "type": "function"
    },
    {
      "constant": true,
      "inputs": [
        {
          "name": "_id",
          "type": "uint256"
        },
        {
          "name": "_miningKey",
          "type": "address"
        }
      ],
      "name": "areOldMiningKeysVoted",
      "outputs": [
        {
          "name": "",
          "type": "bool"
        }
      ],
      "payable": false,
      "stateMutability": "view",
      "type": "function"
    },
    {
      "constant": true,
      "inputs": [],
      "name": "nextBallotId",
      "outputs": [
        {
          "name": "",
          "type": "uint256"
        }
      ],
      "payable": false,
      "stateMutability": "view",
      "type": "function"
    },
    {
      "anonymous": false,
      "inputs": [
        {
          "indexed": true,
          "name": "id",
          "type": "uint256"
        },
        {
          "indexed": true,
          "name": "votingKey",
          "type": "address"
        }
      ],
      "name": "BallotCanceled",
      "type": "event"
    },
    {
      "anonymous": false,
      "inputs": [
        {
          "indexed": true,
          "name": "id",
          "type": "uint256"
        },
        {
          "indexed": true,
          "name": "ballotType",
          "type": "uint256"
        },
        {
          "indexed": true,
          "name": "creator",
          "type": "address"
        }
      ],
      "name": "BallotCreated",
      "type": "event"
    },
    {
      "anonymous": false,
      "inputs": [
        {
          "indexed": true,
          "name": "id",
          "type": "uint256"
        },
        {
          "indexed": true,
          "name": "voter",
          "type": "address"
        }
      ],
      "name": "BallotFinalized",
      "type": "event"
    },
    {
      "anonymous": false,
      "inputs": [
        {
          "indexed": true,
          "name": "id",
          "type": "uint256"
        },
        {
          "indexed": false,
          "name": "decision",
          "type": "uint256"
        },
        {
          "indexed": true,
          "name": "voter",
          "type": "address"
        },
        {
          "indexed": false,
          "name": "time",
          "type": "uint256"
        },
        {
          "indexed": false,
          "name": "voterMiningKey",
          "type": "address"
        }
      ],
      "name": "Vote",
      "type": "event"
    },
    {
      "constant": true,
      "inputs": [],
      "name": "ballotCancelingThreshold",
      "outputs": [
        {
          "name": "",
          "type": "uint256"
        }
      ],
      "payable": false,
      "stateMutability": "pure",
      "type": "function"
    },
    {
      "constant": true,
      "inputs": [
        {
          "name": "_id",
          "type": "uint256"
        }
      ],
      "name": "canBeFinalizedNow",
      "outputs": [
        {
          "name": "",
          "type": "bool"
        }
      ],
      "payable": false,
      "stateMutability": "view",
      "type": "function"
    },
    {
      "constant": false,
      "inputs": [],
      "name": "cancelNewBallot",
      "outputs": [],
      "payable": false,
      "stateMutability": "nonpayable",
      "type": "function"
    },
    {
      "constant": false,
      "inputs": [
        {
          "name": "_startTime",
          "type": "uint256"
        },
        {
          "name": "_endTime",
          "type": "uint256"
        },
        {
          "name": "_receiver",
          "type": "address"
        },
        {
          "name": "_memo",
          "type": "string"
        }
      ],
      "name": "createBallot",
      "outputs": [],
      "payable": false,
      "stateMutability": "nonpayable",
      "type": "function"
    },
    {
      "constant": true,
      "inputs": [],
      "name": "distributionThreshold",
      "outputs": [
        {
          "name": "",
          "type": "uint256"
        }
      ],
      "payable": false,
      "stateMutability": "view",
      "type": "function"
    },
    {
      "constant": true,
      "inputs": [],
      "name": "emissionFunds",
      "outputs": [
        {
          "name": "",
          "type": "address"
        }
      ],
      "payable": false,
      "stateMutability": "view",
      "type": "function"
    },
    {
      "constant": true,
      "inputs": [],
      "name": "emissionReleaseThreshold",
      "outputs": [
        {
          "name": "",
          "type": "uint256"
        }
      ],
      "payable": false,
      "stateMutability": "view",
      "type": "function"
    },
    {
      "constant": true,
      "inputs": [],
      "name": "emissionReleaseTime",
      "outputs": [
        {
          "name": "",
          "type": "uint256"
        }
      ],
      "payable": false,
      "stateMutability": "view",
      "type": "function"
    },
    {
      "constant": false,
      "inputs": [
        {
          "name": "_id",
          "type": "uint256"
        }
      ],
      "name": "finalize",
      "outputs": [],
      "payable": false,
      "stateMutability": "nonpayable",
      "type": "function"
    },
    {
      "constant": true,
      "inputs": [
        {
          "name": "_id",
          "type": "uint256"
        }
      ],
      "name": "getBallotInfo",
      "outputs": [
        {
          "name": "creationTime",
          "type": "uint256"
        },
        {
          "name": "startTime",
          "type": "uint256"
        },
        {
          "name": "endTime",
          "type": "uint256"
        },
        {
          "name": "isCanceled",
          "type": "bool"
        },
        {
          "name": "isFinalized",
          "type": "bool"
        },
        {
          "name": "creator",
          "type": "address"
        },
        {
          "name": "memo",
          "type": "string"
        },
        {
          "name": "amount",
          "type": "uint256"
        },
        {
          "name": "burnVotes",
          "type": "uint256"
        },
        {
          "name": "freezeVotes",
          "type": "uint256"
        },
        {
          "name": "sendVotes",
          "type": "uint256"
        },
        {
          "name": "receiver",
          "type": "address"
        }
      ],
      "payable": false,
      "stateMutability": "view",
      "type": "function"
    },
    {
      "constant": true,
      "inputs": [
        {
          "name": "_id",
          "type": "uint256"
        }
      ],
      "name": "getTotalVoters",
      "outputs": [
        {
          "name": "",
          "type": "uint256"
        }
      ],
      "payable": false,
      "stateMutability": "view",
      "type": "function"
    },
    {
      "constant": false,
      "inputs": [
        {
          "name": "_emissionReleaseTime",
          "type": "uint256"
        },
        {
          "name": "_emissionReleaseThreshold",
          "type": "uint256"
        },
        {
          "name": "_distributionThreshold",
          "type": "uint256"
        },
        {
          "name": "_minBallotDuration",
          "type": "uint256"
        },
        {
          "name": "_emissionFunds",
          "type": "address"
        }
      ],
      "name": "init",
      "outputs": [],
      "payable": false,
      "stateMutability": "nonpayable",
      "type": "function"
    },
    {
      "constant": true,
      "inputs": [],
      "name": "noActiveBallotExists",
      "outputs": [
        {
          "name": "",
          "type": "bool"
        }
      ],
      "payable": false,
      "stateMutability": "view",
      "type": "function"
    },
    {
      "constant": false,
      "inputs": [],
      "name": "refreshEmissionReleaseTime",
      "outputs": [
        {
          "name": "",
          "type": "uint256"
        }
      ],
      "payable": false,
      "stateMutability": "nonpayable",
      "type": "function"
    },
    {
      "constant": false,
      "inputs": [
        {
          "name": "_id",
          "type": "uint256"
        },
        {
          "name": "_choice",
          "type": "uint256"
        }
      ],
      "name": "vote",
      "outputs": [],
      "payable": false,
      "stateMutability": "nonpayable",
      "type": "function"
    }
  ],
  "bytecode": "0x608060405234801561001057600080fd5b506134d7806100206000396000f3006080604052600436106101445763ffffffff60e060020a6000350416629b38fa811461014957806302a99b9d1461017557806305261aea1461019c57806308dbb18e146101b6578063141bd92a146101ce5780631923e5d4146102d75780631f4356e4146102ec578063236ae0251461031d578063288fa739146103325780632b633f771461035657806343d3a4c11461036b57806352a3693814610383578063557ed1ba1461039857806355ca92f8146103ad57806372b556c7146104195780637ea957331461042e57806382afd23b1461044357806385cb2e6e1461045b57806396bc6ef014610470578063a8d1fcff14610485578063ae4b1b5b1461049a578063b384abef146104af578063c088003d146104ca578063c14bfd29146104e2578063c7dea77714610506578063dc6bfbb51461052a578063fa6158b61461053f575b600080fd5b34801561015557600080fd5b5061016160043561056c565b604080519115158252519081900360200190f35b34801561018157600080fd5b5061018a610640565b60408051918252519081900360200190f35b3480156101a857600080fd5b506101b4600435610682565b005b3480156101c257600080fd5b5061018a60043561073d565b3480156101da57600080fd5b506101e6600435610811565b604051808d81526020018c81526020018b81526020018a1515151581526020018915151515815260200188600160a060020a0316600160a060020a031681526020018060200187815260200186815260200185815260200184815260200183600160a060020a0316600160a060020a03168152602001828103825288818151815260200191508051906020019080838360005b83811015610291578181015183820152602001610279565b50505050905090810190601f1680156102be5780820380516001836020036101000a031916815260200191505b509d505050505050505050505050505060405180910390f35b3480156102e357600080fd5b506101616108b7565b3480156102f857600080fd5b506103016108fb565b60408051600160a060020a039092168252519081900360200190f35b34801561032957600080fd5b5061018a610945565b34801561033e57600080fd5b50610161600435600160a060020a0360243516610986565b34801561036257600080fd5b5061018a610a5a565b34801561037757600080fd5b5061018a600435610a60565b34801561038f57600080fd5b50610161610a95565b3480156103a457600080fd5b5061018a610ad9565b3480156103b957600080fd5b50604080516020601f6064356004818101359283018490048402850184019095528184526101b4948035946024803595600160a060020a03604435169536956084949301918190840183828082843750949750610add9650505050505050565b34801561042557600080fd5b5061018a610d0c565b34801561043a57600080fd5b5061018a610d4d565b34801561044f57600080fd5b50610161600435610d8e565b34801561046757600080fd5b5061018a610dc3565b34801561047c57600080fd5b5061018a610e63565b34801561049157600080fd5b506101b4610e6a565b3480156104a657600080fd5b50610301610fbe565b3480156104bb57600080fd5b506101b4600435602435611008565b3480156104d657600080fd5b5061018a600435611386565b3480156104ee57600080fd5b50610161600435600160a060020a0360243516611418565b34801561051257600080fd5b50610161600435600160a060020a03602435166114d8565b34801561053657600080fd5b5061018a611637565b34801561054b57600080fd5b506101b4600435602435604435606435600160a060020a0360843516611678565b6000610576611637565b82106105845750600061063b565b61059d6001610591611637565b9063ffffffff61182216565b82146105ab5750600061063b565b6105b3610ad9565b6105bc83611834565b11156105ca5750600061063b565b6105d382610d8e565b156105e05750600061063b565b6105e9826118c6565b156105f65750600061063b565b6105ff8261199d565b1561060c5750600061063b565b6106146108b7565b156106215750600061063b565b61062a82611a2f565b156106375750600061063b565b5060015b919050565b604080517f6d696e42616c6c6f744475726174696f6e000000000000000000000000000000815281519081900360110190206000908152600260205220545b90565b3361068b611a45565b600160a060020a03166362b46d64826040518263ffffffff1660e060020a0281526004018082600160a060020a0316600160a060020a03168152602001915050602060405180830381600087803b1580156106e557600080fd5b505af11580156106f9573d6000803e3d6000fd5b505050506040513d602081101561070f57600080fd5b5051151561071c57600080fd5b6107258261056c565b151561073057600080fd5b61073982611abd565b5050565b6040805160008051602061348c8339815191526020808301919091528183018490527f71756f72756d53746174650000000000000000000000000000000000000000006060808401919091528351808403909101815260809092019283905281516000936002938593909282918401908083835b602083106107d05780518252601f1990920191602091820191016107b1565b51815160209384036101000a600019018019909216911617905260408051929094018290039091208652850195909552929092016000205495945050505050565b6000806000806000806060600080600080600061082d8d611daf565b9b506108388d611834565b9a506108438d611e41565b995061084e8d6118c6565b98506108598d61199d565b97506108648d611ed3565b965061086f8d611fb0565b955061087a8d612125565b94506108858d6121b7565b93506108908d612249565b925061089b8d6122db565b91506108a68d61236d565b905091939597999b5091939597999b565b604080517f6e6f41637469766542616c6c6f744578697374730000000000000000000000008152815190819003601401902060009081526006602052205460ff1690565b604080517f656d697373696f6e46756e6473000000000000000000000000000000000000008152815190819003600d019020600090815260046020522054600160a060020a031690565b604080517f646973747269627574696f6e5468726573686f6c6400000000000000000000008152815190819003601501902060009081526002602052205490565b600080600080610994611a45565b600160a060020a0316632d260227866040518263ffffffff1660e060020a0281526004018082600160a060020a0316600160a060020a03168152602001915050602060405180830381600087803b1580156109ee57600080fd5b505af1158015610a02573d6000803e3d6000fd5b505050506040513d6020811015610a1857600080fd5b50519250610a2686846123ff565b159150610a3386846114d8565b159050818015610a475750610a4786610d8e565b8015610a505750805b9695505050505050565b61038490565b6000610a8f610a6e83612249565b610a83610a7a856121b7565b610a83866122db565b9063ffffffff6124e616565b92915050565b604080517f696e697444697361626c656400000000000000000000000000000000000000008152815190819003600c01902060009081526006602052205460ff1690565b4290565b60008060008033610aec611a45565b600160a060020a03166362b46d64826040518263ffffffff1660e060020a0281526004018082600160a060020a0316600160a060020a03168152602001915050602060405180830381600087803b158015610b4657600080fd5b505af1158015610b5a573d6000803e3d6000fd5b505050506040513d6020811015610b7057600080fd5b50511515610b7d57600080fd5b610b85610ad9565b9450610b8f610d0c565b9350610b99610dc3565b925082851015610ba857600080fd5b610bb0610945565b610bc0898563ffffffff61182216565b1115610bcb57600080fd5b600160a060020a0387161515610be057600080fd5b610be86108b7565b1515610bf357600080fd5b610c9060068a8a896001610c05611a45565b600160a060020a0316632d260227336040518263ffffffff1660e060020a0281526004018082600160a060020a0316600160a060020a03168152602001915050602060405180830381600087803b158015610c5f57600080fd5b505af1158015610c73573d6000803e3d6000fd5b505050506040513d6020811015610c8957600080fd5b50516124fc565b9150610c9d826000612638565b610ca882600061270d565b610cb382600061279f565b610cbd8288612831565b610cd882610cc96108fb565b600160a060020a03163161292e565b610ce260006129c0565b610cec8286612a10565b610cf68285612aa2565b610d01826000612b34565b505050505050505050565b604080517f656d697373696f6e52656c6561736554696d65000000000000000000000000008152815190819003601301902060009081526002602052205490565b604080517f656d697373696f6e52656c656173655468726573686f6c6400000000000000008152815190819003601801902060009081526002602052205490565b6000610d98610ad9565b610da183611834565b11158015610a8f5750610db382611e41565b610dbb610ad9565b111592915050565b6000806000806000610dd3610a95565b1515610dde57600080fd5b610de6610d0c565b9350610df0610ad9565b925083831115610e5a57610e02610d4d565b9150610e2482610e18858763ffffffff61182216565b9063ffffffff612c1516565b90506000811115610e5a57610e4f610e42838363ffffffff612c2c16565b859063ffffffff6124e616565b9350610e5a84612c57565b50919392505050565b6212750090565b6000610e796001610591611637565b9050610e8481611ed3565b600160a060020a0316610e95611a45565b600160a060020a0316632d260227336040518263ffffffff1660e060020a0281526004018082600160a060020a0316600160a060020a03168152602001915050602060405180830381600087803b158015610eef57600080fd5b505af1158015610f03573d6000803e3d6000fd5b505050506040513d6020811015610f1957600080fd5b5051600160a060020a031614610f2e57600080fd5b610f3781611a2f565b1515610f4257600080fd5b610f4b816118c6565b15610f5557600080fd5b610f5e8161199d565b15610f6857600080fd5b610f73816001612b34565b610f7d60016129c0565b610f8e610f8982612c97565b612c57565b604051339082907feb7821930e09b446fdcdb7528c42df382ded62ddcb26a92d5b7970b3a3ea974490600090a350565b604080517f70726f787953746f7261676500000000000000000000000000000000000000008152815190819003600c019020600090815260046020522054600160a060020a031690565b60008033611014611a45565b600160a060020a03166362b46d64826040518263ffffffff1660e060020a0281526004018082600160a060020a0316600160a060020a03168152602001915050602060405180830381600087803b15801561106e57600080fd5b505af1158015611082573d6000803e3d6000fd5b505050506040513d602081101561109857600080fd5b505115156110a557600080fd5b6110ae856118c6565b156110b857600080fd5b6110c18561199d565b156110cb57600080fd5b6110d58533610986565b15156110e057600080fd5b600184141561110557611100856110fb6001610a83896122db565b612638565b611145565b600284141561112557611100856111206001610a83896121b7565b61270d565b600384141561014457611100856111406001610a8389612249565b61279f565b61114d611a45565b600160a060020a0316632d260227336040518263ffffffff1660e060020a0281526004018082600160a060020a0316600160a060020a03168152602001915050602060405180830381600087803b1580156111a757600080fd5b505af11580156111bb573d6000803e3d6000fd5b505050506040513d60208110156111d157600080fd5b505192506111df8584612d29565b33857f1fad44b452b708aff155b3190058d690f8a0f2e2463fc757b96d1ce1877d0ccc8661120b610ad9565b604080519283526020830191909152600160a060020a03881682820152519081900360600190a361123a610fbe565b600160a060020a0316638b8414c46040518163ffffffff1660e060020a028152600401602060405180830381600087803b15801561127757600080fd5b505af115801561128b573d6000803e3d6000fd5b505050506040513d60208110156112a157600080fd5b5051604080517fa87563370000000000000000000000000000000000000000000000000000000081529051600160a060020a039092169163a8756337916004808201926020929091908290030181600087803b15801561130057600080fd5b505af1158015611314573d6000803e3d6000fd5b505050506040513d602081101561132a57600080fd5b505191508161133886610a60565b1015801561134c575061134a85611a2f565b155b8015611371575061135b610640565b61136f61136787611834565b610591610ad9565b115b1561137f5761137f85611abd565b5050505050565b6040805160008051602061348c8339815191526020808301919091528183018490527f6d696e5468726573686f6c644f66566f74657273000000000000000000000000606080840191909152835180840390910181526080909201928390528151600093600293859390928291840190808383602083106107d05780518252601f1990920191602091820191016107b1565b600080600160a060020a038316151561143457600091506114d1565b61143c611a45565b600160a060020a0316632d260227846040518263ffffffff1660e060020a0281526004018082600160a060020a0316600160a060020a03168152602001915050602060405180830381600087803b15801561149657600080fd5b505af11580156114aa573d6000803e3d6000fd5b505050506040513d60208110156114c057600080fd5b505190506114ce84826123ff565b91505b5092915050565b600081818080806114e7611a45565b935083600160a060020a031663b9bdaa076040518163ffffffff1660e060020a028152600401602060405180830381600087803b15801561152757600080fd5b505af115801561153b573d6000803e3d6000fd5b505050506040513d602081101561155157600080fd5b50519250600091505b828210156116275783600160a060020a031663a5a36dee866040518263ffffffff1660e060020a0281526004018082600160a060020a0316600160a060020a03168152602001915050602060405180830381600087803b1580156115bd57600080fd5b505af11580156115d1573d6000803e3d6000fd5b505050506040513d60208110156115e757600080fd5b50519050600160a060020a0381161515611604576000955061162c565b61160e88826123ff565b1561161c576001955061162c565b93506001018361155a565b600095505b505050505092915050565b604080517f6e65787442616c6c6f74496400000000000000000000000000000000000000008152815190819003600c01902060009081526002602052205490565b604080517f6f776e65720000000000000000000000000000000000000000000000000000008152815190819003600501902060009081526004602052205433600160a060020a03909116146116cc57600080fd5b6116d4610ad9565b85116116df57600080fd5b6116e7610a5a565b83116116f257600080fd5b8284116116fe57600080fd5b82821061170a57600080fd5b600160a060020a038116151561171f57600080fd5b61172882612dcb565b61173260016129c0565b61173b85612c57565b604080517f656d697373696f6e46756e6473000000000000000000000000000000000000008152815190819003600d0181206000908152600460209081528382208054600160a060020a0390961673ffffffffffffffffffffffffffffffffffffffff19909616959095179094557f656d697373696f6e52656c656173655468726573686f6c6400000000000000008252825191829003601801822081526002808552838220979097557f646973747269627574696f6e5468726573686f6c6400000000000000000000008252825191829003601501909120815294909152909220555050565b60008282111561182e57fe5b50900390565b6040805160008051602061348c8339815191526020808301919091528183018490527f737461727454696d650000000000000000000000000000000000000000000000606080840191909152835180840390910181526080909201928390528151600093600293859390928291840190808383602083106107d05780518252601f1990920191602091820191016107b1565b6040805160008051602061348c8339815191526020808301919091528183018490527f697343616e63656c6564000000000000000000000000000000000000000000006060808401919091528351808403909101815260809092019283905281516000936006938593909282918401908083835b602083106119595780518252601f19909201916020918201910161193a565b51815160209384036101000a600019018019909216911617905260408051929094018290039091208652850195909552929092016000205460ff1695945050505050565b6040805160008051602061348c8339815191526020808301919091528183018490527f697346696e616c697a6564000000000000000000000000000000000000000000606080840191909152835180840390910181526080909201928390528151600093600693859390928291840190808383602083106119595780518252601f19909201916020918201910161193a565b6000611a39610a5a565b610dbb61136784611daf565b6000611a4f610fbe565b600160a060020a0316639a5737866040518163ffffffff1660e060020a028152600401602060405180830381600087803b158015611a8c57600080fd5b505af1158015611aa0573d6000803e3d6000fd5b505050506040513d6020811015611ab657600080fd5b5051905090565b600080600080600080611acf33612ece565b1515611ada57600080fd5b611ae26108fb565b9550611aed87612125565b9450611afa876001612ed3565b611b0460016129c0565b611b1a610f89611b12610d4d565b610a83610d0c565b604051339088907f3b208472607d900e1f689c976139d1147afc463fa00df525e9aff8b0604d298490600090a3611b5087611386565b611b5988610a60565b1015611bd157611b6b8760045b612f65565b85600160a060020a03166340b7cd3f866040518263ffffffff1660e060020a02815260040180828152602001915050600060405180830381600087803b158015611bb457600080fd5b505af1158015611bc8573d6000803e3d6000fd5b50505050611da6565b611bda876122db565b9350611be5876121b7565b9250611bf087612249565b91506004905082841115611c0f5781841115611c0a575060025b611c26565b8383118015611c1d57508183115b15611c26575060035b611c3687826004811115611b6657fe5b6002816004811115611c4457fe5b1415611ce75785600160a060020a0316630cd1812f611c628961236d565b876040518363ffffffff1660e060020a0281526004018083600160a060020a0316600160a060020a0316815260200182815260200192505050602060405180830381600087803b158015611cb557600080fd5b505af1158015611cc9573d6000803e3d6000fd5b505050506040513d6020811015611cdf57600080fd5b50611da69050565b6003816004811115611cf557fe5b1415611d445785600160a060020a0316631995333b866040518263ffffffff1660e060020a02815260040180828152602001915050602060405180830381600087803b158015611cb557600080fd5b85600160a060020a03166340b7cd3f866040518263ffffffff1660e060020a02815260040180828152602001915050600060405180830381600087803b158015611d8d57600080fd5b505af1158015611da1573d6000803e3d6000fd5b505050505b50505050505050565b6040805160008051602061348c8339815191526020808301919091528183018490527f6372656174696f6e54696d650000000000000000000000000000000000000000606080840191909152835180840390910181526080909201928390528151600093600293859390928291840190808383602083106107d05780518252601f1990920191602091820191016107b1565b6040805160008051602061348c8339815191526020808301919091528183018490527f656e6454696d6500000000000000000000000000000000000000000000000000606080840191909152835180840390910181526080909201928390528151600093600293859390928291840190808383602083106107d05780518252601f1990920191602091820191016107b1565b6040805160008051602061348c8339815191526020808301919091528183018490527f63726561746f72000000000000000000000000000000000000000000000000006060808401919091528351808403909101815260809092019283905281516000936004938593909282918401908083835b60208310611f665780518252601f199092019160209182019101611f47565b51815160209384036101000a6000190180199092169116179052604080519290940182900390912086528501959095529290920160002054600160a060020a031695945050505050565b6040805160008051602061348c8339815191526020808301919091528183018490527f6d656d6f0000000000000000000000000000000000000000000000000000000060608381019190915283518084038201815260809093019384905282519093600393600093909282918401908083835b602083106120425780518252601f199092019160209182019101612023565b6001836020036101000a0380198251168184511680821785525050505050509050019150506040518091039020600019166000191681526020019081526020016000208054600181600116156101000203166002900480601f0160208091040260200160405190810160405280929190818152602001828054600181600116156101000203166002900480156121195780601f106120ee57610100808354040283529160200191612119565b820191906000526020600020905b8154815290600101906020018083116120fc57829003601f168201915b50505050509050919050565b6040805160008051602061348c8339815191526020808301919091528183018490527f616d6f756e740000000000000000000000000000000000000000000000000000606080840191909152835180840390910181526080909201928390528151600093600293859390928291840190808383602083106107d05780518252601f1990920191602091820191016107b1565b6040805160008051602061348c8339815191526020808301919091528183018490527f6275726e566f7465730000000000000000000000000000000000000000000000606080840191909152835180840390910181526080909201928390528151600093600293859390928291840190808383602083106107d05780518252601f1990920191602091820191016107b1565b6040805160008051602061348c8339815191526020808301919091528183018490527f667265657a65566f746573000000000000000000000000000000000000000000606080840191909152835180840390910181526080909201928390528151600093600293859390928291840190808383602083106107d05780518252601f1990920191602091820191016107b1565b6040805160008051602061348c8339815191526020808301919091528183018490527f73656e64566f7465730000000000000000000000000000000000000000000000606080840191909152835180840390910181526080909201928390528151600093600293859390928291840190808383602083106107d05780518252601f1990920191602091820191016107b1565b6040805160008051602061348c8339815191526020808301919091528183018490527f726563656976657200000000000000000000000000000000000000000000000060608084019190915283518084039091018152608090920192839052815160009360049385939092829184019080838360208310611f665780518252601f199092019160209182019101611f47565b6040805160008051602061348c8339815191526020808301919091528183018590527f766f7465727300000000000000000000000000000000000000000000000000006060830152600160a060020a0384166080808401919091528351808403909101815260a09092019283905281516000936006938593909282918401908083835b602083106124a15780518252601f199092019160209182019101612482565b51815160209384036101000a600019018019909216911617905260408051929094018290039091208652850195909552929092016000205460ff169695505050505050565b6000828201838110156124f557fe5b9392505050565b6000808686600080831180156125125750600082115b151561251d57600080fd5b8282118015612532575061252f610ad9565b83115b151561253d57600080fd5b61254d828463ffffffff61182216565b9050612557610640565b811161256257600080fd5b61256a610e63565b81111561257657600080fd5b61257e610a95565b151561258957600080fd5b612591611637565b93506125ac6125a785600163ffffffff6124e616565b612ff7565b6125b6848b613037565b6125c0848a6130c9565b6125cb846000612ed3565b6125d58488612f65565b6125e6846125e161315b565b6131a2565b6125f08487613234565b6125fa84896132c6565b60405133908c9086907fd1ba591c76ef71222e2d30b8277758713cc6eef1de29efaf98a716744ac2420b90600090a450919998505050505050505050565b6040805160008051602061348c8339815191526020808301919091528183018590527f73656e64566f74657300000000000000000000000000000000000000000000006060808401919091528351808403909101815260809092019283905281518493600293600093909282918401908083835b602083106126cb5780518252601f1990920191602091820191016126ac565b51815160209384036101000a60001901801990921691161790526040805192909401829003909120865285019590955292909201600020939093555050505050565b6040805160008051602061348c8339815191526020808301919091528183018590527f6275726e566f7465730000000000000000000000000000000000000000000000606080840191909152835180840390910181526080909201928390528151849360029360009390928291840190808383602083106126cb5780518252601f1990920191602091820191016126ac565b6040805160008051602061348c8339815191526020808301919091528183018590527f667265657a65566f746573000000000000000000000000000000000000000000606080840191909152835180840390910181526080909201928390528151849360029360009390928291840190808383602083106126cb5780518252601f1990920191602091820191016126ac565b6040805160008051602061348c8339815191526020808301919091528183018590527f72656365697665720000000000000000000000000000000000000000000000006060808401919091528351808403909101815260809092019283905281518493600493600093909282918401908083835b602083106128c45780518252601f1990920191602091820191016128a5565b51815160209384036101000a60001901801990921691161790526040805192909401829003909120865285019590955292909201600020805473ffffffffffffffffffffffffffffffffffffffff1916600160a060020a0395909516949094179093555050505050565b6040805160008051602061348c8339815191526020808301919091528183018590527f616d6f756e740000000000000000000000000000000000000000000000000000606080840191909152835180840390910181526080909201928390528151849360029360009390928291840190808383602083106126cb5780518252601f1990920191602091820191016126ac565b604080517f6e6f41637469766542616c6c6f74457869737473000000000000000000000000815281519081900360140190206000908152600660205220805491151560ff19909216919091179055565b6040805160008051602061348c8339815191526020808301919091528183018590527f6372656174696f6e54696d650000000000000000000000000000000000000000606080840191909152835180840390910181526080909201928390528151849360029360009390928291840190808383602083106126cb5780518252601f1990920191602091820191016126ac565b6040805160008051602061348c8339815191526020808301919091528183018590527f656d697373696f6e52656c6561736554696d65536e617073686f740000000000606080840191909152835180840390910181526080909201928390528151849360029360009390928291840190808383602083106126cb5780518252601f1990920191602091820191016126ac565b6040805160008051602061348c8339815191526020808301919091528183018590527f697343616e63656c6564000000000000000000000000000000000000000000006060808401919091528351808403909101815260809092019283905281518493600693600093909282918401908083835b60208310612bc75780518252601f199092019160209182019101612ba8565b51815160209384036101000a60001901801990921691161790526040805192909401829003909120865285019590955292909201600020805460ff1916941515949094179093555050505050565b6000808284811515612c2357fe5b04949350505050565b600080831515612c3f57600091506114d1565b50828202828482811515612c4f57fe5b04146124f557fe5b604080517f656d697373696f6e52656c6561736554696d650000000000000000000000000081528151908190036013019020600090815260026020522055565b6040805160008051602061348c8339815191526020808301919091528183018490527f656d697373696f6e52656c6561736554696d65536e617073686f740000000000606080840191909152835180840390910181526080909201928390528151600093600293859390928291840190808383602083106107d05780518252601f1990920191602091820191016107b1565b6040805160008051602061348c8339815191526020808301919091528183018590527f766f7465727300000000000000000000000000000000000000000000000000006060830152600160a060020a0384166080808401919091528351808403909101815260a09092019283905281516001936006936000939092829184019080838360208310612bc75780518252601f199092019160209182019101612ba8565b604080517f6f776e65720000000000000000000000000000000000000000000000000000008152815190819003600501902060009081526004602052205433600160a060020a0390911614612e1f57600080fd5b612e27610a95565b15612e3157600080fd5b612e39610e63565b8110612e4457600080fd5b604080517f6d696e42616c6c6f744475726174696f6e00000000000000000000000000000081528151908190036011018120600090815260026020908152838220949094557f696e697444697361626c656400000000000000000000000000000000000000008252825191829003600c01909120815260069092529020805460ff19166001179055565b3b1590565b6040805160008051602061348c8339815191526020808301919091528183018590527f697346696e616c697a656400000000000000000000000000000000000000000060608084019190915283518084039091018152608090920192839052815184936006936000939092829184019080838360208310612bc75780518252601f199092019160209182019101612ba8565b6040805160008051602061348c8339815191526020808301919091528183018590527f71756f72756d5374617465000000000000000000000000000000000000000000606080840191909152835180840390910181526080909201928390528151849360029360009390928291840190808383602083106126cb5780518252601f1990920191602091820191016126ac565b604080517f6e65787442616c6c6f74496400000000000000000000000000000000000000008152815190819003600c019020600090815260026020522055565b6040805160008051602061348c8339815191526020808301919091528183018590527f737461727454696d650000000000000000000000000000000000000000000000606080840191909152835180840390910181526080909201928390528151849360029360009390928291840190808383602083106126cb5780518252601f1990920191602091820191016126ac565b6040805160008051602061348c8339815191526020808301919091528183018590527f656e6454696d6500000000000000000000000000000000000000000000000000606080840191909152835180840390910181526080909201928390528151849360029360009390928291840190808383602083106126cb5780518252601f1990920191602091820191016126ac565b60006131656133ac565b600160a060020a031663eecd10796040518163ffffffff1660e060020a028152600401602060405180830381600087803b158015611a8c57600080fd5b6040805160008051602061348c8339815191526020808301919091528183018590527f6d696e5468726573686f6c644f66566f74657273000000000000000000000000606080840191909152835180840390910181526080909201928390528151849360029360009390928291840190808383602083106126cb5780518252601f1990920191602091820191016126ac565b6040805160008051602061348c8339815191526020808301919091528183018590527f63726561746f7200000000000000000000000000000000000000000000000000606080840191909152835180840390910181526080909201928390528151849360049360009390928291840190808383602083106128c45780518252601f1990920191602091820191016128a5565b6040805160008051602061348c8339815191526020808301919091528183018590527f6d656d6f000000000000000000000000000000000000000000000000000000006060808401919091528351808403909101815260809092019283905281518493600393600093909282918401908083835b602083106133595780518252601f19909201916020918201910161333a565b51815160001960209485036101000a019081169019919091161790526040805194909201849003909320865285830196909652509290930160002084516133a79591945092019190506133f3565b505050565b60006133b6610fbe565b600160a060020a03166336ee77736040518163ffffffff1660e060020a028152600401602060405180830381600087803b158015611a8c57600080fd5b828054600181600116156101000203166002900490600052602060002090601f016020900481019282601f1061343457805160ff1916838001178555613461565b82800160010185558215613461579182015b82811115613461578251825591602001919060010190613446565b5061346d929150613471565b5090565b61067f91905b8082111561346d57600081556001016134775600766f74696e675374617465000000000000000000000000000000000000000000a165627a7a72305820268b6b814a0f7cb5843321133892b923d7888156aaee146c3c7ec022c710634c0029",
  "source": "pragma solidity ^0.4.24;\n\nimport \"./interfaces/IEmissionFunds.sol\";\nimport \"./interfaces/IPoaNetworkConsensus.sol\";\nimport \"./abstracts/VotingTo.sol\";\n\n\ncontract VotingToManageEmissionFunds is VotingTo {\n    bytes32 internal constant DISTRIBUTION_THRESHOLD =\n        keccak256(\"distributionThreshold\");\n    \n    bytes32 internal constant EMISSION_FUNDS =\n        keccak256(\"emissionFunds\");\n    \n    bytes32 internal constant EMISSION_RELEASE_THRESHOLD =\n        keccak256(\"emissionReleaseThreshold\");\n    \n    bytes32 internal constant EMISSION_RELEASE_TIME =\n        keccak256(\"emissionReleaseTime\");\n    \n    bytes32 internal constant NO_ACTIVE_BALLOT_EXISTS =\n        keccak256(\"noActiveBallotExists\");\n\n    bytes32 internal constant AMOUNT = \"amount\";\n    bytes32 internal constant BURN_VOTES = \"burnVotes\";\n    bytes32 internal constant CREATION_TIME = \"creationTime\";\n    bytes32 internal constant EMISSION_RELEASE_TIME_SNAPSHOT = \"emissionReleaseTimeSnapshot\";\n    bytes32 internal constant FREEZE_VOTES = \"freezeVotes\";\n    bytes32 internal constant IS_CANCELED = \"isCanceled\";\n    bytes32 internal constant RECEIVER = \"receiver\";\n    bytes32 internal constant SEND_VOTES = \"sendVotes\";\n\n    event BallotCanceled(\n        uint256 indexed id,\n        address indexed votingKey\n    );\n\n    enum QuorumStates {Invalid, InProgress, Sent, Burnt, Frozen}\n    enum ActionChoice {Invalid, Send, Burn, Freeze}\n\n    function ballotCancelingThreshold() public pure returns(uint256) {\n        return 15 minutes;\n    }\n\n    // solhint-disable code-complexity\n    function canBeFinalizedNow(uint256 _id) public view returns(bool) {\n        if (_id >= nextBallotId()) return false;\n        if (_id != nextBallotId().sub(1)) return false;\n        if (_getStartTime(_id) > getTime()) return false;\n        if (isActive(_id)) return false;\n        if (_getIsCanceled(_id)) return false;\n        if (_getIsFinalized(_id)) return false;\n        if (noActiveBallotExists()) return false;\n        if (_withinCancelingThreshold(_id)) return false;\n        return true;\n    }\n    // solhint-enable code-complexity\n\n    function cancelNewBallot() public {\n        uint256 ballotId = nextBallotId().sub(1);\n        require(_getKeysManager().getMiningKeyByVoting(msg.sender) == _getCreator(ballotId));\n        require(_withinCancelingThreshold(ballotId));\n        require(!_getIsCanceled(ballotId));\n        require(!_getIsFinalized(ballotId));\n        _setIsCanceled(ballotId, true);\n        _setNoActiveBallotExists(true);\n        _setEmissionReleaseTime(_getEmissionReleaseTimeSnapshot(ballotId));\n        emit BallotCanceled(ballotId, msg.sender);\n    }\n\n    function createBallot(\n        uint256 _startTime,\n        uint256 _endTime,\n        address _receiver,\n        string _memo\n    ) public onlyValidVotingKey(msg.sender) {\n        uint256 currentTime = getTime();\n        uint256 releaseTimeSnapshot = emissionReleaseTime();\n        uint256 releaseTime = refreshEmissionReleaseTime();\n        require(currentTime >= releaseTime);\n        require(_endTime.sub(releaseTime) <= distributionThreshold());\n        require(_receiver != address(0));\n        require(noActiveBallotExists());\n        uint256 ballotId = super._createBallot(\n            uint256(BallotTypes.ManageEmissionFunds),\n            _startTime,\n            _endTime,\n            _memo,\n            uint256(QuorumStates.InProgress),\n            _getKeysManager().getMiningKeyByVoting(msg.sender)\n        );\n        _setSendVotes(ballotId, 0);\n        _setBurnVotes(ballotId, 0);\n        _setFreezeVotes(ballotId, 0);\n        _setReceiver(ballotId, _receiver);\n        _setAmount(ballotId, emissionFunds().balance);\n        _setNoActiveBallotExists(false);\n        _setCreationTime(ballotId, currentTime);\n        _setEmissionReleaseTimeSnapshot(ballotId, releaseTimeSnapshot);\n        _setIsCanceled(ballotId, false);\n    }\n\n    function distributionThreshold() public view returns(uint256) {\n        return uintStorage[DISTRIBUTION_THRESHOLD];\n    }\n\n    function emissionFunds() public view returns(address) {\n        return addressStorage[EMISSION_FUNDS];\n    }\n\n    function emissionReleaseThreshold() public view returns(uint256) {\n        return uintStorage[EMISSION_RELEASE_THRESHOLD];\n    }\n\n    function emissionReleaseTime() public view returns(uint256) {\n        return uintStorage[EMISSION_RELEASE_TIME];\n    }\n\n    function finalize(uint256 _id) public onlyValidVotingKey(msg.sender) {\n        require(canBeFinalizedNow(_id));\n        _finalize(_id);\n    }\n\n    function getBallotInfo(uint256 _id) public view returns(\n        uint256 creationTime,\n        uint256 startTime,\n        uint256 endTime,\n        bool isCanceled,\n        bool isFinalized,\n        address creator,\n        string memo,\n        uint256 amount,\n        uint256 burnVotes,\n        uint256 freezeVotes,\n        uint256 sendVotes,\n        address receiver\n    ) {\n        creationTime = _getCreationTime(_id);\n        startTime = _getStartTime(_id);\n        endTime = _getEndTime(_id);\n        isCanceled = _getIsCanceled(_id);\n        isFinalized = _getIsFinalized(_id);\n        creator = _getCreator(_id);\n        memo = _getMemo(_id);\n        amount = _getAmount(_id);\n        burnVotes = _getBurnVotes(_id);\n        freezeVotes = _getFreezeVotes(_id);\n        sendVotes = _getSendVotes(_id);\n        receiver = _getReceiver(_id);\n    }\n\n    function getTotalVoters(uint256 _id) public view returns(uint256) {\n        return _getSendVotes(_id).add(_getBurnVotes(_id)).add(_getFreezeVotes(_id));\n    }\n\n    function init(\n        uint256 _emissionReleaseTime, // unix timestamp\n        uint256 _emissionReleaseThreshold, // seconds\n        uint256 _distributionThreshold, // seconds\n        uint256 _minBallotDuration, // seconds\n        address _emissionFunds\n    ) public onlyOwner {\n        require(_emissionReleaseTime > getTime());\n        require(_distributionThreshold > ballotCancelingThreshold());\n        require(_emissionReleaseThreshold > _distributionThreshold);\n        require(_minBallotDuration < _distributionThreshold);\n        require(_emissionFunds != address(0));\n        _init(_minBallotDuration);\n        _setNoActiveBallotExists(true);\n        _setEmissionReleaseTime(_emissionReleaseTime);\n        addressStorage[EMISSION_FUNDS] = _emissionFunds;\n        uintStorage[EMISSION_RELEASE_THRESHOLD] = _emissionReleaseThreshold;\n        uintStorage[DISTRIBUTION_THRESHOLD] = _distributionThreshold;\n    }\n\n    function noActiveBallotExists() public view returns(bool) {\n        return boolStorage[NO_ACTIVE_BALLOT_EXISTS];\n    }\n\n    function refreshEmissionReleaseTime() public returns(uint256) {\n        require(initDisabled());\n        uint256 releaseTime = emissionReleaseTime();\n        uint256 currentTime = getTime();\n        if (currentTime > releaseTime) {\n            uint256 releaseThreshold = emissionReleaseThreshold();\n            uint256 diff = currentTime.sub(releaseTime).div(releaseThreshold);\n            if (diff > 0) {\n                releaseTime = releaseTime.add(releaseThreshold.mul(diff));\n                _setEmissionReleaseTime(releaseTime);\n            }\n        }\n        return releaseTime;\n    }\n\n    function vote(uint256 _id, uint256 _choice) public onlyValidVotingKey(msg.sender) {\n        require(!_getIsCanceled(_id));\n        require(!_getIsFinalized(_id));\n        require(isValidVote(_id, msg.sender));\n        if (_choice == uint(ActionChoice.Send)) {\n            _setSendVotes(_id, _getSendVotes(_id).add(1));\n        } else if (_choice == uint(ActionChoice.Burn)) {\n            _setBurnVotes(_id, _getBurnVotes(_id).add(1));\n        } else if (_choice == uint(ActionChoice.Freeze)) {\n            _setFreezeVotes(_id, _getFreezeVotes(_id).add(1));\n        } else {\n            revert();\n        }\n        address miningKey = _getKeysManager().getMiningKeyByVoting(msg.sender);\n        _votersAdd(_id, miningKey);\n        emit Vote(_id, _choice, msg.sender, getTime(), miningKey);\n\n        uint256 validatorsLength = IPoaNetworkConsensus(\n            IProxyStorage(proxyStorage()).getPoaConsensus()\n        ).getCurrentValidatorsLengthWithoutMoC();\n        \n        if (\n            getTotalVoters(_id) >= validatorsLength &&\n            !_withinCancelingThreshold(_id) &&\n            getTime().sub(_getStartTime(_id)) > minBallotDuration()\n        ) {\n            _finalize(_id);\n        }\n    }\n\n    function _finalize(uint256 _id) internal {\n        require(_isEOA(msg.sender));\n\n        IEmissionFunds _emissionFunds = IEmissionFunds(emissionFunds());\n        uint256 amount = _getAmount(_id);\n\n        _setIsFinalized(_id, true);\n        _setNoActiveBallotExists(true);\n        _setEmissionReleaseTime(\n            emissionReleaseTime().add(emissionReleaseThreshold())\n        );\n        \n        emit BallotFinalized(_id, msg.sender);\n        \n        if (getTotalVoters(_id) < getMinThresholdOfVoters(_id)) {\n            _setQuorumState(_id, uint256(QuorumStates.Frozen));\n            _emissionFunds.freezeFunds(amount);\n            return;\n        }\n\n        uint256 sendVotesCount = _getSendVotes(_id);\n        uint256 burnVotesCount = _getBurnVotes(_id);\n        uint256 freezeVotesCount = _getFreezeVotes(_id);\n        QuorumStates quorumState = QuorumStates.Frozen;\n\n        if (sendVotesCount > burnVotesCount) {\n            if (sendVotesCount > freezeVotesCount) {\n                quorumState = QuorumStates.Sent;\n            }\n        } else {\n            if (burnVotesCount > sendVotesCount && burnVotesCount > freezeVotesCount) {\n                quorumState = QuorumStates.Burnt;\n            }\n        }\n\n        _setQuorumState(_id, uint256(quorumState));\n\n        if (quorumState == QuorumStates.Sent) {\n            _emissionFunds.sendFundsTo(_getReceiver(_id), amount);\n        } else if (quorumState == QuorumStates.Burnt) {\n            _emissionFunds.burnFunds(amount);\n        } else {\n            _emissionFunds.freezeFunds(amount);\n        }\n    }\n\n    function _getAmount(uint256 _id) internal view returns(uint256) {\n        return uintStorage[keccak256(abi.encode(VOTING_STATE, _id, AMOUNT))];\n    }\n\n    function _getBurnVotes(uint256 _id) internal view returns(uint256) {\n        return uintStorage[keccak256(abi.encode(VOTING_STATE, _id, BURN_VOTES))];\n    }\n\n    function _getCreationTime(uint256 _ballotId) internal view returns(uint256) {\n        return uintStorage[\n            keccak256(abi.encode(VOTING_STATE, _ballotId, CREATION_TIME))\n        ];\n    }\n\n    function _getEmissionReleaseTimeSnapshot(uint256 _ballotId) internal view returns(uint256) {\n        return uintStorage[\n            keccak256(abi.encode(VOTING_STATE, _ballotId, EMISSION_RELEASE_TIME_SNAPSHOT))\n        ];\n    }\n\n    function _getFreezeVotes(uint256 _id) internal view returns(uint256) {\n        return uintStorage[keccak256(abi.encode(VOTING_STATE, _id, FREEZE_VOTES))];\n    }\n\n    function _getGlobalMinThresholdOfVoters() internal view returns(uint256) {\n        return _getBallotsStorage().getProxyThreshold();\n    }\n\n    function _getIsCanceled(uint256 _ballotId) internal view returns(bool) {\n        return boolStorage[\n            keccak256(abi.encode(VOTING_STATE, _ballotId, IS_CANCELED))\n        ];\n    }\n\n    function _getReceiver(uint256 _id) internal view returns(address) {\n        return addressStorage[keccak256(abi.encode(VOTING_STATE, _id, RECEIVER))];\n    }\n\n    function _getSendVotes(uint256 _id) internal view returns(uint256) {\n        return uintStorage[keccak256(abi.encode(VOTING_STATE, _id, SEND_VOTES))];\n    }\n\n    function _isEOA(address addr) internal view returns (bool) {\n        uint256 size;\n        assembly { size := extcodesize(addr) }\n        return size == 0;\n    }\n\n    function _setAmount(uint256 _ballotId, uint256 _amount) private {\n        uintStorage[\n            keccak256(abi.encode(VOTING_STATE, _ballotId, AMOUNT))\n        ] = _amount;\n    }\n\n    function _setBurnVotes(uint256 _ballotId, uint256 _value) private {\n        uintStorage[\n            keccak256(abi.encode(VOTING_STATE, _ballotId, BURN_VOTES))\n        ] = _value;\n    }\n\n    function _setCreationTime(uint256 _ballotId, uint256 _time) private {\n        uintStorage[\n            keccak256(abi.encode(VOTING_STATE, _ballotId, CREATION_TIME))\n        ] = _time;\n    }\n\n    function _setEmissionReleaseTime(uint256 _time) private {\n        uintStorage[EMISSION_RELEASE_TIME] = _time;\n    }\n\n    function _setEmissionReleaseTimeSnapshot(uint256 _ballotId, uint256 _time) private {\n        uintStorage[\n            keccak256(abi.encode(VOTING_STATE, _ballotId, EMISSION_RELEASE_TIME_SNAPSHOT))\n        ] = _time;\n    }\n\n    function _setFreezeVotes(uint256 _ballotId, uint256 _value) private {\n        uintStorage[\n            keccak256(abi.encode(VOTING_STATE, _ballotId, FREEZE_VOTES))\n        ] = _value;\n    }\n\n    function _setIsCanceled(uint256 _ballotId, bool _canceled) private {\n        boolStorage[\n            keccak256(abi.encode(VOTING_STATE, _ballotId, IS_CANCELED))\n        ] = _canceled;\n    }\n\n    function _setNoActiveBallotExists(bool _finalized) private {\n        boolStorage[NO_ACTIVE_BALLOT_EXISTS] = _finalized;\n    }\n\n    function _setReceiver(uint256 _ballotId, address _value) private {\n        addressStorage[\n            keccak256(abi.encode(VOTING_STATE, _ballotId, RECEIVER))\n        ] = _value;\n    }\n\n    function _setSendVotes(uint256 _ballotId, uint256 _value) private {\n        uintStorage[\n            keccak256(abi.encode(VOTING_STATE, _ballotId, SEND_VOTES))\n        ] = _value;\n    }\n\n    function _withinCancelingThreshold(uint256 _ballotId) private view returns(bool) {\n        return getTime().sub(_getCreationTime(_ballotId)) <= ballotCancelingThreshold();\n    }\n}\n",
  "sourcePath": "/home/moc/poa-network-consensus-contracts/contracts/VotingToManageEmissionFunds.sol",
  "compiler": {
    "name": "solc",
    "version": "0.4.24+commit.e67f0147.Emscripten.clang"
  },
  "schemaVersion": "2.0.1",
  "updatedAt": "2021-11-29T10:09:51.095Z"
}